{
  "_format": "hh-sol-artifact-1",
  "contractName": "MiMaticLiquidate",
  "sourceName": "contracts/MiMaticLiquidate.sol",
  "abi": [
    {
      "inputs": [
        {
          "internalType": "contract IQiLiquidator",
          "name": "_qiLiquidator",
          "type": "address"
        },
        {
          "internalType": "contract IUniswapV2Router02",
          "name": "_quickSwapRouter",
          "type": "address"
        },
        {
          "internalType": "contract ILendingPoolAddressesProvider",
          "name": "_aaveLendingPoolAddressProvider",
          "type": "address"
        },
        {
          "internalType": "contract IERC20",
          "name": "_usdc",
          "type": "address"
        },
        {
          "internalType": "contract IERC20",
          "name": "_miMatic",
          "type": "address"
        }
      ],
      "stateMutability": "nonpayable",
      "type": "constructor"
    },
    {
      "anonymous": false,
      "inputs": [
        {
          "indexed": true,
          "internalType": "address",
          "name": "previousOwner",
          "type": "address"
        },
        {
          "indexed": true,
          "internalType": "address",
          "name": "newOwner",
          "type": "address"
        }
      ],
      "name": "OwnershipTransferred",
      "type": "event"
    },
    {
      "inputs": [
        {
          "internalType": "address[]",
          "name": "addressesToApprove",
          "type": "address[]"
        }
      ],
      "name": "approveAddresses",
      "outputs": [],
      "stateMutability": "nonpayable",
      "type": "function"
    },
    {
      "inputs": [
        {
          "internalType": "address",
          "name": "addressToApprove",
          "type": "address"
        },
        {
          "internalType": "address",
          "name": "asset",
          "type": "address"
        },
        {
          "internalType": "uint256",
          "name": "amount",
          "type": "uint256"
        }
      ],
      "name": "approveSwap",
      "outputs": [],
      "stateMutability": "nonpayable",
      "type": "function"
    },
    {
      "inputs": [
        {
          "internalType": "address",
          "name": "_asset",
          "type": "address"
        },
        {
          "internalType": "uint256",
          "name": "_amount",
          "type": "uint256"
        }
      ],
      "name": "executeFlashLoan",
      "outputs": [],
      "stateMutability": "nonpayable",
      "type": "function"
    },
    {
      "inputs": [
        {
          "internalType": "address[]",
          "name": "assets",
          "type": "address[]"
        },
        {
          "internalType": "uint256[]",
          "name": "amounts",
          "type": "uint256[]"
        },
        {
          "internalType": "uint256[]",
          "name": "premiums",
          "type": "uint256[]"
        },
        {
          "internalType": "address",
          "name": "initiator",
          "type": "address"
        },
        {
          "internalType": "bytes",
          "name": "params",
          "type": "bytes"
        }
      ],
      "name": "executeOperation",
      "outputs": [
        {
          "internalType": "bool",
          "name": "",
          "type": "bool"
        }
      ],
      "stateMutability": "nonpayable",
      "type": "function"
    },
    {
      "inputs": [
        {
          "internalType": "address",
          "name": "to",
          "type": "address"
        },
        {
          "internalType": "uint256",
          "name": "_amountIn",
          "type": "uint256"
        },
        {
          "internalType": "address",
          "name": "_assetOut",
          "type": "address"
        },
        {
          "internalType": "uint256",
          "name": "amountOutMin",
          "type": "uint256"
        },
        {
          "internalType": "uint256",
          "name": "_timestamp",
          "type": "uint256"
        }
      ],
      "name": "executeSwapMaticForTokens",
      "outputs": [],
      "stateMutability": "nonpayable",
      "type": "function"
    },
    {
      "inputs": [
        {
          "internalType": "address",
          "name": "to",
          "type": "address"
        },
        {
          "internalType": "address",
          "name": "_assetIn",
          "type": "address"
        },
        {
          "internalType": "uint256",
          "name": "_amountIn",
          "type": "uint256"
        },
        {
          "internalType": "address",
          "name": "_assetOut",
          "type": "address"
        },
        {
          "internalType": "uint256",
          "name": "amountOutMin",
          "type": "uint256"
        },
        {
          "internalType": "uint256",
          "name": "_timestamp",
          "type": "uint256"
        }
      ],
      "name": "executeSwapTokensForTokens",
      "outputs": [],
      "stateMutability": "nonpayable",
      "type": "function"
    },
    {
      "inputs": [],
      "name": "isOwner",
      "outputs": [
        {
          "internalType": "bool",
          "name": "",
          "type": "bool"
        }
      ],
      "stateMutability": "view",
      "type": "function"
    },
    {
      "inputs": [
        {
          "internalType": "uint256",
          "name": "_vaultId",
          "type": "uint256"
        },
        {
          "internalType": "uint256",
          "name": "_timestamp",
          "type": "uint256"
        }
      ],
      "name": "liquidateVault",
      "outputs": [],
      "stateMutability": "nonpayable",
      "type": "function"
    },
    {
      "inputs": [],
      "name": "owner",
      "outputs": [
        {
          "internalType": "address",
          "name": "",
          "type": "address"
        }
      ],
      "stateMutability": "view",
      "type": "function"
    },
    {
      "inputs": [],
      "name": "renounceOwnership",
      "outputs": [],
      "stateMutability": "nonpayable",
      "type": "function"
    },
    {
      "inputs": [],
      "name": "rugPull",
      "outputs": [],
      "stateMutability": "payable",
      "type": "function"
    },
    {
      "inputs": [
        {
          "internalType": "address",
          "name": "newOwner",
          "type": "address"
        }
      ],
      "name": "transferOwnership",
      "outputs": [],
      "stateMutability": "nonpayable",
      "type": "function"
    },
    {
      "stateMutability": "payable",
      "type": "receive"
    }
  ],
  "bytecode": "0x60806040526000600a553480156200001657600080fd5b5060405162002d8738038062002d87833981810160405260a08110156200003c57600080fd5b81019080805190602001909291908051906020019092919080519060200190929190805190602001909291908051906020019092919050505082806000806101000a81548173ffffffffffffffffffffffffffffffffffffffff021916908373ffffffffffffffffffffffffffffffffffffffff1602179055508073ffffffffffffffffffffffffffffffffffffffff16630261bf8b6040518163ffffffff1660e01b815260040160206040518083038186803b158015620000fd57600080fd5b505afa15801562000112573d6000803e3d6000fd5b505050506040513d60208110156200012957600080fd5b8101908080519060200190929190505050600160006101000a81548173ffffffffffffffffffffffffffffffffffffffff021916908373ffffffffffffffffffffffffffffffffffffffff1602179055505033600260006101000a81548173ffffffffffffffffffffffffffffffffffffffff021916908373ffffffffffffffffffffffffffffffffffffffff160217905550600260009054906101000a900473ffffffffffffffffffffffffffffffffffffffff1673ffffffffffffffffffffffffffffffffffffffff16600073ffffffffffffffffffffffffffffffffffffffff167f8be0079c531659141344cd1fd0a4f28419497f9722a3daafe3b4186f6b6457e060405160405180910390a384600360006101000a81548173ffffffffffffffffffffffffffffffffffffffff021916908373ffffffffffffffffffffffffffffffffffffffff16021790555082600460006101000a81548173ffffffffffffffffffffffffffffffffffffffff021916908373ffffffffffffffffffffffffffffffffffffffff160217905550600460009054906101000a900473ffffffffffffffffffffffffffffffffffffffff1673ffffffffffffffffffffffffffffffffffffffff16630261bf8b6040518163ffffffff1660e01b815260040160206040518083038186803b1580156200032457600080fd5b505afa15801562000339573d6000803e3d6000fd5b505050506040513d60208110156200035057600080fd5b8101908080519060200190929190505050600860006101000a81548173ffffffffffffffffffffffffffffffffffffffff021916908373ffffffffffffffffffffffffffffffffffffffff16021790555083600560006101000a81548173ffffffffffffffffffffffffffffffffffffffff021916908373ffffffffffffffffffffffffffffffffffffffff16021790555081600660006101000a81548173ffffffffffffffffffffffffffffffffffffffff021916908373ffffffffffffffffffffffffffffffffffffffff16021790555080600760006101000a81548173ffffffffffffffffffffffffffffffffffffffff021916908373ffffffffffffffffffffffffffffffffffffffff160217905550505050505061290e80620004796000396000f3fe6080604052600436106100ab5760003560e01c8063920f5c8411610064578063920f5c8414610230578063952cc86a146103eb578063c5f05a5814610430578063e02dd31f146104ab578063f0f4d0cb1461055a578063f2fde38b1461061f576100b2565b80632190dfd0146100b757806339570fc6146100c15780636065c24514610150578063715018a6146101ab5780638da5cb5b146101c25780638f32d59b14610203576100b2565b366100b257005b600080fd5b6100bf610670565b005b3480156100cd57600080fd5b5061014e600480360360a08110156100e457600080fd5b81019080803573ffffffffffffffffffffffffffffffffffffffff16906020019092919080359060200190929190803573ffffffffffffffffffffffffffffffffffffffff1690602001909291908035906020019092919080359060200190929190505050610a76565b005b34801561015c57600080fd5b506101a96004803603604081101561017357600080fd5b81019080803573ffffffffffffffffffffffffffffffffffffffff16906020019092919080359060200190929190505050610ec1565b005b3480156101b757600080fd5b506101c061130b565b005b3480156101ce57600080fd5b506101d7611446565b604051808273ffffffffffffffffffffffffffffffffffffffff16815260200191505060405180910390f35b34801561020f57600080fd5b50610218611470565b60405180821515815260200191505060405180910390f35b34801561023c57600080fd5b506103d3600480360360a081101561025357600080fd5b810190808035906020019064010000000081111561027057600080fd5b82018360208201111561028257600080fd5b803590602001918460208302840111640100000000831117156102a457600080fd5b9091929391929390803590602001906401000000008111156102c557600080fd5b8201836020820111156102d757600080fd5b803590602001918460208302840111640100000000831117156102f957600080fd5b90919293919293908035906020019064010000000081111561031a57600080fd5b82018360208201111561032c57600080fd5b8035906020019184602083028401116401000000008311171561034e57600080fd5b9091929391929390803573ffffffffffffffffffffffffffffffffffffffff1690602001909291908035906020019064010000000081111561038f57600080fd5b8201836020820111156103a157600080fd5b803590602001918460018302840111640100000000831117156103c357600080fd5b90919293919293905050506114c8565b60405180821515815260200191505060405180910390f35b3480156103f757600080fd5b5061042e6004803603604081101561040e57600080fd5b810190808035906020019092919080359060200190929190505050611a5a565b005b34801561043c57600080fd5b506104a96004803603606081101561045357600080fd5b81019080803573ffffffffffffffffffffffffffffffffffffffff169060200190929190803573ffffffffffffffffffffffffffffffffffffffff16906020019092919080359060200190929190505050611d25565b005b3480156104b757600080fd5b50610558600480360360c08110156104ce57600080fd5b81019080803573ffffffffffffffffffffffffffffffffffffffff169060200190929190803573ffffffffffffffffffffffffffffffffffffffff16906020019092919080359060200190929190803573ffffffffffffffffffffffffffffffffffffffff1690602001909291908035906020019092919080359060200190929190505050611e80565b005b34801561056657600080fd5b5061061d6004803603602081101561057d57600080fd5b810190808035906020019064010000000081111561059a57600080fd5b8201836020820111156105ac57600080fd5b803590602001918460208302840111640100000000831117156105ce57600080fd5b919080806020026020016040519081016040528093929190818152602001838360200280828437600081840152601f19601f820116905080830192505050505050509192919290505050612300565b005b34801561062b57600080fd5b5061066e6004803603602081101561064257600080fd5b81019080803573ffffffffffffffffffffffffffffffffffffffff169060200190929190505050612402565b005b610678611470565b6106ea576040517f08c379a00000000000000000000000000000000000000000000000000000000081526004018080602001828103825260208152602001807f4f776e61626c653a2063616c6c6572206973206e6f7420746865206f776e657281525060200191505060405180910390fd5b3373ffffffffffffffffffffffffffffffffffffffff164760405180600001905060006040518083038185875af1925050503d8060008114610748576040519150601f19603f3d011682016040523d82523d6000602084013e61074d565b606091505b505050600660009054906101000a900473ffffffffffffffffffffffffffffffffffffffff1673ffffffffffffffffffffffffffffffffffffffff1663a9059cbb33600660009054906101000a900473ffffffffffffffffffffffffffffffffffffffff1673ffffffffffffffffffffffffffffffffffffffff166370a08231306040518263ffffffff1660e01b8152600401808273ffffffffffffffffffffffffffffffffffffffff16815260200191505060206040518083038186803b15801561081857600080fd5b505afa15801561082c573d6000803e3d6000fd5b505050506040513d602081101561084257600080fd5b81019080805190602001909291905050506040518363ffffffff1660e01b8152600401808373ffffffffffffffffffffffffffffffffffffffff16815260200182815260200192505050602060405180830381600087803b1580156108a657600080fd5b505af11580156108ba573d6000803e3d6000fd5b505050506040513d60208110156108d057600080fd5b810190808051906020019092919050505050600760009054906101000a900473ffffffffffffffffffffffffffffffffffffffff1673ffffffffffffffffffffffffffffffffffffffff1663a9059cbb33600760009054906101000a900473ffffffffffffffffffffffffffffffffffffffff1673ffffffffffffffffffffffffffffffffffffffff166370a08231306040518263ffffffff1660e01b8152600401808273ffffffffffffffffffffffffffffffffffffffff16815260200191505060206040518083038186803b1580156109aa57600080fd5b505afa1580156109be573d6000803e3d6000fd5b505050506040513d60208110156109d457600080fd5b81019080805190602001909291905050506040518363ffffffff1660e01b8152600401808373ffffffffffffffffffffffffffffffffffffffff16815260200182815260200192505050602060405180830381600087803b158015610a3857600080fd5b505af1158015610a4c573d6000803e3d6000fd5b505050506040513d6020811015610a6257600080fd5b810190808051906020019092919050505050565b60011515600960003373ffffffffffffffffffffffffffffffffffffffff1673ffffffffffffffffffffffffffffffffffffffff16815260200190815260200160002060009054906101000a900460ff1615151480610b225750600860009054906101000a900473ffffffffffffffffffffffffffffffffffffffff1673ffffffffffffffffffffffffffffffffffffffff163373ffffffffffffffffffffffffffffffffffffffff16145b610b77576040517f08c379a000000000000000000000000000000000000000000000000000000000815260040180806020018281038252603781526020018061285f6037913960400191505060405180910390fd5b6000601e820190506060600267ffffffffffffffff81118015610b9957600080fd5b50604051908082528060200260200182016040528015610bc85781602001602082028036833780820191505090505b509050600560009054906101000a900473ffffffffffffffffffffffffffffffffffffffff1673ffffffffffffffffffffffffffffffffffffffff1663ad5c46486040518163ffffffff1660e01b815260040160206040518083038186803b158015610c3357600080fd5b505afa158015610c47573d6000803e3d6000fd5b505050506040513d6020811015610c5d57600080fd5b810190808051906020019092919050505081600081518110610c7b57fe5b602002602001019073ffffffffffffffffffffffffffffffffffffffff16908173ffffffffffffffffffffffffffffffffffffffff16815250508481600181518110610cc357fe5b602002602001019073ffffffffffffffffffffffffffffffffffffffff16908173ffffffffffffffffffffffffffffffffffffffff1681525050600560009054906101000a900473ffffffffffffffffffffffffffffffffffffffff1673ffffffffffffffffffffffffffffffffffffffff16637ff36ab58786848b876040518663ffffffff1660e01b815260040180858152602001806020018473ffffffffffffffffffffffffffffffffffffffff168152602001838152602001828103825285818151815260200191508051906020019060200280838360005b83811015610dba578082015181840152602081019050610d9f565b50505050905001955050505050506000604051808303818588803b158015610de157600080fd5b505af1158015610df5573d6000803e3d6000fd5b50505050506040513d6000823e3d601f19601f820116820180604052506020811015610e2057600080fd5b8101908080516040519392919084640100000000821115610e4057600080fd5b83820191506020820185811115610e5657600080fd5b8251866020820283011164010000000082111715610e7357600080fd5b8083526020830192505050908051906020019060200280838360005b83811015610eaa578082015181840152602081019050610e8f565b505050509050016040525050505050505050505050565b60011515600960003373ffffffffffffffffffffffffffffffffffffffff1673ffffffffffffffffffffffffffffffffffffffff16815260200190815260200160002060009054906101000a900460ff16151514610f6a576040517f08c379a000000000000000000000000000000000000000000000000000000000815260040180806020018281038252602481526020018061283b6024913960400191505060405180910390fd5b60003090506060600167ffffffffffffffff81118015610f8957600080fd5b50604051908082528060200260200182016040528015610fb85781602001602082028036833780820191505090505b5090508381600081518110610fc957fe5b602002602001019073ffffffffffffffffffffffffffffffffffffffff16908173ffffffffffffffffffffffffffffffffffffffff16815250506060600167ffffffffffffffff8111801561101d57600080fd5b5060405190808252806020026020018201604052801561104c5781602001602082028036833780820191505090505b509050838160008151811061105d57fe5b6020026020010181815250506060600167ffffffffffffffff8111801561108357600080fd5b506040519080825280602002602001820160405280156110b25781602001602082028036833780820191505090505b5090506000816000815181106110c457fe5b602002602001018181525050600030905060606040518060200160405280600081525090506000600160009054906101000a900473ffffffffffffffffffffffffffffffffffffffff1673ffffffffffffffffffffffffffffffffffffffff1663ab9c4b5d888888888888886040518863ffffffff1660e01b8152600401808873ffffffffffffffffffffffffffffffffffffffff1681526020018060200180602001806020018773ffffffffffffffffffffffffffffffffffffffff168152602001806020018661ffff16815260200185810385528b818151815260200191508051906020019060200280838360005b838110156111d05780820151818401526020810190506111b5565b5050505090500185810384528a818151815260200191508051906020019060200280838360005b838110156112125780820151818401526020810190506111f7565b50505050905001858103835289818151815260200191508051906020019060200280838360005b83811015611254578082015181840152602081019050611239565b50505050905001858103825287818151815260200191508051906020019080838360005b83811015611293578082015181840152602081019050611278565b50505050905090810190601f1680156112c05780820380516001836020036101000a031916815260200191505b509b505050505050505050505050600060405180830381600087803b1580156112e857600080fd5b505af11580156112fc573d6000803e3d6000fd5b50505050505050505050505050565b611313611470565b611385576040517f08c379a00000000000000000000000000000000000000000000000000000000081526004018080602001828103825260208152602001807f4f776e61626c653a2063616c6c6572206973206e6f7420746865206f776e657281525060200191505060405180910390fd5b600073ffffffffffffffffffffffffffffffffffffffff16600260009054906101000a900473ffffffffffffffffffffffffffffffffffffffff1673ffffffffffffffffffffffffffffffffffffffff167f8be0079c531659141344cd1fd0a4f28419497f9722a3daafe3b4186f6b6457e060405160405180910390a36000600260006101000a81548173ffffffffffffffffffffffffffffffffffffffff021916908373ffffffffffffffffffffffffffffffffffffffff160217905550565b6000600260009054906101000a900473ffffffffffffffffffffffffffffffffffffffff16905090565b6000600260009054906101000a900473ffffffffffffffffffffffffffffffffffffffff1673ffffffffffffffffffffffffffffffffffffffff163373ffffffffffffffffffffffffffffffffffffffff1614905090565b6000600860009054906101000a900473ffffffffffffffffffffffffffffffffffffffff1673ffffffffffffffffffffffffffffffffffffffff163373ffffffffffffffffffffffffffffffffffffffff1614611570576040517f08c379a00000000000000000000000000000000000000000000000000000000081526004018080602001828103825260228152602001806128b76022913960400191505060405180910390fd5b600660009054906101000a900473ffffffffffffffffffffffffffffffffffffffff1673ffffffffffffffffffffffffffffffffffffffff1663095ea7b3600860009054906101000a900473ffffffffffffffffffffffffffffffffffffffff16600c546040518363ffffffff1660e01b8152600401808373ffffffffffffffffffffffffffffffffffffffff16815260200182815260200192505050602060405180830381600087803b15801561162757600080fd5b505af115801561163b573d6000803e3d6000fd5b505050506040513d602081101561165157600080fd5b8101908080519060200190929190505050506116bb30600660009054906101000a900473ffffffffffffffffffffffffffffffffffffffff16600c54600760009054906101000a900473ffffffffffffffffffffffffffffffffffffffff16600b54600d54611e80565b600760009054906101000a900473ffffffffffffffffffffffffffffffffffffffff1673ffffffffffffffffffffffffffffffffffffffff1663095ea7b3600360009054906101000a900473ffffffffffffffffffffffffffffffffffffffff16600b546040518363ffffffff1660e01b8152600401808373ffffffffffffffffffffffffffffffffffffffff16815260200182815260200192505050602060405180830381600087803b15801561177257600080fd5b505af1158015611786573d6000803e3d6000fd5b505050506040513d602081101561179c57600080fd5b810190808051906020019092919050505050600360009054906101000a900473ffffffffffffffffffffffffffffffffffffffff1673ffffffffffffffffffffffffffffffffffffffff166390cf0bba600a546040518263ffffffff1660e01b815260040180828152602001915050600060405180830381600087803b15801561182557600080fd5b505af1158015611839573d6000803e3d6000fd5b50505050600360009054906101000a900473ffffffffffffffffffffffffffffffffffffffff1673ffffffffffffffffffffffffffffffffffffffff1663cf41d6f86040518163ffffffff1660e01b8152600401600060405180830381600087803b1580156118a757600080fd5b505af11580156118bb573d6000803e3d6000fd5b505050506118f23047600660009054906101000a900473ffffffffffffffffffffffffffffffffffffffff16600c54600d54610a76565b6000600a8190555060005b8a8a9050811015611a4857600061194188888481811061191957fe5b905060200201358b8b8581811061192c57fe5b9050602002013561248890919063ffffffff16565b90508b8b8381811061194f57fe5b9050602002013573ffffffffffffffffffffffffffffffffffffffff1673ffffffffffffffffffffffffffffffffffffffff1663095ea7b3600860009054906101000a900473ffffffffffffffffffffffffffffffffffffffff16836040518363ffffffff1660e01b8152600401808373ffffffffffffffffffffffffffffffffffffffff16815260200182815260200192505050602060405180830381600087803b1580156119fe57600080fd5b505af1158015611a12573d6000803e3d6000fd5b505050506040513d6020811015611a2857600080fd5b8101908080519060200190929190505050505080806001019150506118fd565b50600190509998505050505050505050565b60011515600960003373ffffffffffffffffffffffffffffffffffffffff1673ffffffffffffffffffffffffffffffffffffffff16815260200190815260200160002060009054906101000a900460ff16151514611b03576040517f08c379a000000000000000000000000000000000000000000000000000000000815260040180806020018281038252602481526020018061283b6024913960400191505060405180910390fd5b6000600a5414611b5e576040517f08c379a00000000000000000000000000000000000000000000000000000000081526004018080602001828103825260288152602001806127ed6028913960400191505060405180910390fd5b600360009054906101000a900473ffffffffffffffffffffffffffffffffffffffff1673ffffffffffffffffffffffffffffffffffffffff1663b86f6aef836040518263ffffffff1660e01b81526004018082815260200191505060006040518083038186803b158015611bd157600080fd5b505afa158015611be5573d6000803e3d6000fd5b5050505081600a8190555080600d81905550600360009054906101000a900473ffffffffffffffffffffffffffffffffffffffff1673ffffffffffffffffffffffffffffffffffffffff166311b4a832836040518263ffffffff1660e01b81526004018082815260200191505060206040518083038186803b158015611c6a57600080fd5b505afa158015611c7e573d6000803e3d6000fd5b505050506040513d6020811015611c9457600080fd5b8101908080519060200190929190505050600b81905550611ced64e8d4a51000611cdf6103e8611cd1610401600b5461251090919063ffffffff16565b61259690919063ffffffff16565b61259690919063ffffffff16565b600c81905550611d21600660009054906101000a900473ffffffffffffffffffffffffffffffffffffffff16600c54610ec1565b5050565b60011515600960003373ffffffffffffffffffffffffffffffffffffffff1673ffffffffffffffffffffffffffffffffffffffff16815260200190815260200160002060009054906101000a900460ff16151514611dce576040517f08c379a000000000000000000000000000000000000000000000000000000000815260040180806020018281038252602481526020018061283b6024913960400191505060405180910390fd5b8173ffffffffffffffffffffffffffffffffffffffff1663095ea7b384836040518363ffffffff1660e01b8152600401808373ffffffffffffffffffffffffffffffffffffffff16815260200182815260200192505050602060405180830381600087803b158015611e3f57600080fd5b505af1158015611e53573d6000803e3d6000fd5b505050506040513d6020811015611e6957600080fd5b810190808051906020019092919050505050505050565b60011515600960003373ffffffffffffffffffffffffffffffffffffffff1673ffffffffffffffffffffffffffffffffffffffff16815260200190815260200160002060009054906101000a900460ff1615151480611f2c5750600860009054906101000a900473ffffffffffffffffffffffffffffffffffffffff1673ffffffffffffffffffffffffffffffffffffffff163373ffffffffffffffffffffffffffffffffffffffff16145b611f81576040517f08c379a000000000000000000000000000000000000000000000000000000000815260040180806020018281038252603781526020018061285f6037913960400191505060405180910390fd5b6000601e820190506060600267ffffffffffffffff81118015611fa357600080fd5b50604051908082528060200260200182016040528015611fd25781602001602082028036833780820191505090505b5090508681600081518110611fe357fe5b602002602001019073ffffffffffffffffffffffffffffffffffffffff16908173ffffffffffffffffffffffffffffffffffffffff1681525050848160018151811061202b57fe5b602002602001019073ffffffffffffffffffffffffffffffffffffffff16908173ffffffffffffffffffffffffffffffffffffffff16815250508673ffffffffffffffffffffffffffffffffffffffff1663095ea7b3600560009054906101000a900473ffffffffffffffffffffffffffffffffffffffff16886040518363ffffffff1660e01b8152600401808373ffffffffffffffffffffffffffffffffffffffff16815260200182815260200192505050602060405180830381600087803b1580156120f857600080fd5b505af115801561210c573d6000803e3d6000fd5b505050506040513d602081101561212257600080fd5b810190808051906020019092919050505050600560009054906101000a900473ffffffffffffffffffffffffffffffffffffffff1673ffffffffffffffffffffffffffffffffffffffff166338ed17398786848c876040518663ffffffff1660e01b815260040180868152602001858152602001806020018473ffffffffffffffffffffffffffffffffffffffff168152602001838152602001828103825285818151815260200191508051906020019060200280838360005b838110156121f75780820151818401526020810190506121dc565b505050509050019650505050505050600060405180830381600087803b15801561222057600080fd5b505af1158015612234573d6000803e3d6000fd5b505050506040513d6000823e3d601f19601f82011682018060405250602081101561225e57600080fd5b810190808051604051939291908464010000000082111561227e57600080fd5b8382019150602082018581111561229457600080fd5b82518660208202830111640100000000821117156122b157600080fd5b8083526020830192505050908051906020019060200280838360005b838110156122e85780820151818401526020810190506122cd565b50505050905001604052505050505050505050505050565b612308611470565b61237a576040517f08c379a00000000000000000000000000000000000000000000000000000000081526004018080602001828103825260208152602001807f4f776e61626c653a2063616c6c6572206973206e6f7420746865206f776e657281525060200191505060405180910390fd5b60005b81518110156123fe5760016009600084848151811061239857fe5b602002602001015173ffffffffffffffffffffffffffffffffffffffff1673ffffffffffffffffffffffffffffffffffffffff16815260200190815260200160002060006101000a81548160ff021916908315150217905550808060010191505061237d565b5050565b61240a611470565b61247c576040517f08c379a00000000000000000000000000000000000000000000000000000000081526004018080602001828103825260208152602001807f4f776e61626c653a2063616c6c6572206973206e6f7420746865206f776e657281525060200191505060405180910390fd5b612485816125e0565b50565b600080828401905083811015612506576040517f08c379a000000000000000000000000000000000000000000000000000000000815260040180806020018281038252601b8152602001807f536166654d6174683a206164646974696f6e206f766572666c6f77000000000081525060200191505060405180910390fd5b8091505092915050565b6000808314156125235760009050612590565b600082840290508284828161253457fe5b041461258b576040517f08c379a00000000000000000000000000000000000000000000000000000000081526004018080602001828103825260218152602001806128966021913960400191505060405180910390fd5b809150505b92915050565b60006125d883836040518060400160405280601a81526020017f536166654d6174683a206469766973696f6e206279207a65726f000000000000815250612726565b905092915050565b600073ffffffffffffffffffffffffffffffffffffffff168173ffffffffffffffffffffffffffffffffffffffff161415612666576040517f08c379a00000000000000000000000000000000000000000000000000000000081526004018080602001828103825260268152602001806128156026913960400191505060405180910390fd5b8073ffffffffffffffffffffffffffffffffffffffff16600260009054906101000a900473ffffffffffffffffffffffffffffffffffffffff1673ffffffffffffffffffffffffffffffffffffffff167f8be0079c531659141344cd1fd0a4f28419497f9722a3daafe3b4186f6b6457e060405160405180910390a380600260006101000a81548173ffffffffffffffffffffffffffffffffffffffff021916908373ffffffffffffffffffffffffffffffffffffffff16021790555050565b600080831182906127d2576040517f08c379a00000000000000000000000000000000000000000000000000000000081526004018080602001828103825283818151815260200191508051906020019080838360005b8381101561279757808201518184015260208101905061277c565b50505050905090810190601f1680156127c45780820380516001836020036101000a031916815260200191505b509250505060405180910390fd5b5060008385816127de57fe5b04905080915050939250505056fe546865726520697320616c72656164792061207661756c7420696e206c69717569646174696f6e2e4f776e61626c653a206e6577206f776e657220697320746865207a65726f20616464726573734d7573742062652063616c6c656420627920617070726f766564206164647265737365734d7573742062652063616c6c656420627920617070726f76656420616464726573736573206f72206279206c656e64696e6720706f6f6c536166654d6174683a206d756c7469706c69636174696f6e206f766572666c6f774d7573742062652063616c6c656420627920746865206c656e64696e6720706f6f6ca26469706673582212209bc166791c81989d9d32c3bcd843f351ed8e775ad0f15d115ad5b98321a6d6b864736f6c634300060c0033",
  "linkReferences": {},
  "deployedLinkReferences": {}
}