{
  "contracts/AaveUserData.sol": {
    "AaveUserData": {
      "abi": [
        {
          "inputs": [
            {
              "internalType": "address",
              "name": "_lendingPool",
              "type": "address"
            }
          ],
          "stateMutability": "nonpayable",
          "type": "constructor"
        },
        {
          "inputs": [
            {
              "internalType": "address",
              "name": "user",
              "type": "address"
            },
            {
              "internalType": "address",
              "name": "reserve",
              "type": "address"
            }
          ],
          "name": "getCollateralalance",
          "outputs": [
            {
              "internalType": "uint256",
              "name": "",
              "type": "uint256"
            }
          ],
          "stateMutability": "view",
          "type": "function"
        },
        {
          "inputs": [
            {
              "internalType": "address",
              "name": "user",
              "type": "address"
            },
            {
              "internalType": "address",
              "name": "reserve",
              "type": "address"
            }
          ],
          "name": "getDebtBalance",
          "outputs": [
            {
              "internalType": "uint256",
              "name": "",
              "type": "uint256"
            }
          ],
          "stateMutability": "view",
          "type": "function"
        },
        {
          "inputs": [
            {
              "internalType": "address",
              "name": "user",
              "type": "address"
            }
          ],
          "name": "getUserData",
          "outputs": [
            {
              "internalType": "uint256",
              "name": "totalCollateralETH",
              "type": "uint256"
            },
            {
              "internalType": "uint256",
              "name": "totalDebtETH",
              "type": "uint256"
            },
            {
              "internalType": "uint256",
              "name": "availableBorrowsETH",
              "type": "uint256"
            },
            {
              "internalType": "uint256",
              "name": "currentLiquidationThreshold",
              "type": "uint256"
            },
            {
              "internalType": "uint256",
              "name": "ltv",
              "type": "uint256"
            },
            {
              "internalType": "uint256",
              "name": "healthFactor",
              "type": "uint256"
            },
            {
              "components": [
                {
                  "internalType": "string",
                  "name": "symbol",
                  "type": "string"
                },
                {
                  "internalType": "address",
                  "name": "reserveAddress",
                  "type": "address"
                },
                {
                  "internalType": "bool",
                  "name": "isBorrowed",
                  "type": "bool"
                },
                {
                  "internalType": "uint256",
                  "name": "debtBalance",
                  "type": "uint256"
                },
                {
                  "internalType": "bool",
                  "name": "isCollateral",
                  "type": "bool"
                },
                {
                  "internalType": "uint256",
                  "name": "collateralBalance",
                  "type": "uint256"
                }
              ],
              "internalType": "struct AaveUserData.UserReserve[]",
              "name": "",
              "type": "tuple[]"
            }
          ],
          "stateMutability": "view",
          "type": "function"
        }
      ],
      "evm": {
        "bytecode": {
          "linkReferences": {},
          "object": "60806040523480156200001157600080fd5b50604051620013fc380380620013fc833981810160405281019062000037919062000095565b806000806101000a81548173ffffffffffffffffffffffffffffffffffffffff021916908373ffffffffffffffffffffffffffffffffffffffff160217905550506200010f565b6000815190506200008f81620000f5565b92915050565b600060208284031215620000a857600080fd5b6000620000b8848285016200007e565b91505092915050565b6000620000ce82620000d5565b9050919050565b600073ffffffffffffffffffffffffffffffffffffffff82169050919050565b6200010081620000c1565b81146200010c57600080fd5b50565b6112dd806200011f6000396000f3fe608060405234801561001057600080fd5b50600436106100415760003560e01c806358bd5c20146100465780636d2a039f14610076578063ffc9896b146100a6575b600080fd5b610060600480360381019061005b9190610c93565b6100dc565b60405161006d9190611007565b60405180910390f35b610090600480360381019061008b9190610c93565b610229565b60405161009d9190611007565b60405180910390f35b6100c060048036038101906100bb9190610c6a565b610375565b6040516100d39796959493929190611022565b60405180910390f35b60006100e66107ee565b60008054906101000a900473ffffffffffffffffffffffffffffffffffffffff1673ffffffffffffffffffffffffffffffffffffffff166335ea6a75846040518263ffffffff1660e01b815260040161013f9190610fec565b6101806040518083038186803b15801561015857600080fd5b505afa15801561016c573d6000803e3d6000fd5b505050506040513d601f19601f820116820180604052508101906101909190610d51565b905080610120015173ffffffffffffffffffffffffffffffffffffffff166370a08231856040518263ffffffff1660e01b81526004016101d09190610fec565b60206040518083038186803b1580156101e857600080fd5b505afa1580156101fc573d6000803e3d6000fd5b505050506040513d601f19601f820116820180604052508101906102209190610da4565b91505092915050565b60006102336107ee565b60008054906101000a900473ffffffffffffffffffffffffffffffffffffffff1673ffffffffffffffffffffffffffffffffffffffff166335ea6a75846040518263ffffffff1660e01b815260040161028c9190610fec565b6101806040518083038186803b1580156102a557600080fd5b505afa1580156102b9573d6000803e3d6000fd5b505050506040513d601f19601f820116820180604052508101906102dd9190610d51565b90508060e0015173ffffffffffffffffffffffffffffffffffffffff166370a08231856040518263ffffffff1660e01b815260040161031c9190610fec565b60206040518083038186803b15801561033457600080fd5b505afa158015610348573d6000803e3d6000fd5b505050506040513d601f19601f8201168201806040525081019061036c9190610da4565b91505092915050565b600080600080600080606060008054906101000a900473ffffffffffffffffffffffffffffffffffffffff1673ffffffffffffffffffffffffffffffffffffffff1663bf92857c896040518263ffffffff1660e01b81526004016103d99190610fec565b60c06040518083038186803b1580156103f157600080fd5b505afa158015610405573d6000803e3d6000fd5b505050506040513d601f19601f820116820180604052508101906104299190610dcd565b809750819850829950839a50849b50859c50505050505050606060008054906101000a900473ffffffffffffffffffffffffffffffffffffffff1673ffffffffffffffffffffffffffffffffffffffff1663d1946dbc6040518163ffffffff1660e01b815260040160006040518083038186803b1580156104a957600080fd5b505afa1580156104bd573d6000803e3d6000fd5b505050506040513d6000823e3d601f19601f820116820180604052508101906104e69190610ccf565b90506060815167ffffffffffffffff8111801561050257600080fd5b5060405190808252806020026020018201604052801561053c57816020015b610529610911565b8152602001906001900390816105215790505b509050610547610961565b60008054906101000a900473ffffffffffffffffffffffffffffffffffffffff1673ffffffffffffffffffffffffffffffffffffffff16634417a5838c6040518263ffffffff1660e01b81526004016105a09190610fec565b60206040518083038186803b1580156105b857600080fd5b505afa1580156105cc573d6000803e3d6000fd5b505050506040513d601f19601f820116820180604052508101906105f09190610d7b565b905060005b835181101561077757610608828261079b565b1561076a57610615610911565b6040518060c0016040528086848151811061062c57fe5b602002602001015173ffffffffffffffffffffffffffffffffffffffff166395d89b416040518163ffffffff1660e01b815260040160006040518083038186803b15801561067957600080fd5b505afa15801561068d573d6000803e3d6000fd5b505050506040513d6000823e3d601f19601f820116820180604052508101906106b69190610d10565b81526020018684815181106106c757fe5b602002602001015173ffffffffffffffffffffffffffffffffffffffff1681526020016106f485856107b6565b151581526020016107188f88868151811061070b57fe5b60200260200101516100dc565b815260200161072785856107d1565b1515815260200161074b8f88868151811061073e57fe5b6020026020010151610229565b81525090508084838151811061075d57fe5b6020026020010181905250505b80806001019150506105f5565b50898989898989879950995099509950995099509950505050919395979092949650565b6000806003600284028560000151901c161415905092915050565b6000806001600284028560000151901c161415905092915050565b60008060018060028502018560000151901c161415905092915050565b604051806101800160405280610802610974565b815260200160006fffffffffffffffffffffffffffffffff16815260200160006fffffffffffffffffffffffffffffffff16815260200160006fffffffffffffffffffffffffffffffff16815260200160006fffffffffffffffffffffffffffffffff16815260200160006fffffffffffffffffffffffffffffffff168152602001600064ffffffffff168152602001600073ffffffffffffffffffffffffffffffffffffffff168152602001600073ffffffffffffffffffffffffffffffffffffffff168152602001600073ffffffffffffffffffffffffffffffffffffffff168152602001600073ffffffffffffffffffffffffffffffffffffffff168152602001600060ff1681525090565b6040518060c0016040528060608152602001600073ffffffffffffffffffffffffffffffffffffffff16815260200160001515815260200160008152602001600015158152602001600081525090565b6040518060200160405280600081525090565b6040518060200160405280600081525090565b60008135905061099681611234565b92915050565b6000815190506109ab81611234565b92915050565b600082601f8301126109c257600080fd5b81516109d56109d0826110c5565b611098565b915081818352602084019350602081019050838560208402820111156109fa57600080fd5b60005b83811015610a2a5781610a10888261099c565b8452602084019350602083019250506001810190506109fd565b5050505092915050565b600082601f830112610a4557600080fd5b8151610a58610a53826110ed565b611098565b91508082526020830160208301858383011115610a7457600080fd5b610a7f8382846111f0565b50505092915050565b600060208284031215610a9a57600080fd5b610aa46020611098565b90506000610ab484828501610c2b565b60008301525092915050565b60006101808284031215610ad357600080fd5b610ade610180611098565b90506000610aee84828501610a88565b6000830152506020610b0284828501610c16565b6020830152506040610b1684828501610c16565b6040830152506060610b2a84828501610c16565b6060830152506080610b3e84828501610c16565b60808301525060a0610b5284828501610c16565b60a08301525060c0610b6684828501610c40565b60c08301525060e0610b7a8482850161099c565b60e083015250610100610b8f8482850161099c565b61010083015250610120610ba58482850161099c565b61012083015250610140610bbb8482850161099c565b61014083015250610160610bd184828501610c55565b6101608301525092915050565b600060208284031215610bf057600080fd5b610bfa6020611098565b90506000610c0a84828501610c2b565b60008301525092915050565b600081519050610c258161124b565b92915050565b600081519050610c3a81611262565b92915050565b600081519050610c4f81611279565b92915050565b600081519050610c6481611290565b92915050565b600060208284031215610c7c57600080fd5b6000610c8a84828501610987565b91505092915050565b60008060408385031215610ca657600080fd5b6000610cb485828601610987565b9250506020610cc585828601610987565b9150509250929050565b600060208284031215610ce157600080fd5b600082015167ffffffffffffffff811115610cfb57600080fd5b610d07848285016109b1565b91505092915050565b600060208284031215610d2257600080fd5b600082015167ffffffffffffffff811115610d3c57600080fd5b610d4884828501610a34565b91505092915050565b60006101808284031215610d6457600080fd5b6000610d7284828501610ac0565b91505092915050565b600060208284031215610d8d57600080fd5b6000610d9b84828501610bde565b91505092915050565b600060208284031215610db657600080fd5b6000610dc484828501610c2b565b91505092915050565b60008060008060008060c08789031215610de657600080fd5b6000610df489828a01610c2b565b9650506020610e0589828a01610c2b565b9550506040610e1689828a01610c2b565b9450506060610e2789828a01610c2b565b9350506080610e3889828a01610c2b565b92505060a0610e4989828a01610c2b565b9150509295509295509295565b6000610e628383610f45565b905092915050565b610e738161116e565b82525050565b610e828161116e565b82525050565b6000610e9382611129565b610e9d818561114c565b935083602082028501610eaf85611119565b8060005b85811015610eeb5784840389528151610ecc8582610e56565b9450610ed78361113f565b925060208a01995050600181019050610eb3565b50829750879550505050505092915050565b610f0681611180565b82525050565b6000610f1782611134565b610f21818561115d565b9350610f318185602086016111f0565b610f3a81611223565b840191505092915050565b600060c0830160008301518482036000860152610f628282610f0c565b9150506020830151610f776020860182610e6a565b506040830151610f8a6040860182610efd565b506060830151610f9d6060860182610fce565b506080830151610fb06080860182610efd565b5060a0830151610fc360a0860182610fce565b508091505092915050565b610fd7816111c8565b82525050565b610fe6816111c8565b82525050565b60006020820190506110016000830184610e79565b92915050565b600060208201905061101c6000830184610fdd565b92915050565b600060e082019050611037600083018a610fdd565b6110446020830189610fdd565b6110516040830188610fdd565b61105e6060830187610fdd565b61106b6080830186610fdd565b61107860a0830185610fdd565b81810360c083015261108a8184610e88565b905098975050505050505050565b6000604051905081810181811067ffffffffffffffff821117156110bb57600080fd5b8060405250919050565b600067ffffffffffffffff8211156110dc57600080fd5b602082029050602081019050919050565b600067ffffffffffffffff82111561110457600080fd5b601f19601f8301169050602081019050919050565b6000819050602082019050919050565b600081519050919050565b600081519050919050565b6000602082019050919050565b600082825260208201905092915050565b600082825260208201905092915050565b6000611179826111a8565b9050919050565b60008115159050919050565b60006fffffffffffffffffffffffffffffffff82169050919050565b600073ffffffffffffffffffffffffffffffffffffffff82169050919050565b6000819050919050565b600064ffffffffff82169050919050565b600060ff82169050919050565b60005b8381101561120e5780820151818401526020810190506111f3565b8381111561121d576000848401525b50505050565b6000601f19601f8301169050919050565b61123d8161116e565b811461124857600080fd5b50565b6112548161118c565b811461125f57600080fd5b50565b61126b816111c8565b811461127657600080fd5b50565b611282816111d2565b811461128d57600080fd5b50565b611299816111e3565b81146112a457600080fd5b5056fea2646970667358221220a7156efb45dd9eb014f0748e49e1f8b1d2519f048a18ebe68095f8629fc895a364736f6c634300060c0033",
          "opcodes": "PUSH1 0x80 PUSH1 0x40 MSTORE CALLVALUE DUP1 ISZERO PUSH3 0x11 JUMPI PUSH1 0x0 DUP1 REVERT JUMPDEST POP PUSH1 0x40 MLOAD PUSH3 0x13FC CODESIZE SUB DUP1 PUSH3 0x13FC DUP4 CODECOPY DUP2 DUP2 ADD PUSH1 0x40 MSTORE DUP2 ADD SWAP1 PUSH3 0x37 SWAP2 SWAP1 PUSH3 0x95 JUMP JUMPDEST DUP1 PUSH1 0x0 DUP1 PUSH2 0x100 EXP DUP2 SLOAD DUP2 PUSH20 0xFFFFFFFFFFFFFFFFFFFFFFFFFFFFFFFFFFFFFFFF MUL NOT AND SWAP1 DUP4 PUSH20 0xFFFFFFFFFFFFFFFFFFFFFFFFFFFFFFFFFFFFFFFF AND MUL OR SWAP1 SSTORE POP POP PUSH3 0x10F JUMP JUMPDEST PUSH1 0x0 DUP2 MLOAD SWAP1 POP PUSH3 0x8F DUP2 PUSH3 0xF5 JUMP JUMPDEST SWAP3 SWAP2 POP POP JUMP JUMPDEST PUSH1 0x0 PUSH1 0x20 DUP3 DUP5 SUB SLT ISZERO PUSH3 0xA8 JUMPI PUSH1 0x0 DUP1 REVERT JUMPDEST PUSH1 0x0 PUSH3 0xB8 DUP5 DUP3 DUP6 ADD PUSH3 0x7E JUMP JUMPDEST SWAP2 POP POP SWAP3 SWAP2 POP POP JUMP JUMPDEST PUSH1 0x0 PUSH3 0xCE DUP3 PUSH3 0xD5 JUMP JUMPDEST SWAP1 POP SWAP2 SWAP1 POP JUMP JUMPDEST PUSH1 0x0 PUSH20 0xFFFFFFFFFFFFFFFFFFFFFFFFFFFFFFFFFFFFFFFF DUP3 AND SWAP1 POP SWAP2 SWAP1 POP JUMP JUMPDEST PUSH3 0x100 DUP2 PUSH3 0xC1 JUMP JUMPDEST DUP2 EQ PUSH3 0x10C JUMPI PUSH1 0x0 DUP1 REVERT JUMPDEST POP JUMP JUMPDEST PUSH2 0x12DD DUP1 PUSH3 0x11F PUSH1 0x0 CODECOPY PUSH1 0x0 RETURN INVALID PUSH1 0x80 PUSH1 0x40 MSTORE CALLVALUE DUP1 ISZERO PUSH2 0x10 JUMPI PUSH1 0x0 DUP1 REVERT JUMPDEST POP PUSH1 0x4 CALLDATASIZE LT PUSH2 0x41 JUMPI PUSH1 0x0 CALLDATALOAD PUSH1 0xE0 SHR DUP1 PUSH4 0x58BD5C20 EQ PUSH2 0x46 JUMPI DUP1 PUSH4 0x6D2A039F EQ PUSH2 0x76 JUMPI DUP1 PUSH4 0xFFC9896B EQ PUSH2 0xA6 JUMPI JUMPDEST PUSH1 0x0 DUP1 REVERT JUMPDEST PUSH2 0x60 PUSH1 0x4 DUP1 CALLDATASIZE SUB DUP2 ADD SWAP1 PUSH2 0x5B SWAP2 SWAP1 PUSH2 0xC93 JUMP JUMPDEST PUSH2 0xDC JUMP JUMPDEST PUSH1 0x40 MLOAD PUSH2 0x6D SWAP2 SWAP1 PUSH2 0x1007 JUMP JUMPDEST PUSH1 0x40 MLOAD DUP1 SWAP2 SUB SWAP1 RETURN JUMPDEST PUSH2 0x90 PUSH1 0x4 DUP1 CALLDATASIZE SUB DUP2 ADD SWAP1 PUSH2 0x8B SWAP2 SWAP1 PUSH2 0xC93 JUMP JUMPDEST PUSH2 0x229 JUMP JUMPDEST PUSH1 0x40 MLOAD PUSH2 0x9D SWAP2 SWAP1 PUSH2 0x1007 JUMP JUMPDEST PUSH1 0x40 MLOAD DUP1 SWAP2 SUB SWAP1 RETURN JUMPDEST PUSH2 0xC0 PUSH1 0x4 DUP1 CALLDATASIZE SUB DUP2 ADD SWAP1 PUSH2 0xBB SWAP2 SWAP1 PUSH2 0xC6A JUMP JUMPDEST PUSH2 0x375 JUMP JUMPDEST PUSH1 0x40 MLOAD PUSH2 0xD3 SWAP8 SWAP7 SWAP6 SWAP5 SWAP4 SWAP3 SWAP2 SWAP1 PUSH2 0x1022 JUMP JUMPDEST PUSH1 0x40 MLOAD DUP1 SWAP2 SUB SWAP1 RETURN JUMPDEST PUSH1 0x0 PUSH2 0xE6 PUSH2 0x7EE JUMP JUMPDEST PUSH1 0x0 DUP1 SLOAD SWAP1 PUSH2 0x100 EXP SWAP1 DIV PUSH20 0xFFFFFFFFFFFFFFFFFFFFFFFFFFFFFFFFFFFFFFFF AND PUSH20 0xFFFFFFFFFFFFFFFFFFFFFFFFFFFFFFFFFFFFFFFF AND PUSH4 0x35EA6A75 DUP5 PUSH1 0x40 MLOAD DUP3 PUSH4 0xFFFFFFFF AND PUSH1 0xE0 SHL DUP2 MSTORE PUSH1 0x4 ADD PUSH2 0x13F SWAP2 SWAP1 PUSH2 0xFEC JUMP JUMPDEST PUSH2 0x180 PUSH1 0x40 MLOAD DUP1 DUP4 SUB DUP2 DUP7 DUP1 EXTCODESIZE ISZERO DUP1 ISZERO PUSH2 0x158 JUMPI PUSH1 0x0 DUP1 REVERT JUMPDEST POP GAS STATICCALL ISZERO DUP1 ISZERO PUSH2 0x16C JUMPI RETURNDATASIZE PUSH1 0x0 DUP1 RETURNDATACOPY RETURNDATASIZE PUSH1 0x0 REVERT JUMPDEST POP POP POP POP PUSH1 0x40 MLOAD RETURNDATASIZE PUSH1 0x1F NOT PUSH1 0x1F DUP3 ADD AND DUP3 ADD DUP1 PUSH1 0x40 MSTORE POP DUP2 ADD SWAP1 PUSH2 0x190 SWAP2 SWAP1 PUSH2 0xD51 JUMP JUMPDEST SWAP1 POP DUP1 PUSH2 0x120 ADD MLOAD PUSH20 0xFFFFFFFFFFFFFFFFFFFFFFFFFFFFFFFFFFFFFFFF AND PUSH4 0x70A08231 DUP6 PUSH1 0x40 MLOAD DUP3 PUSH4 0xFFFFFFFF AND PUSH1 0xE0 SHL DUP2 MSTORE PUSH1 0x4 ADD PUSH2 0x1D0 SWAP2 SWAP1 PUSH2 0xFEC JUMP JUMPDEST PUSH1 0x20 PUSH1 0x40 MLOAD DUP1 DUP4 SUB DUP2 DUP7 DUP1 EXTCODESIZE ISZERO DUP1 ISZERO PUSH2 0x1E8 JUMPI PUSH1 0x0 DUP1 REVERT JUMPDEST POP GAS STATICCALL ISZERO DUP1 ISZERO PUSH2 0x1FC JUMPI RETURNDATASIZE PUSH1 0x0 DUP1 RETURNDATACOPY RETURNDATASIZE PUSH1 0x0 REVERT JUMPDEST POP POP POP POP PUSH1 0x40 MLOAD RETURNDATASIZE PUSH1 0x1F NOT PUSH1 0x1F DUP3 ADD AND DUP3 ADD DUP1 PUSH1 0x40 MSTORE POP DUP2 ADD SWAP1 PUSH2 0x220 SWAP2 SWAP1 PUSH2 0xDA4 JUMP JUMPDEST SWAP2 POP POP SWAP3 SWAP2 POP POP JUMP JUMPDEST PUSH1 0x0 PUSH2 0x233 PUSH2 0x7EE JUMP JUMPDEST PUSH1 0x0 DUP1 SLOAD SWAP1 PUSH2 0x100 EXP SWAP1 DIV PUSH20 0xFFFFFFFFFFFFFFFFFFFFFFFFFFFFFFFFFFFFFFFF AND PUSH20 0xFFFFFFFFFFFFFFFFFFFFFFFFFFFFFFFFFFFFFFFF AND PUSH4 0x35EA6A75 DUP5 PUSH1 0x40 MLOAD DUP3 PUSH4 0xFFFFFFFF AND PUSH1 0xE0 SHL DUP2 MSTORE PUSH1 0x4 ADD PUSH2 0x28C SWAP2 SWAP1 PUSH2 0xFEC JUMP JUMPDEST PUSH2 0x180 PUSH1 0x40 MLOAD DUP1 DUP4 SUB DUP2 DUP7 DUP1 EXTCODESIZE ISZERO DUP1 ISZERO PUSH2 0x2A5 JUMPI PUSH1 0x0 DUP1 REVERT JUMPDEST POP GAS STATICCALL ISZERO DUP1 ISZERO PUSH2 0x2B9 JUMPI RETURNDATASIZE PUSH1 0x0 DUP1 RETURNDATACOPY RETURNDATASIZE PUSH1 0x0 REVERT JUMPDEST POP POP POP POP PUSH1 0x40 MLOAD RETURNDATASIZE PUSH1 0x1F NOT PUSH1 0x1F DUP3 ADD AND DUP3 ADD DUP1 PUSH1 0x40 MSTORE POP DUP2 ADD SWAP1 PUSH2 0x2DD SWAP2 SWAP1 PUSH2 0xD51 JUMP JUMPDEST SWAP1 POP DUP1 PUSH1 0xE0 ADD MLOAD PUSH20 0xFFFFFFFFFFFFFFFFFFFFFFFFFFFFFFFFFFFFFFFF AND PUSH4 0x70A08231 DUP6 PUSH1 0x40 MLOAD DUP3 PUSH4 0xFFFFFFFF AND PUSH1 0xE0 SHL DUP2 MSTORE PUSH1 0x4 ADD PUSH2 0x31C SWAP2 SWAP1 PUSH2 0xFEC JUMP JUMPDEST PUSH1 0x20 PUSH1 0x40 MLOAD DUP1 DUP4 SUB DUP2 DUP7 DUP1 EXTCODESIZE ISZERO DUP1 ISZERO PUSH2 0x334 JUMPI PUSH1 0x0 DUP1 REVERT JUMPDEST POP GAS STATICCALL ISZERO DUP1 ISZERO PUSH2 0x348 JUMPI RETURNDATASIZE PUSH1 0x0 DUP1 RETURNDATACOPY RETURNDATASIZE PUSH1 0x0 REVERT JUMPDEST POP POP POP POP PUSH1 0x40 MLOAD RETURNDATASIZE PUSH1 0x1F NOT PUSH1 0x1F DUP3 ADD AND DUP3 ADD DUP1 PUSH1 0x40 MSTORE POP DUP2 ADD SWAP1 PUSH2 0x36C SWAP2 SWAP1 PUSH2 0xDA4 JUMP JUMPDEST SWAP2 POP POP SWAP3 SWAP2 POP POP JUMP JUMPDEST PUSH1 0x0 DUP1 PUSH1 0x0 DUP1 PUSH1 0x0 DUP1 PUSH1 0x60 PUSH1 0x0 DUP1 SLOAD SWAP1 PUSH2 0x100 EXP SWAP1 DIV PUSH20 0xFFFFFFFFFFFFFFFFFFFFFFFFFFFFFFFFFFFFFFFF AND PUSH20 0xFFFFFFFFFFFFFFFFFFFFFFFFFFFFFFFFFFFFFFFF AND PUSH4 0xBF92857C DUP10 PUSH1 0x40 MLOAD DUP3 PUSH4 0xFFFFFFFF AND PUSH1 0xE0 SHL DUP2 MSTORE PUSH1 0x4 ADD PUSH2 0x3D9 SWAP2 SWAP1 PUSH2 0xFEC JUMP JUMPDEST PUSH1 0xC0 PUSH1 0x40 MLOAD DUP1 DUP4 SUB DUP2 DUP7 DUP1 EXTCODESIZE ISZERO DUP1 ISZERO PUSH2 0x3F1 JUMPI PUSH1 0x0 DUP1 REVERT JUMPDEST POP GAS STATICCALL ISZERO DUP1 ISZERO PUSH2 0x405 JUMPI RETURNDATASIZE PUSH1 0x0 DUP1 RETURNDATACOPY RETURNDATASIZE PUSH1 0x0 REVERT JUMPDEST POP POP POP POP PUSH1 0x40 MLOAD RETURNDATASIZE PUSH1 0x1F NOT PUSH1 0x1F DUP3 ADD AND DUP3 ADD DUP1 PUSH1 0x40 MSTORE POP DUP2 ADD SWAP1 PUSH2 0x429 SWAP2 SWAP1 PUSH2 0xDCD JUMP JUMPDEST DUP1 SWAP8 POP DUP2 SWAP9 POP DUP3 SWAP10 POP DUP4 SWAP11 POP DUP5 SWAP12 POP DUP6 SWAP13 POP POP POP POP POP POP POP PUSH1 0x60 PUSH1 0x0 DUP1 SLOAD SWAP1 PUSH2 0x100 EXP SWAP1 DIV PUSH20 0xFFFFFFFFFFFFFFFFFFFFFFFFFFFFFFFFFFFFFFFF AND PUSH20 0xFFFFFFFFFFFFFFFFFFFFFFFFFFFFFFFFFFFFFFFF AND PUSH4 0xD1946DBC PUSH1 0x40 MLOAD DUP2 PUSH4 0xFFFFFFFF AND PUSH1 0xE0 SHL DUP2 MSTORE PUSH1 0x4 ADD PUSH1 0x0 PUSH1 0x40 MLOAD DUP1 DUP4 SUB DUP2 DUP7 DUP1 EXTCODESIZE ISZERO DUP1 ISZERO PUSH2 0x4A9 JUMPI PUSH1 0x0 DUP1 REVERT JUMPDEST POP GAS STATICCALL ISZERO DUP1 ISZERO PUSH2 0x4BD JUMPI RETURNDATASIZE PUSH1 0x0 DUP1 RETURNDATACOPY RETURNDATASIZE PUSH1 0x0 REVERT JUMPDEST POP POP POP POP PUSH1 0x40 MLOAD RETURNDATASIZE PUSH1 0x0 DUP3 RETURNDATACOPY RETURNDATASIZE PUSH1 0x1F NOT PUSH1 0x1F DUP3 ADD AND DUP3 ADD DUP1 PUSH1 0x40 MSTORE POP DUP2 ADD SWAP1 PUSH2 0x4E6 SWAP2 SWAP1 PUSH2 0xCCF JUMP JUMPDEST SWAP1 POP PUSH1 0x60 DUP2 MLOAD PUSH8 0xFFFFFFFFFFFFFFFF DUP2 GT DUP1 ISZERO PUSH2 0x502 JUMPI PUSH1 0x0 DUP1 REVERT JUMPDEST POP PUSH1 0x40 MLOAD SWAP1 DUP1 DUP3 MSTORE DUP1 PUSH1 0x20 MUL PUSH1 0x20 ADD DUP3 ADD PUSH1 0x40 MSTORE DUP1 ISZERO PUSH2 0x53C JUMPI DUP2 PUSH1 0x20 ADD JUMPDEST PUSH2 0x529 PUSH2 0x911 JUMP JUMPDEST DUP2 MSTORE PUSH1 0x20 ADD SWAP1 PUSH1 0x1 SWAP1 SUB SWAP1 DUP2 PUSH2 0x521 JUMPI SWAP1 POP JUMPDEST POP SWAP1 POP PUSH2 0x547 PUSH2 0x961 JUMP JUMPDEST PUSH1 0x0 DUP1 SLOAD SWAP1 PUSH2 0x100 EXP SWAP1 DIV PUSH20 0xFFFFFFFFFFFFFFFFFFFFFFFFFFFFFFFFFFFFFFFF AND PUSH20 0xFFFFFFFFFFFFFFFFFFFFFFFFFFFFFFFFFFFFFFFF AND PUSH4 0x4417A583 DUP13 PUSH1 0x40 MLOAD DUP3 PUSH4 0xFFFFFFFF AND PUSH1 0xE0 SHL DUP2 MSTORE PUSH1 0x4 ADD PUSH2 0x5A0 SWAP2 SWAP1 PUSH2 0xFEC JUMP JUMPDEST PUSH1 0x20 PUSH1 0x40 MLOAD DUP1 DUP4 SUB DUP2 DUP7 DUP1 EXTCODESIZE ISZERO DUP1 ISZERO PUSH2 0x5B8 JUMPI PUSH1 0x0 DUP1 REVERT JUMPDEST POP GAS STATICCALL ISZERO DUP1 ISZERO PUSH2 0x5CC JUMPI RETURNDATASIZE PUSH1 0x0 DUP1 RETURNDATACOPY RETURNDATASIZE PUSH1 0x0 REVERT JUMPDEST POP POP POP POP PUSH1 0x40 MLOAD RETURNDATASIZE PUSH1 0x1F NOT PUSH1 0x1F DUP3 ADD AND DUP3 ADD DUP1 PUSH1 0x40 MSTORE POP DUP2 ADD SWAP1 PUSH2 0x5F0 SWAP2 SWAP1 PUSH2 0xD7B JUMP JUMPDEST SWAP1 POP PUSH1 0x0 JUMPDEST DUP4 MLOAD DUP2 LT ISZERO PUSH2 0x777 JUMPI PUSH2 0x608 DUP3 DUP3 PUSH2 0x79B JUMP JUMPDEST ISZERO PUSH2 0x76A JUMPI PUSH2 0x615 PUSH2 0x911 JUMP JUMPDEST PUSH1 0x40 MLOAD DUP1 PUSH1 0xC0 ADD PUSH1 0x40 MSTORE DUP1 DUP7 DUP5 DUP2 MLOAD DUP2 LT PUSH2 0x62C JUMPI INVALID JUMPDEST PUSH1 0x20 MUL PUSH1 0x20 ADD ADD MLOAD PUSH20 0xFFFFFFFFFFFFFFFFFFFFFFFFFFFFFFFFFFFFFFFF AND PUSH4 0x95D89B41 PUSH1 0x40 MLOAD DUP2 PUSH4 0xFFFFFFFF AND PUSH1 0xE0 SHL DUP2 MSTORE PUSH1 0x4 ADD PUSH1 0x0 PUSH1 0x40 MLOAD DUP1 DUP4 SUB DUP2 DUP7 DUP1 EXTCODESIZE ISZERO DUP1 ISZERO PUSH2 0x679 JUMPI PUSH1 0x0 DUP1 REVERT JUMPDEST POP GAS STATICCALL ISZERO DUP1 ISZERO PUSH2 0x68D JUMPI RETURNDATASIZE PUSH1 0x0 DUP1 RETURNDATACOPY RETURNDATASIZE PUSH1 0x0 REVERT JUMPDEST POP POP POP POP PUSH1 0x40 MLOAD RETURNDATASIZE PUSH1 0x0 DUP3 RETURNDATACOPY RETURNDATASIZE PUSH1 0x1F NOT PUSH1 0x1F DUP3 ADD AND DUP3 ADD DUP1 PUSH1 0x40 MSTORE POP DUP2 ADD SWAP1 PUSH2 0x6B6 SWAP2 SWAP1 PUSH2 0xD10 JUMP JUMPDEST DUP2 MSTORE PUSH1 0x20 ADD DUP7 DUP5 DUP2 MLOAD DUP2 LT PUSH2 0x6C7 JUMPI INVALID JUMPDEST PUSH1 0x20 MUL PUSH1 0x20 ADD ADD MLOAD PUSH20 0xFFFFFFFFFFFFFFFFFFFFFFFFFFFFFFFFFFFFFFFF AND DUP2 MSTORE PUSH1 0x20 ADD PUSH2 0x6F4 DUP6 DUP6 PUSH2 0x7B6 JUMP JUMPDEST ISZERO ISZERO DUP2 MSTORE PUSH1 0x20 ADD PUSH2 0x718 DUP16 DUP9 DUP7 DUP2 MLOAD DUP2 LT PUSH2 0x70B JUMPI INVALID JUMPDEST PUSH1 0x20 MUL PUSH1 0x20 ADD ADD MLOAD PUSH2 0xDC JUMP JUMPDEST DUP2 MSTORE PUSH1 0x20 ADD PUSH2 0x727 DUP6 DUP6 PUSH2 0x7D1 JUMP JUMPDEST ISZERO ISZERO DUP2 MSTORE PUSH1 0x20 ADD PUSH2 0x74B DUP16 DUP9 DUP7 DUP2 MLOAD DUP2 LT PUSH2 0x73E JUMPI INVALID JUMPDEST PUSH1 0x20 MUL PUSH1 0x20 ADD ADD MLOAD PUSH2 0x229 JUMP JUMPDEST DUP2 MSTORE POP SWAP1 POP DUP1 DUP5 DUP4 DUP2 MLOAD DUP2 LT PUSH2 0x75D JUMPI INVALID JUMPDEST PUSH1 0x20 MUL PUSH1 0x20 ADD ADD DUP2 SWAP1 MSTORE POP POP JUMPDEST DUP1 DUP1 PUSH1 0x1 ADD SWAP2 POP POP PUSH2 0x5F5 JUMP JUMPDEST POP DUP10 DUP10 DUP10 DUP10 DUP10 DUP10 DUP8 SWAP10 POP SWAP10 POP SWAP10 POP SWAP10 POP SWAP10 POP SWAP10 POP SWAP10 POP POP POP POP SWAP2 SWAP4 SWAP6 SWAP8 SWAP1 SWAP3 SWAP5 SWAP7 POP JUMP JUMPDEST PUSH1 0x0 DUP1 PUSH1 0x3 PUSH1 0x2 DUP5 MUL DUP6 PUSH1 0x0 ADD MLOAD SWAP1 SHR AND EQ ISZERO SWAP1 POP SWAP3 SWAP2 POP POP JUMP JUMPDEST PUSH1 0x0 DUP1 PUSH1 0x1 PUSH1 0x2 DUP5 MUL DUP6 PUSH1 0x0 ADD MLOAD SWAP1 SHR AND EQ ISZERO SWAP1 POP SWAP3 SWAP2 POP POP JUMP JUMPDEST PUSH1 0x0 DUP1 PUSH1 0x1 DUP1 PUSH1 0x2 DUP6 MUL ADD DUP6 PUSH1 0x0 ADD MLOAD SWAP1 SHR AND EQ ISZERO SWAP1 POP SWAP3 SWAP2 POP POP JUMP JUMPDEST PUSH1 0x40 MLOAD DUP1 PUSH2 0x180 ADD PUSH1 0x40 MSTORE DUP1 PUSH2 0x802 PUSH2 0x974 JUMP JUMPDEST DUP2 MSTORE PUSH1 0x20 ADD PUSH1 0x0 PUSH16 0xFFFFFFFFFFFFFFFFFFFFFFFFFFFFFFFF AND DUP2 MSTORE PUSH1 0x20 ADD PUSH1 0x0 PUSH16 0xFFFFFFFFFFFFFFFFFFFFFFFFFFFFFFFF AND DUP2 MSTORE PUSH1 0x20 ADD PUSH1 0x0 PUSH16 0xFFFFFFFFFFFFFFFFFFFFFFFFFFFFFFFF AND DUP2 MSTORE PUSH1 0x20 ADD PUSH1 0x0 PUSH16 0xFFFFFFFFFFFFFFFFFFFFFFFFFFFFFFFF AND DUP2 MSTORE PUSH1 0x20 ADD PUSH1 0x0 PUSH16 0xFFFFFFFFFFFFFFFFFFFFFFFFFFFFFFFF AND DUP2 MSTORE PUSH1 0x20 ADD PUSH1 0x0 PUSH5 0xFFFFFFFFFF AND DUP2 MSTORE PUSH1 0x20 ADD PUSH1 0x0 PUSH20 0xFFFFFFFFFFFFFFFFFFFFFFFFFFFFFFFFFFFFFFFF AND DUP2 MSTORE PUSH1 0x20 ADD PUSH1 0x0 PUSH20 0xFFFFFFFFFFFFFFFFFFFFFFFFFFFFFFFFFFFFFFFF AND DUP2 MSTORE PUSH1 0x20 ADD PUSH1 0x0 PUSH20 0xFFFFFFFFFFFFFFFFFFFFFFFFFFFFFFFFFFFFFFFF AND DUP2 MSTORE PUSH1 0x20 ADD PUSH1 0x0 PUSH20 0xFFFFFFFFFFFFFFFFFFFFFFFFFFFFFFFFFFFFFFFF AND DUP2 MSTORE PUSH1 0x20 ADD PUSH1 0x0 PUSH1 0xFF AND DUP2 MSTORE POP SWAP1 JUMP JUMPDEST PUSH1 0x40 MLOAD DUP1 PUSH1 0xC0 ADD PUSH1 0x40 MSTORE DUP1 PUSH1 0x60 DUP2 MSTORE PUSH1 0x20 ADD PUSH1 0x0 PUSH20 0xFFFFFFFFFFFFFFFFFFFFFFFFFFFFFFFFFFFFFFFF AND DUP2 MSTORE PUSH1 0x20 ADD PUSH1 0x0 ISZERO ISZERO DUP2 MSTORE PUSH1 0x20 ADD PUSH1 0x0 DUP2 MSTORE PUSH1 0x20 ADD PUSH1 0x0 ISZERO ISZERO DUP2 MSTORE PUSH1 0x20 ADD PUSH1 0x0 DUP2 MSTORE POP SWAP1 JUMP JUMPDEST PUSH1 0x40 MLOAD DUP1 PUSH1 0x20 ADD PUSH1 0x40 MSTORE DUP1 PUSH1 0x0 DUP2 MSTORE POP SWAP1 JUMP JUMPDEST PUSH1 0x40 MLOAD DUP1 PUSH1 0x20 ADD PUSH1 0x40 MSTORE DUP1 PUSH1 0x0 DUP2 MSTORE POP SWAP1 JUMP JUMPDEST PUSH1 0x0 DUP2 CALLDATALOAD SWAP1 POP PUSH2 0x996 DUP2 PUSH2 0x1234 JUMP JUMPDEST SWAP3 SWAP2 POP POP JUMP JUMPDEST PUSH1 0x0 DUP2 MLOAD SWAP1 POP PUSH2 0x9AB DUP2 PUSH2 0x1234 JUMP JUMPDEST SWAP3 SWAP2 POP POP JUMP JUMPDEST PUSH1 0x0 DUP3 PUSH1 0x1F DUP4 ADD SLT PUSH2 0x9C2 JUMPI PUSH1 0x0 DUP1 REVERT JUMPDEST DUP2 MLOAD PUSH2 0x9D5 PUSH2 0x9D0 DUP3 PUSH2 0x10C5 JUMP JUMPDEST PUSH2 0x1098 JUMP JUMPDEST SWAP2 POP DUP2 DUP2 DUP4 MSTORE PUSH1 0x20 DUP5 ADD SWAP4 POP PUSH1 0x20 DUP2 ADD SWAP1 POP DUP4 DUP6 PUSH1 0x20 DUP5 MUL DUP3 ADD GT ISZERO PUSH2 0x9FA JUMPI PUSH1 0x0 DUP1 REVERT JUMPDEST PUSH1 0x0 JUMPDEST DUP4 DUP2 LT ISZERO PUSH2 0xA2A JUMPI DUP2 PUSH2 0xA10 DUP9 DUP3 PUSH2 0x99C JUMP JUMPDEST DUP5 MSTORE PUSH1 0x20 DUP5 ADD SWAP4 POP PUSH1 0x20 DUP4 ADD SWAP3 POP POP PUSH1 0x1 DUP2 ADD SWAP1 POP PUSH2 0x9FD JUMP JUMPDEST POP POP POP POP SWAP3 SWAP2 POP POP JUMP JUMPDEST PUSH1 0x0 DUP3 PUSH1 0x1F DUP4 ADD SLT PUSH2 0xA45 JUMPI PUSH1 0x0 DUP1 REVERT JUMPDEST DUP2 MLOAD PUSH2 0xA58 PUSH2 0xA53 DUP3 PUSH2 0x10ED JUMP JUMPDEST PUSH2 0x1098 JUMP JUMPDEST SWAP2 POP DUP1 DUP3 MSTORE PUSH1 0x20 DUP4 ADD PUSH1 0x20 DUP4 ADD DUP6 DUP4 DUP4 ADD GT ISZERO PUSH2 0xA74 JUMPI PUSH1 0x0 DUP1 REVERT JUMPDEST PUSH2 0xA7F DUP4 DUP3 DUP5 PUSH2 0x11F0 JUMP JUMPDEST POP POP POP SWAP3 SWAP2 POP POP JUMP JUMPDEST PUSH1 0x0 PUSH1 0x20 DUP3 DUP5 SUB SLT ISZERO PUSH2 0xA9A JUMPI PUSH1 0x0 DUP1 REVERT JUMPDEST PUSH2 0xAA4 PUSH1 0x20 PUSH2 0x1098 JUMP JUMPDEST SWAP1 POP PUSH1 0x0 PUSH2 0xAB4 DUP5 DUP3 DUP6 ADD PUSH2 0xC2B JUMP JUMPDEST PUSH1 0x0 DUP4 ADD MSTORE POP SWAP3 SWAP2 POP POP JUMP JUMPDEST PUSH1 0x0 PUSH2 0x180 DUP3 DUP5 SUB SLT ISZERO PUSH2 0xAD3 JUMPI PUSH1 0x0 DUP1 REVERT JUMPDEST PUSH2 0xADE PUSH2 0x180 PUSH2 0x1098 JUMP JUMPDEST SWAP1 POP PUSH1 0x0 PUSH2 0xAEE DUP5 DUP3 DUP6 ADD PUSH2 0xA88 JUMP JUMPDEST PUSH1 0x0 DUP4 ADD MSTORE POP PUSH1 0x20 PUSH2 0xB02 DUP5 DUP3 DUP6 ADD PUSH2 0xC16 JUMP JUMPDEST PUSH1 0x20 DUP4 ADD MSTORE POP PUSH1 0x40 PUSH2 0xB16 DUP5 DUP3 DUP6 ADD PUSH2 0xC16 JUMP JUMPDEST PUSH1 0x40 DUP4 ADD MSTORE POP PUSH1 0x60 PUSH2 0xB2A DUP5 DUP3 DUP6 ADD PUSH2 0xC16 JUMP JUMPDEST PUSH1 0x60 DUP4 ADD MSTORE POP PUSH1 0x80 PUSH2 0xB3E DUP5 DUP3 DUP6 ADD PUSH2 0xC16 JUMP JUMPDEST PUSH1 0x80 DUP4 ADD MSTORE POP PUSH1 0xA0 PUSH2 0xB52 DUP5 DUP3 DUP6 ADD PUSH2 0xC16 JUMP JUMPDEST PUSH1 0xA0 DUP4 ADD MSTORE POP PUSH1 0xC0 PUSH2 0xB66 DUP5 DUP3 DUP6 ADD PUSH2 0xC40 JUMP JUMPDEST PUSH1 0xC0 DUP4 ADD MSTORE POP PUSH1 0xE0 PUSH2 0xB7A DUP5 DUP3 DUP6 ADD PUSH2 0x99C JUMP JUMPDEST PUSH1 0xE0 DUP4 ADD MSTORE POP PUSH2 0x100 PUSH2 0xB8F DUP5 DUP3 DUP6 ADD PUSH2 0x99C JUMP JUMPDEST PUSH2 0x100 DUP4 ADD MSTORE POP PUSH2 0x120 PUSH2 0xBA5 DUP5 DUP3 DUP6 ADD PUSH2 0x99C JUMP JUMPDEST PUSH2 0x120 DUP4 ADD MSTORE POP PUSH2 0x140 PUSH2 0xBBB DUP5 DUP3 DUP6 ADD PUSH2 0x99C JUMP JUMPDEST PUSH2 0x140 DUP4 ADD MSTORE POP PUSH2 0x160 PUSH2 0xBD1 DUP5 DUP3 DUP6 ADD PUSH2 0xC55 JUMP JUMPDEST PUSH2 0x160 DUP4 ADD MSTORE POP SWAP3 SWAP2 POP POP JUMP JUMPDEST PUSH1 0x0 PUSH1 0x20 DUP3 DUP5 SUB SLT ISZERO PUSH2 0xBF0 JUMPI PUSH1 0x0 DUP1 REVERT JUMPDEST PUSH2 0xBFA PUSH1 0x20 PUSH2 0x1098 JUMP JUMPDEST SWAP1 POP PUSH1 0x0 PUSH2 0xC0A DUP5 DUP3 DUP6 ADD PUSH2 0xC2B JUMP JUMPDEST PUSH1 0x0 DUP4 ADD MSTORE POP SWAP3 SWAP2 POP POP JUMP JUMPDEST PUSH1 0x0 DUP2 MLOAD SWAP1 POP PUSH2 0xC25 DUP2 PUSH2 0x124B JUMP JUMPDEST SWAP3 SWAP2 POP POP JUMP JUMPDEST PUSH1 0x0 DUP2 MLOAD SWAP1 POP PUSH2 0xC3A DUP2 PUSH2 0x1262 JUMP JUMPDEST SWAP3 SWAP2 POP POP JUMP JUMPDEST PUSH1 0x0 DUP2 MLOAD SWAP1 POP PUSH2 0xC4F DUP2 PUSH2 0x1279 JUMP JUMPDEST SWAP3 SWAP2 POP POP JUMP JUMPDEST PUSH1 0x0 DUP2 MLOAD SWAP1 POP PUSH2 0xC64 DUP2 PUSH2 0x1290 JUMP JUMPDEST SWAP3 SWAP2 POP POP JUMP JUMPDEST PUSH1 0x0 PUSH1 0x20 DUP3 DUP5 SUB SLT ISZERO PUSH2 0xC7C JUMPI PUSH1 0x0 DUP1 REVERT JUMPDEST PUSH1 0x0 PUSH2 0xC8A DUP5 DUP3 DUP6 ADD PUSH2 0x987 JUMP JUMPDEST SWAP2 POP POP SWAP3 SWAP2 POP POP JUMP JUMPDEST PUSH1 0x0 DUP1 PUSH1 0x40 DUP4 DUP6 SUB SLT ISZERO PUSH2 0xCA6 JUMPI PUSH1 0x0 DUP1 REVERT JUMPDEST PUSH1 0x0 PUSH2 0xCB4 DUP6 DUP3 DUP7 ADD PUSH2 0x987 JUMP JUMPDEST SWAP3 POP POP PUSH1 0x20 PUSH2 0xCC5 DUP6 DUP3 DUP7 ADD PUSH2 0x987 JUMP JUMPDEST SWAP2 POP POP SWAP3 POP SWAP3 SWAP1 POP JUMP JUMPDEST PUSH1 0x0 PUSH1 0x20 DUP3 DUP5 SUB SLT ISZERO PUSH2 0xCE1 JUMPI PUSH1 0x0 DUP1 REVERT JUMPDEST PUSH1 0x0 DUP3 ADD MLOAD PUSH8 0xFFFFFFFFFFFFFFFF DUP2 GT ISZERO PUSH2 0xCFB JUMPI PUSH1 0x0 DUP1 REVERT JUMPDEST PUSH2 0xD07 DUP5 DUP3 DUP6 ADD PUSH2 0x9B1 JUMP JUMPDEST SWAP2 POP POP SWAP3 SWAP2 POP POP JUMP JUMPDEST PUSH1 0x0 PUSH1 0x20 DUP3 DUP5 SUB SLT ISZERO PUSH2 0xD22 JUMPI PUSH1 0x0 DUP1 REVERT JUMPDEST PUSH1 0x0 DUP3 ADD MLOAD PUSH8 0xFFFFFFFFFFFFFFFF DUP2 GT ISZERO PUSH2 0xD3C JUMPI PUSH1 0x0 DUP1 REVERT JUMPDEST PUSH2 0xD48 DUP5 DUP3 DUP6 ADD PUSH2 0xA34 JUMP JUMPDEST SWAP2 POP POP SWAP3 SWAP2 POP POP JUMP JUMPDEST PUSH1 0x0 PUSH2 0x180 DUP3 DUP5 SUB SLT ISZERO PUSH2 0xD64 JUMPI PUSH1 0x0 DUP1 REVERT JUMPDEST PUSH1 0x0 PUSH2 0xD72 DUP5 DUP3 DUP6 ADD PUSH2 0xAC0 JUMP JUMPDEST SWAP2 POP POP SWAP3 SWAP2 POP POP JUMP JUMPDEST PUSH1 0x0 PUSH1 0x20 DUP3 DUP5 SUB SLT ISZERO PUSH2 0xD8D JUMPI PUSH1 0x0 DUP1 REVERT JUMPDEST PUSH1 0x0 PUSH2 0xD9B DUP5 DUP3 DUP6 ADD PUSH2 0xBDE JUMP JUMPDEST SWAP2 POP POP SWAP3 SWAP2 POP POP JUMP JUMPDEST PUSH1 0x0 PUSH1 0x20 DUP3 DUP5 SUB SLT ISZERO PUSH2 0xDB6 JUMPI PUSH1 0x0 DUP1 REVERT JUMPDEST PUSH1 0x0 PUSH2 0xDC4 DUP5 DUP3 DUP6 ADD PUSH2 0xC2B JUMP JUMPDEST SWAP2 POP POP SWAP3 SWAP2 POP POP JUMP JUMPDEST PUSH1 0x0 DUP1 PUSH1 0x0 DUP1 PUSH1 0x0 DUP1 PUSH1 0xC0 DUP8 DUP10 SUB SLT ISZERO PUSH2 0xDE6 JUMPI PUSH1 0x0 DUP1 REVERT JUMPDEST PUSH1 0x0 PUSH2 0xDF4 DUP10 DUP3 DUP11 ADD PUSH2 0xC2B JUMP JUMPDEST SWAP7 POP POP PUSH1 0x20 PUSH2 0xE05 DUP10 DUP3 DUP11 ADD PUSH2 0xC2B JUMP JUMPDEST SWAP6 POP POP PUSH1 0x40 PUSH2 0xE16 DUP10 DUP3 DUP11 ADD PUSH2 0xC2B JUMP JUMPDEST SWAP5 POP POP PUSH1 0x60 PUSH2 0xE27 DUP10 DUP3 DUP11 ADD PUSH2 0xC2B JUMP JUMPDEST SWAP4 POP POP PUSH1 0x80 PUSH2 0xE38 DUP10 DUP3 DUP11 ADD PUSH2 0xC2B JUMP JUMPDEST SWAP3 POP POP PUSH1 0xA0 PUSH2 0xE49 DUP10 DUP3 DUP11 ADD PUSH2 0xC2B JUMP JUMPDEST SWAP2 POP POP SWAP3 SWAP6 POP SWAP3 SWAP6 POP SWAP3 SWAP6 JUMP JUMPDEST PUSH1 0x0 PUSH2 0xE62 DUP4 DUP4 PUSH2 0xF45 JUMP JUMPDEST SWAP1 POP SWAP3 SWAP2 POP POP JUMP JUMPDEST PUSH2 0xE73 DUP2 PUSH2 0x116E JUMP JUMPDEST DUP3 MSTORE POP POP JUMP JUMPDEST PUSH2 0xE82 DUP2 PUSH2 0x116E JUMP JUMPDEST DUP3 MSTORE POP POP JUMP JUMPDEST PUSH1 0x0 PUSH2 0xE93 DUP3 PUSH2 0x1129 JUMP JUMPDEST PUSH2 0xE9D DUP2 DUP6 PUSH2 0x114C JUMP JUMPDEST SWAP4 POP DUP4 PUSH1 0x20 DUP3 MUL DUP6 ADD PUSH2 0xEAF DUP6 PUSH2 0x1119 JUMP JUMPDEST DUP1 PUSH1 0x0 JUMPDEST DUP6 DUP2 LT ISZERO PUSH2 0xEEB JUMPI DUP5 DUP5 SUB DUP10 MSTORE DUP2 MLOAD PUSH2 0xECC DUP6 DUP3 PUSH2 0xE56 JUMP JUMPDEST SWAP5 POP PUSH2 0xED7 DUP4 PUSH2 0x113F JUMP JUMPDEST SWAP3 POP PUSH1 0x20 DUP11 ADD SWAP10 POP POP PUSH1 0x1 DUP2 ADD SWAP1 POP PUSH2 0xEB3 JUMP JUMPDEST POP DUP3 SWAP8 POP DUP8 SWAP6 POP POP POP POP POP POP SWAP3 SWAP2 POP POP JUMP JUMPDEST PUSH2 0xF06 DUP2 PUSH2 0x1180 JUMP JUMPDEST DUP3 MSTORE POP POP JUMP JUMPDEST PUSH1 0x0 PUSH2 0xF17 DUP3 PUSH2 0x1134 JUMP JUMPDEST PUSH2 0xF21 DUP2 DUP6 PUSH2 0x115D JUMP JUMPDEST SWAP4 POP PUSH2 0xF31 DUP2 DUP6 PUSH1 0x20 DUP7 ADD PUSH2 0x11F0 JUMP JUMPDEST PUSH2 0xF3A DUP2 PUSH2 0x1223 JUMP JUMPDEST DUP5 ADD SWAP2 POP POP SWAP3 SWAP2 POP POP JUMP JUMPDEST PUSH1 0x0 PUSH1 0xC0 DUP4 ADD PUSH1 0x0 DUP4 ADD MLOAD DUP5 DUP3 SUB PUSH1 0x0 DUP7 ADD MSTORE PUSH2 0xF62 DUP3 DUP3 PUSH2 0xF0C JUMP JUMPDEST SWAP2 POP POP PUSH1 0x20 DUP4 ADD MLOAD PUSH2 0xF77 PUSH1 0x20 DUP7 ADD DUP3 PUSH2 0xE6A JUMP JUMPDEST POP PUSH1 0x40 DUP4 ADD MLOAD PUSH2 0xF8A PUSH1 0x40 DUP7 ADD DUP3 PUSH2 0xEFD JUMP JUMPDEST POP PUSH1 0x60 DUP4 ADD MLOAD PUSH2 0xF9D PUSH1 0x60 DUP7 ADD DUP3 PUSH2 0xFCE JUMP JUMPDEST POP PUSH1 0x80 DUP4 ADD MLOAD PUSH2 0xFB0 PUSH1 0x80 DUP7 ADD DUP3 PUSH2 0xEFD JUMP JUMPDEST POP PUSH1 0xA0 DUP4 ADD MLOAD PUSH2 0xFC3 PUSH1 0xA0 DUP7 ADD DUP3 PUSH2 0xFCE JUMP JUMPDEST POP DUP1 SWAP2 POP POP SWAP3 SWAP2 POP POP JUMP JUMPDEST PUSH2 0xFD7 DUP2 PUSH2 0x11C8 JUMP JUMPDEST DUP3 MSTORE POP POP JUMP JUMPDEST PUSH2 0xFE6 DUP2 PUSH2 0x11C8 JUMP JUMPDEST DUP3 MSTORE POP POP JUMP JUMPDEST PUSH1 0x0 PUSH1 0x20 DUP3 ADD SWAP1 POP PUSH2 0x1001 PUSH1 0x0 DUP4 ADD DUP5 PUSH2 0xE79 JUMP JUMPDEST SWAP3 SWAP2 POP POP JUMP JUMPDEST PUSH1 0x0 PUSH1 0x20 DUP3 ADD SWAP1 POP PUSH2 0x101C PUSH1 0x0 DUP4 ADD DUP5 PUSH2 0xFDD JUMP JUMPDEST SWAP3 SWAP2 POP POP JUMP JUMPDEST PUSH1 0x0 PUSH1 0xE0 DUP3 ADD SWAP1 POP PUSH2 0x1037 PUSH1 0x0 DUP4 ADD DUP11 PUSH2 0xFDD JUMP JUMPDEST PUSH2 0x1044 PUSH1 0x20 DUP4 ADD DUP10 PUSH2 0xFDD JUMP JUMPDEST PUSH2 0x1051 PUSH1 0x40 DUP4 ADD DUP9 PUSH2 0xFDD JUMP JUMPDEST PUSH2 0x105E PUSH1 0x60 DUP4 ADD DUP8 PUSH2 0xFDD JUMP JUMPDEST PUSH2 0x106B PUSH1 0x80 DUP4 ADD DUP7 PUSH2 0xFDD JUMP JUMPDEST PUSH2 0x1078 PUSH1 0xA0 DUP4 ADD DUP6 PUSH2 0xFDD JUMP JUMPDEST DUP2 DUP2 SUB PUSH1 0xC0 DUP4 ADD MSTORE PUSH2 0x108A DUP2 DUP5 PUSH2 0xE88 JUMP JUMPDEST SWAP1 POP SWAP9 SWAP8 POP POP POP POP POP POP POP POP JUMP JUMPDEST PUSH1 0x0 PUSH1 0x40 MLOAD SWAP1 POP DUP2 DUP2 ADD DUP2 DUP2 LT PUSH8 0xFFFFFFFFFFFFFFFF DUP3 GT OR ISZERO PUSH2 0x10BB JUMPI PUSH1 0x0 DUP1 REVERT JUMPDEST DUP1 PUSH1 0x40 MSTORE POP SWAP2 SWAP1 POP JUMP JUMPDEST PUSH1 0x0 PUSH8 0xFFFFFFFFFFFFFFFF DUP3 GT ISZERO PUSH2 0x10DC JUMPI PUSH1 0x0 DUP1 REVERT JUMPDEST PUSH1 0x20 DUP3 MUL SWAP1 POP PUSH1 0x20 DUP2 ADD SWAP1 POP SWAP2 SWAP1 POP JUMP JUMPDEST PUSH1 0x0 PUSH8 0xFFFFFFFFFFFFFFFF DUP3 GT ISZERO PUSH2 0x1104 JUMPI PUSH1 0x0 DUP1 REVERT JUMPDEST PUSH1 0x1F NOT PUSH1 0x1F DUP4 ADD AND SWAP1 POP PUSH1 0x20 DUP2 ADD SWAP1 POP SWAP2 SWAP1 POP JUMP JUMPDEST PUSH1 0x0 DUP2 SWAP1 POP PUSH1 0x20 DUP3 ADD SWAP1 POP SWAP2 SWAP1 POP JUMP JUMPDEST PUSH1 0x0 DUP2 MLOAD SWAP1 POP SWAP2 SWAP1 POP JUMP JUMPDEST PUSH1 0x0 DUP2 MLOAD SWAP1 POP SWAP2 SWAP1 POP JUMP JUMPDEST PUSH1 0x0 PUSH1 0x20 DUP3 ADD SWAP1 POP SWAP2 SWAP1 POP JUMP JUMPDEST PUSH1 0x0 DUP3 DUP3 MSTORE PUSH1 0x20 DUP3 ADD SWAP1 POP SWAP3 SWAP2 POP POP JUMP JUMPDEST PUSH1 0x0 DUP3 DUP3 MSTORE PUSH1 0x20 DUP3 ADD SWAP1 POP SWAP3 SWAP2 POP POP JUMP JUMPDEST PUSH1 0x0 PUSH2 0x1179 DUP3 PUSH2 0x11A8 JUMP JUMPDEST SWAP1 POP SWAP2 SWAP1 POP JUMP JUMPDEST PUSH1 0x0 DUP2 ISZERO ISZERO SWAP1 POP SWAP2 SWAP1 POP JUMP JUMPDEST PUSH1 0x0 PUSH16 0xFFFFFFFFFFFFFFFFFFFFFFFFFFFFFFFF DUP3 AND SWAP1 POP SWAP2 SWAP1 POP JUMP JUMPDEST PUSH1 0x0 PUSH20 0xFFFFFFFFFFFFFFFFFFFFFFFFFFFFFFFFFFFFFFFF DUP3 AND SWAP1 POP SWAP2 SWAP1 POP JUMP JUMPDEST PUSH1 0x0 DUP2 SWAP1 POP SWAP2 SWAP1 POP JUMP JUMPDEST PUSH1 0x0 PUSH5 0xFFFFFFFFFF DUP3 AND SWAP1 POP SWAP2 SWAP1 POP JUMP JUMPDEST PUSH1 0x0 PUSH1 0xFF DUP3 AND SWAP1 POP SWAP2 SWAP1 POP JUMP JUMPDEST PUSH1 0x0 JUMPDEST DUP4 DUP2 LT ISZERO PUSH2 0x120E JUMPI DUP1 DUP3 ADD MLOAD DUP2 DUP5 ADD MSTORE PUSH1 0x20 DUP2 ADD SWAP1 POP PUSH2 0x11F3 JUMP JUMPDEST DUP4 DUP2 GT ISZERO PUSH2 0x121D JUMPI PUSH1 0x0 DUP5 DUP5 ADD MSTORE JUMPDEST POP POP POP POP JUMP JUMPDEST PUSH1 0x0 PUSH1 0x1F NOT PUSH1 0x1F DUP4 ADD AND SWAP1 POP SWAP2 SWAP1 POP JUMP JUMPDEST PUSH2 0x123D DUP2 PUSH2 0x116E JUMP JUMPDEST DUP2 EQ PUSH2 0x1248 JUMPI PUSH1 0x0 DUP1 REVERT JUMPDEST POP JUMP JUMPDEST PUSH2 0x1254 DUP2 PUSH2 0x118C JUMP JUMPDEST DUP2 EQ PUSH2 0x125F JUMPI PUSH1 0x0 DUP1 REVERT JUMPDEST POP JUMP JUMPDEST PUSH2 0x126B DUP2 PUSH2 0x11C8 JUMP JUMPDEST DUP2 EQ PUSH2 0x1276 JUMPI PUSH1 0x0 DUP1 REVERT JUMPDEST POP JUMP JUMPDEST PUSH2 0x1282 DUP2 PUSH2 0x11D2 JUMP JUMPDEST DUP2 EQ PUSH2 0x128D JUMPI PUSH1 0x0 DUP1 REVERT JUMPDEST POP JUMP JUMPDEST PUSH2 0x1299 DUP2 PUSH2 0x11E3 JUMP JUMPDEST DUP2 EQ PUSH2 0x12A4 JUMPI PUSH1 0x0 DUP1 REVERT JUMPDEST POP JUMP INVALID LOG2 PUSH5 0x6970667358 0x22 SLT KECCAK256 0xA7 ISZERO PUSH15 0xFB45DD9EB014F0748E49E1F8B1D251 SWAP16 DIV DUP11 XOR 0xEB 0xE6 DUP1 SWAP6 0xF8 PUSH3 0x9FC895 LOG3 PUSH5 0x736F6C6343 STOP MOD 0xC STOP CALLER "
        },
        "methodIdentifiers": {
          "getCollateralalance(address,address)": "6d2a039f",
          "getDebtBalance(address,address)": "58bd5c20",
          "getUserData(address)": "ffc9896b"
        }
      }
    }
  }
}