{
  "_format": "hh-sol-artifact-1",
  "contractName": "AaveLiquidator",
  "sourceName": "contracts/AaveLiquidator.sol",
  "abi": [
    {
      "inputs": [
        {
          "internalType": "contract IUniswapV2Router02",
          "name": "_quickSwapRouter",
          "type": "address"
        },
        {
          "internalType": "contract ILendingPoolAddressesProvider",
          "name": "_aaveLendingPoolAddressProvider",
          "type": "address"
        }
      ],
      "stateMutability": "nonpayable",
      "type": "constructor"
    },
    {
      "anonymous": false,
      "inputs": [
        {
          "indexed": true,
          "internalType": "address",
          "name": "previousOwner",
          "type": "address"
        },
        {
          "indexed": true,
          "internalType": "address",
          "name": "newOwner",
          "type": "address"
        }
      ],
      "name": "OwnershipTransferred",
      "type": "event"
    },
    {
      "inputs": [
        {
          "internalType": "address[]",
          "name": "addressesToApprove",
          "type": "address[]"
        }
      ],
      "name": "approveAddresses",
      "outputs": [],
      "stateMutability": "nonpayable",
      "type": "function"
    },
    {
      "inputs": [
        {
          "internalType": "address[]",
          "name": "assets",
          "type": "address[]"
        },
        {
          "internalType": "uint256[]",
          "name": "amounts",
          "type": "uint256[]"
        },
        {
          "internalType": "uint256[]",
          "name": "premiums",
          "type": "uint256[]"
        },
        {
          "internalType": "address",
          "name": "initiator",
          "type": "address"
        },
        {
          "internalType": "bytes",
          "name": "params",
          "type": "bytes"
        }
      ],
      "name": "executeOperation",
      "outputs": [
        {
          "internalType": "bool",
          "name": "",
          "type": "bool"
        }
      ],
      "stateMutability": "nonpayable",
      "type": "function"
    },
    {
      "inputs": [],
      "name": "isOwner",
      "outputs": [
        {
          "internalType": "bool",
          "name": "",
          "type": "bool"
        }
      ],
      "stateMutability": "view",
      "type": "function"
    },
    {
      "inputs": [],
      "name": "owner",
      "outputs": [
        {
          "internalType": "address",
          "name": "",
          "type": "address"
        }
      ],
      "stateMutability": "view",
      "type": "function"
    },
    {
      "inputs": [],
      "name": "renounceOwnership",
      "outputs": [],
      "stateMutability": "nonpayable",
      "type": "function"
    },
    {
      "inputs": [
        {
          "internalType": "address",
          "name": "newOwner",
          "type": "address"
        }
      ],
      "name": "transferOwnership",
      "outputs": [],
      "stateMutability": "nonpayable",
      "type": "function"
    },
    {
      "inputs": [],
      "name": "withdrawMatic",
      "outputs": [],
      "stateMutability": "payable",
      "type": "function"
    },
    {
      "inputs": [
        {
          "internalType": "contract IERC20",
          "name": "token",
          "type": "address"
        }
      ],
      "name": "withdrawToken",
      "outputs": [],
      "stateMutability": "payable",
      "type": "function"
    },
    {
      "stateMutability": "payable",
      "type": "receive"
    }
  ],
  "bytecode": "0x60806040523480156200001157600080fd5b506040516200167d3803806200167d8339818101604052810190620000379190620003d8565b80806000806101000a81548173ffffffffffffffffffffffffffffffffffffffff021916908373ffffffffffffffffffffffffffffffffffffffff1602179055508073ffffffffffffffffffffffffffffffffffffffff16630261bf8b6040518163ffffffff1660e01b815260040160206040518083038186803b158015620000bf57600080fd5b505afa158015620000d4573d6000803e3d6000fd5b505050506040513d601f19601f82011682018060405250810190620000fa9190620003ac565b600160006101000a81548173ffffffffffffffffffffffffffffffffffffffff021916908373ffffffffffffffffffffffffffffffffffffffff1602179055505033600260006101000a81548173ffffffffffffffffffffffffffffffffffffffff021916908373ffffffffffffffffffffffffffffffffffffffff160217905550600260009054906101000a900473ffffffffffffffffffffffffffffffffffffffff1673ffffffffffffffffffffffffffffffffffffffff16600073ffffffffffffffffffffffffffffffffffffffff167f8be0079c531659141344cd1fd0a4f28419497f9722a3daafe3b4186f6b6457e060405160405180910390a380600360006101000a81548173ffffffffffffffffffffffffffffffffffffffff021916908373ffffffffffffffffffffffffffffffffffffffff160217905550600360009054906101000a900473ffffffffffffffffffffffffffffffffffffffff1673ffffffffffffffffffffffffffffffffffffffff16630261bf8b6040518163ffffffff1660e01b815260040160206040518083038186803b158015620002a357600080fd5b505afa158015620002b8573d6000803e3d6000fd5b505050506040513d601f19601f82011682018060405250810190620002de9190620003ac565b600560006101000a81548173ffffffffffffffffffffffffffffffffffffffff021916908373ffffffffffffffffffffffffffffffffffffffff16021790555081600460006101000a81548173ffffffffffffffffffffffffffffffffffffffff021916908373ffffffffffffffffffffffffffffffffffffffff1602179055505050620004c3565b600081519050620003788162000475565b92915050565b6000815190506200038f816200048f565b92915050565b600081519050620003a681620004a9565b92915050565b600060208284031215620003bf57600080fd5b6000620003cf8482850162000367565b91505092915050565b60008060408385031215620003ec57600080fd5b6000620003fc8582860162000395565b92505060206200040f858286016200037e565b9150509250929050565b6000620004268262000455565b9050919050565b60006200043a8262000419565b9050919050565b60006200044e8262000419565b9050919050565b600073ffffffffffffffffffffffffffffffffffffffff82169050919050565b620004808162000419565b81146200048c57600080fd5b50565b6200049a816200042d565b8114620004a657600080fd5b50565b620004b48162000441565b8114620004c057600080fd5b50565b6111aa80620004d36000396000f3fe60806040526004361061007f5760003560e01c80638f32d59b1161004e5780638f32d59b146100f3578063920f5c841461011e578063f0f4d0cb1461015b578063f2fde38b1461018457610086565b8063715018a61461008b578063810074c6146100a257806389476069146100ac5780638da5cb5b146100c857610086565b3661008657005b600080fd5b34801561009757600080fd5b506100a06101ad565b005b6100aa6102b5565b005b6100c660048036038101906100c19190610ceb565b610367565b005b3480156100d457600080fd5b506100dd6104c7565b6040516100ea9190610ef4565b60405180910390f35b3480156100ff57600080fd5b506101086104f1565b6040516101159190610f7c565b60405180910390f35b34801561012a57600080fd5b5061014560048036038101906101409190610b99565b610549565b6040516101529190610f7c565b60405180910390f35b34801561016757600080fd5b50610182600480360381019061017d9190610c81565b610714565b005b34801561019057600080fd5b506101ab60048036038101906101a69190610b70565b6107e3565b005b6101b56104f1565b6101f4576040517f08c379a00000000000000000000000000000000000000000000000000000000081526004016101eb90610fd7565b60405180910390fd5b600073ffffffffffffffffffffffffffffffffffffffff16600260009054906101000a900473ffffffffffffffffffffffffffffffffffffffff1673ffffffffffffffffffffffffffffffffffffffff167f8be0079c531659141344cd1fd0a4f28419497f9722a3daafe3b4186f6b6457e060405160405180910390a36000600260006101000a81548173ffffffffffffffffffffffffffffffffffffffff021916908373ffffffffffffffffffffffffffffffffffffffff160217905550565b6102bd6104f1565b6102fc576040517f08c379a00000000000000000000000000000000000000000000000000000000081526004016102f390610fd7565b60405180910390fd5b3373ffffffffffffffffffffffffffffffffffffffff164760405161032090610edf565b60006040518083038185875af1925050503d806000811461035d576040519150601f19603f3d011682016040523d82523d6000602084013e610362565b606091505b505050565b61036f6104f1565b6103ae576040517f08c379a00000000000000000000000000000000000000000000000000000000081526004016103a590610fd7565b60405180910390fd5b8073ffffffffffffffffffffffffffffffffffffffff1663a9059cbb338373ffffffffffffffffffffffffffffffffffffffff166370a08231306040518263ffffffff1660e01b81526004016104049190610f0f565b60206040518083038186803b15801561041c57600080fd5b505afa158015610430573d6000803e3d6000fd5b505050506040513d601f19601f820116820180604052508101906104549190610d14565b6040518363ffffffff1660e01b8152600401610471929190610f2a565b602060405180830381600087803b15801561048b57600080fd5b505af115801561049f573d6000803e3d6000fd5b505050506040513d601f19601f820116820180604052508101906104c39190610cc2565b5050565b6000600260009054906101000a900473ffffffffffffffffffffffffffffffffffffffff16905090565b6000600260009054906101000a900473ffffffffffffffffffffffffffffffffffffffff1673ffffffffffffffffffffffffffffffffffffffff163373ffffffffffffffffffffffffffffffffffffffff1614905090565b6000600560009054906101000a900473ffffffffffffffffffffffffffffffffffffffff1673ffffffffffffffffffffffffffffffffffffffff163373ffffffffffffffffffffffffffffffffffffffff16146105db576040517f08c379a00000000000000000000000000000000000000000000000000000000081526004016105d290610ff7565b60405180910390fd5b60005b8a8a90508110156107025760006106228888848181106105fa57fe5b905060200201358b8b8581811061060d57fe5b9050602002013561083690919063ffffffff16565b90508b8b8381811061063057fe5b90506020020160208101906106459190610b70565b73ffffffffffffffffffffffffffffffffffffffff1663095ea7b3600560009054906101000a900473ffffffffffffffffffffffffffffffffffffffff16836040518363ffffffff1660e01b81526004016106a1929190610f53565b602060405180830381600087803b1580156106bb57600080fd5b505af11580156106cf573d6000803e3d6000fd5b505050506040513d601f19601f820116820180604052508101906106f39190610cc2565b505080806001019150506105de565b50600190509998505050505050505050565b61071c6104f1565b61075b576040517f08c379a000000000000000000000000000000000000000000000000000000000815260040161075290610fd7565b60405180910390fd5b60005b81518110156107df5760016006600084848151811061077957fe5b602002602001015173ffffffffffffffffffffffffffffffffffffffff1673ffffffffffffffffffffffffffffffffffffffff16815260200190815260200160002060006101000a81548160ff021916908315150217905550808060010191505061075e565b5050565b6107eb6104f1565b61082a576040517f08c379a000000000000000000000000000000000000000000000000000000000815260040161082190610fd7565b60405180910390fd5b6108338161088b565b50565b600080828401905083811015610881576040517f08c379a000000000000000000000000000000000000000000000000000000000815260040161087890610fb7565b60405180910390fd5b8091505092915050565b600073ffffffffffffffffffffffffffffffffffffffff168173ffffffffffffffffffffffffffffffffffffffff1614156108fb576040517f08c379a00000000000000000000000000000000000000000000000000000000081526004016108f290610f97565b60405180910390fd5b8073ffffffffffffffffffffffffffffffffffffffff16600260009054906101000a900473ffffffffffffffffffffffffffffffffffffffff1673ffffffffffffffffffffffffffffffffffffffff167f8be0079c531659141344cd1fd0a4f28419497f9722a3daafe3b4186f6b6457e060405160405180910390a380600260006101000a81548173ffffffffffffffffffffffffffffffffffffffff021916908373ffffffffffffffffffffffffffffffffffffffff16021790555050565b6000813590506109ca81611118565b92915050565b60008083601f8401126109e257600080fd5b8235905067ffffffffffffffff8111156109fb57600080fd5b602083019150836020820283011115610a1357600080fd5b9250929050565b600082601f830112610a2b57600080fd5b8135610a3e610a3982611044565b611017565b91508181835260208401935060208101905083856020840282011115610a6357600080fd5b60005b83811015610a935781610a7988826109bb565b845260208401935060208301925050600181019050610a66565b5050505092915050565b60008083601f840112610aaf57600080fd5b8235905067ffffffffffffffff811115610ac857600080fd5b602083019150836020820283011115610ae057600080fd5b9250929050565b600081519050610af68161112f565b92915050565b60008083601f840112610b0e57600080fd5b8235905067ffffffffffffffff811115610b2757600080fd5b602083019150836001820283011115610b3f57600080fd5b9250929050565b600081359050610b5581611146565b92915050565b600081519050610b6a8161115d565b92915050565b600060208284031215610b8257600080fd5b6000610b90848285016109bb565b91505092915050565b600080600080600080600080600060a08a8c031215610bb757600080fd5b60008a013567ffffffffffffffff811115610bd157600080fd5b610bdd8c828d016109d0565b995099505060208a013567ffffffffffffffff811115610bfc57600080fd5b610c088c828d01610a9d565b975097505060408a013567ffffffffffffffff811115610c2757600080fd5b610c338c828d01610a9d565b95509550506060610c468c828d016109bb565b93505060808a013567ffffffffffffffff811115610c6357600080fd5b610c6f8c828d01610afc565b92509250509295985092959850929598565b600060208284031215610c9357600080fd5b600082013567ffffffffffffffff811115610cad57600080fd5b610cb984828501610a1a565b91505092915050565b600060208284031215610cd457600080fd5b6000610ce284828501610ae7565b91505092915050565b600060208284031215610cfd57600080fd5b6000610d0b84828501610b46565b91505092915050565b600060208284031215610d2657600080fd5b6000610d3484828501610b5b565b91505092915050565b610d46816110e2565b82525050565b610d5581611088565b82525050565b610d648161109a565b82525050565b6000610d77602683611077565b91507f4f776e61626c653a206e6577206f776e657220697320746865207a65726f206160008301527f64647265737300000000000000000000000000000000000000000000000000006020830152604082019050919050565b6000610ddd601b83611077565b91507f536166654d6174683a206164646974696f6e206f766572666c6f7700000000006000830152602082019050919050565b6000610e1d602083611077565b91507f4f776e61626c653a2063616c6c6572206973206e6f7420746865206f776e65726000830152602082019050919050565b6000610e5d60008361106c565b9150600082019050919050565b6000610e77602283611077565b91507f4d7573742062652063616c6c656420627920746865206c656e64696e6720706f60008301527f6f6c0000000000000000000000000000000000000000000000000000000000006020830152604082019050919050565b610ed9816110d8565b82525050565b6000610eea82610e50565b9150819050919050565b6000602082019050610f096000830184610d4c565b92915050565b6000602082019050610f246000830184610d3d565b92915050565b6000604082019050610f3f6000830185610d3d565b610f4c6020830184610ed0565b9392505050565b6000604082019050610f686000830185610d4c565b610f756020830184610ed0565b9392505050565b6000602082019050610f916000830184610d5b565b92915050565b60006020820190508181036000830152610fb081610d6a565b9050919050565b60006020820190508181036000830152610fd081610dd0565b9050919050565b60006020820190508181036000830152610ff081610e10565b9050919050565b6000602082019050818103600083015261101081610e6a565b9050919050565b6000604051905081810181811067ffffffffffffffff8211171561103a57600080fd5b8060405250919050565b600067ffffffffffffffff82111561105b57600080fd5b602082029050602081019050919050565b600081905092915050565b600082825260208201905092915050565b6000611093826110b8565b9050919050565b60008115159050919050565b60006110b182611088565b9050919050565b600073ffffffffffffffffffffffffffffffffffffffff82169050919050565b6000819050919050565b60006110ed826110f4565b9050919050565b60006110ff82611106565b9050919050565b6000611111826110b8565b9050919050565b61112181611088565b811461112c57600080fd5b50565b6111388161109a565b811461114357600080fd5b50565b61114f816110a6565b811461115a57600080fd5b50565b611166816110d8565b811461117157600080fd5b5056fea2646970667358221220dea06b272c3beb44adb4528d11b0e35c84b21276aa0ec8c8c22d675d3442d31664736f6c634300060c0033",
  "linkReferences": {},
  "deployedLinkReferences": {}
}