{
  "_format": "hh-sol-artifact-1",
  "contractName": "AaveLiquidator",
  "sourceName": "contracts/AaveLiquidator.sol",
  "abi": [
    {
      "inputs": [
        {
          "internalType": "contract IUniswapV2Router02",
          "name": "_quickSwapRouter",
          "type": "address"
        },
        {
          "internalType": "contract ILendingPoolAddressesProvider",
          "name": "_aaveLendingPoolAddressProvider",
          "type": "address"
        }
      ],
      "stateMutability": "nonpayable",
      "type": "constructor"
    },
    {
      "anonymous": false,
      "inputs": [
        {
          "indexed": true,
          "internalType": "address",
          "name": "previousOwner",
          "type": "address"
        },
        {
          "indexed": true,
          "internalType": "address",
          "name": "newOwner",
          "type": "address"
        }
      ],
      "name": "OwnershipTransferred",
      "type": "event"
    },
    {
      "inputs": [
        {
          "internalType": "address[]",
          "name": "addressesToApprove",
          "type": "address[]"
        }
      ],
      "name": "approveAddresses",
      "outputs": [],
      "stateMutability": "nonpayable",
      "type": "function"
    },
    {
      "inputs": [
        {
          "internalType": "address",
          "name": "_asset",
          "type": "address"
        },
        {
          "internalType": "uint256",
          "name": "_amount",
          "type": "uint256"
        }
      ],
      "name": "executeFlashLoan",
      "outputs": [],
      "stateMutability": "nonpayable",
      "type": "function"
    },
    {
      "inputs": [
        {
          "internalType": "address[]",
          "name": "assets",
          "type": "address[]"
        },
        {
          "internalType": "uint256[]",
          "name": "amounts",
          "type": "uint256[]"
        },
        {
          "internalType": "uint256[]",
          "name": "premiums",
          "type": "uint256[]"
        },
        {
          "internalType": "address",
          "name": "initiator",
          "type": "address"
        },
        {
          "internalType": "bytes",
          "name": "params",
          "type": "bytes"
        }
      ],
      "name": "executeOperation",
      "outputs": [
        {
          "internalType": "bool",
          "name": "",
          "type": "bool"
        }
      ],
      "stateMutability": "nonpayable",
      "type": "function"
    },
    {
      "inputs": [
        {
          "internalType": "address",
          "name": "to",
          "type": "address"
        },
        {
          "internalType": "address",
          "name": "_assetIn",
          "type": "address"
        },
        {
          "internalType": "uint256",
          "name": "_amountIn",
          "type": "uint256"
        },
        {
          "internalType": "address",
          "name": "_assetOut",
          "type": "address"
        },
        {
          "internalType": "uint256",
          "name": "amountOutMin",
          "type": "uint256"
        }
      ],
      "name": "executeSwapTokensForTokens",
      "outputs": [],
      "stateMutability": "nonpayable",
      "type": "function"
    },
    {
      "inputs": [
        {
          "internalType": "address",
          "name": "_liquidatedUser",
          "type": "address"
        }
      ],
      "name": "getLiquidatedUserDetails",
      "outputs": [
        {
          "internalType": "address",
          "name": "",
          "type": "address"
        },
        {
          "internalType": "uint256",
          "name": "",
          "type": "uint256"
        },
        {
          "internalType": "address",
          "name": "",
          "type": "address"
        }
      ],
      "stateMutability": "view",
      "type": "function"
    },
    {
      "inputs": [],
      "name": "isOwner",
      "outputs": [
        {
          "internalType": "bool",
          "name": "",
          "type": "bool"
        }
      ],
      "stateMutability": "view",
      "type": "function"
    },
    {
      "inputs": [
        {
          "internalType": "address",
          "name": "_liquidatedUser",
          "type": "address"
        }
      ],
      "name": "liquidateUser",
      "outputs": [],
      "stateMutability": "nonpayable",
      "type": "function"
    },
    {
      "inputs": [],
      "name": "owner",
      "outputs": [
        {
          "internalType": "address",
          "name": "",
          "type": "address"
        }
      ],
      "stateMutability": "view",
      "type": "function"
    },
    {
      "inputs": [],
      "name": "renounceOwnership",
      "outputs": [],
      "stateMutability": "nonpayable",
      "type": "function"
    },
    {
      "inputs": [
        {
          "internalType": "address",
          "name": "newOwner",
          "type": "address"
        }
      ],
      "name": "transferOwnership",
      "outputs": [],
      "stateMutability": "nonpayable",
      "type": "function"
    },
    {
      "inputs": [],
      "name": "withdrawMatic",
      "outputs": [],
      "stateMutability": "payable",
      "type": "function"
    },
    {
      "inputs": [
        {
          "internalType": "contract IERC20",
          "name": "token",
          "type": "address"
        }
      ],
      "name": "withdrawToken",
      "outputs": [],
      "stateMutability": "payable",
      "type": "function"
    },
    {
      "stateMutability": "payable",
      "type": "receive"
    }
  ],
  "bytecode": "0x60806040523480156200001157600080fd5b5060405162003c8d38038062003c8d8339818101604052810190620000379190620004bc565b80806000806101000a81548173ffffffffffffffffffffffffffffffffffffffff021916908373ffffffffffffffffffffffffffffffffffffffff1602179055508073ffffffffffffffffffffffffffffffffffffffff16630261bf8b6040518163ffffffff1660e01b815260040160206040518083038186803b158015620000bf57600080fd5b505afa158015620000d4573d6000803e3d6000fd5b505050506040513d601f19601f82011682018060405250810190620000fa919062000490565b600160006101000a81548173ffffffffffffffffffffffffffffffffffffffff021916908373ffffffffffffffffffffffffffffffffffffffff1602179055505033600260006101000a81548173ffffffffffffffffffffffffffffffffffffffff021916908373ffffffffffffffffffffffffffffffffffffffff160217905550600260009054906101000a900473ffffffffffffffffffffffffffffffffffffffff1673ffffffffffffffffffffffffffffffffffffffff16600073ffffffffffffffffffffffffffffffffffffffff167f8be0079c531659141344cd1fd0a4f28419497f9722a3daafe3b4186f6b6457e060405160405180910390a380600360006101000a81548173ffffffffffffffffffffffffffffffffffffffff021916908373ffffffffffffffffffffffffffffffffffffffff160217905550600360009054906101000a900473ffffffffffffffffffffffffffffffffffffffff1673ffffffffffffffffffffffffffffffffffffffff16630261bf8b6040518163ffffffff1660e01b815260040160206040518083038186803b158015620002a357600080fd5b505afa158015620002b8573d6000803e3d6000fd5b505050506040513d601f19601f82011682018060405250810190620002de919062000490565b600560006101000a81548173ffffffffffffffffffffffffffffffffffffffff021916908373ffffffffffffffffffffffffffffffffffffffff160217905550600360009054906101000a900473ffffffffffffffffffffffffffffffffffffffff1673ffffffffffffffffffffffffffffffffffffffff1663fca513a86040518163ffffffff1660e01b815260040160206040518083038186803b1580156200038757600080fd5b505afa1580156200039c573d6000803e3d6000fd5b505050506040513d601f19601f82011682018060405250810190620003c2919062000490565b600660006101000a81548173ffffffffffffffffffffffffffffffffffffffff021916908373ffffffffffffffffffffffffffffffffffffffff16021790555081600460006101000a81548173ffffffffffffffffffffffffffffffffffffffff021916908373ffffffffffffffffffffffffffffffffffffffff1602179055505050620005a7565b6000815190506200045c8162000559565b92915050565b600081519050620004738162000573565b92915050565b6000815190506200048a816200058d565b92915050565b600060208284031215620004a357600080fd5b6000620004b3848285016200044b565b91505092915050565b60008060408385031215620004d057600080fd5b6000620004e08582860162000479565b9250506020620004f38582860162000462565b9150509250929050565b60006200050a8262000539565b9050919050565b60006200051e82620004fd565b9050919050565b60006200053282620004fd565b9050919050565b600073ffffffffffffffffffffffffffffffffffffffff82169050919050565b6200056481620004fd565b81146200057057600080fd5b50565b6200057e8162000511565b81146200058a57600080fd5b50565b620005988162000525565b8114620005a457600080fd5b50565b6136d680620005b76000396000f3fe6080604052600436106100ab5760003560e01c8063920f5c8411610064578063920f5c8414610173578063a9de965d146101b0578063b8b41974146101d9578063f09769b714610202578063f0f4d0cb14610241578063f2fde38b1461026a576100b2565b80636065c245146100b7578063715018a6146100e0578063810074c6146100f757806389476069146101015780638da5cb5b1461011d5780638f32d59b14610148576100b2565b366100b257005b600080fd5b3480156100c357600080fd5b506100de60048036038101906100d99190612816565b610293565b005b3480156100ec57600080fd5b506100f561054b565b005b6100ff610653565b005b61011b60048036038101906101169190612a75565b610705565b005b34801561012957600080fd5b50610132610865565b60405161013f919061307d565b60405180910390f35b34801561015457600080fd5b5061015d61088f565b60405161016a919061321a565b60405180910390f35b34801561017f57600080fd5b5061019a600480360381019061019591906128a1565b6108e7565b6040516101a7919061321a565b60405180910390f35b3480156101bc57600080fd5b506101d760048036038101906101d2919061279f565b610df8565b005b3480156101e557600080fd5b5061020060048036038101906101fb9190612776565b61113c565b005b34801561020e57600080fd5b5061022960048036038101906102249190612776565b61145b565b604051610238939291906131e3565b60405180910390f35b34801561024d57600080fd5b5061026860048036038101906102639190612989565b611b86565b005b34801561027657600080fd5b50610291600480360381019061028c9190612776565b611c55565b005b60011515600b60003373ffffffffffffffffffffffffffffffffffffffff1673ffffffffffffffffffffffffffffffffffffffff16815260200190815260200160002060009054906101000a900460ff16151514610326576040517f08c379a000000000000000000000000000000000000000000000000000000000815260040161031d90613297565b60405180910390fd5b60003090506060600167ffffffffffffffff8111801561034557600080fd5b506040519080825280602002602001820160405280156103745781602001602082028036833780820191505090505b509050838160008151811061038557fe5b602002602001019073ffffffffffffffffffffffffffffffffffffffff16908173ffffffffffffffffffffffffffffffffffffffff16815250506060600167ffffffffffffffff811180156103d957600080fd5b506040519080825280602002602001820160405280156104085781602001602082028036833780820191505090505b509050838160008151811061041957fe5b6020026020010181815250506060600167ffffffffffffffff8111801561043f57600080fd5b5060405190808252806020026020018201604052801561046e5781602001602082028036833780820191505090505b50905060008160008151811061048057fe5b602002602001018181525050600030905060606040518060200160405280600081525090506000600560009054906101000a900473ffffffffffffffffffffffffffffffffffffffff1673ffffffffffffffffffffffffffffffffffffffff1663ab9c4b5d888888888888886040518863ffffffff1660e01b815260040161050e979695949392919061312f565b600060405180830381600087803b15801561052857600080fd5b505af115801561053c573d6000803e3d6000fd5b50505050505050505050505050565b61055361088f565b610592576040517f08c379a000000000000000000000000000000000000000000000000000000000815260040161058990613317565b60405180910390fd5b600073ffffffffffffffffffffffffffffffffffffffff16600260009054906101000a900473ffffffffffffffffffffffffffffffffffffffff1673ffffffffffffffffffffffffffffffffffffffff167f8be0079c531659141344cd1fd0a4f28419497f9722a3daafe3b4186f6b6457e060405160405180910390a36000600260006101000a81548173ffffffffffffffffffffffffffffffffffffffff021916908373ffffffffffffffffffffffffffffffffffffffff160217905550565b61065b61088f565b61069a576040517f08c379a000000000000000000000000000000000000000000000000000000000815260040161069190613317565b60405180910390fd5b3373ffffffffffffffffffffffffffffffffffffffff16476040516106be90613068565b60006040518083038185875af1925050503d80600081146106fb576040519150601f19603f3d011682016040523d82523d6000602084013e610700565b606091505b505050565b61070d61088f565b61074c576040517f08c379a000000000000000000000000000000000000000000000000000000000815260040161074390613317565b60405180910390fd5b8073ffffffffffffffffffffffffffffffffffffffff1663a9059cbb338373ffffffffffffffffffffffffffffffffffffffff166370a08231306040518263ffffffff1660e01b81526004016107a29190613098565b60206040518083038186803b1580156107ba57600080fd5b505afa1580156107ce573d6000803e3d6000fd5b505050506040513d601f19601f820116820180604052508101906107f29190612af1565b6040518363ffffffff1660e01b815260040161080f9291906130b3565b602060405180830381600087803b15801561082957600080fd5b505af115801561083d573d6000803e3d6000fd5b505050506040513d601f19601f820116820180604052508101906108619190612a4c565b5050565b6000600260009054906101000a900473ffffffffffffffffffffffffffffffffffffffff16905090565b6000600260009054906101000a900473ffffffffffffffffffffffffffffffffffffffff1673ffffffffffffffffffffffffffffffffffffffff163373ffffffffffffffffffffffffffffffffffffffff1614905090565b6000600560009054906101000a900473ffffffffffffffffffffffffffffffffffffffff1673ffffffffffffffffffffffffffffffffffffffff163373ffffffffffffffffffffffffffffffffffffffff1614610979576040517f08c379a000000000000000000000000000000000000000000000000000000000815260040161097090613337565b60405180910390fd5b600860009054906101000a900473ffffffffffffffffffffffffffffffffffffffff1673ffffffffffffffffffffffffffffffffffffffff1663095ea7b3600560009054906101000a900473ffffffffffffffffffffffffffffffffffffffff166009546040518363ffffffff1660e01b81526004016109fa9291906131ba565b602060405180830381600087803b158015610a1457600080fd5b505af1158015610a28573d6000803e3d6000fd5b505050506040513d601f19601f82011682018060405250810190610a4c9190612a4c565b50600560009054906101000a900473ffffffffffffffffffffffffffffffffffffffff1673ffffffffffffffffffffffffffffffffffffffff1662a718a9600a60009054906101000a900473ffffffffffffffffffffffffffffffffffffffff16600860009054906101000a900473ffffffffffffffffffffffffffffffffffffffff16600760009054906101000a900473ffffffffffffffffffffffffffffffffffffffff1660095460006040518663ffffffff1660e01b8152600401610b189594939291906130dc565b600060405180830381600087803b158015610b3257600080fd5b505af1158015610b46573d6000803e3d6000fd5b50505050600860009054906101000a900473ffffffffffffffffffffffffffffffffffffffff1673ffffffffffffffffffffffffffffffffffffffff16600a60009054906101000a900473ffffffffffffffffffffffffffffffffffffffff1673ffffffffffffffffffffffffffffffffffffffff1614610cbf57610cbe30600a60009054906101000a900473ffffffffffffffffffffffffffffffffffffffff16600a60009054906101000a900473ffffffffffffffffffffffffffffffffffffffff1673ffffffffffffffffffffffffffffffffffffffff166370a08231306040518263ffffffff1660e01b8152600401610c439190613098565b60206040518083038186803b158015610c5b57600080fd5b505afa158015610c6f573d6000803e3d6000fd5b505050506040513d601f19601f82011682018060405250810190610c939190612af1565b600860009054906101000a900473ffffffffffffffffffffffffffffffffffffffff16600954610df8565b5b60005b8a8a9050811015610de6576000610d06888884818110610cde57fe5b905060200201358b8b85818110610cf157fe5b90506020020135611ca890919063ffffffff16565b90508b8b83818110610d1457fe5b9050602002016020810190610d299190612776565b73ffffffffffffffffffffffffffffffffffffffff1663095ea7b3600560009054906101000a900473ffffffffffffffffffffffffffffffffffffffff16836040518363ffffffff1660e01b8152600401610d859291906131ba565b602060405180830381600087803b158015610d9f57600080fd5b505af1158015610db3573d6000803e3d6000fd5b505050506040513d601f19601f82011682018060405250810190610dd79190612a4c565b50508080600101915050610cc2565b50600190509998505050505050505050565b60011515600b60003373ffffffffffffffffffffffffffffffffffffffff1673ffffffffffffffffffffffffffffffffffffffff16815260200190815260200160002060009054906101000a900460ff1615151480610ea45750600560009054906101000a900473ffffffffffffffffffffffffffffffffffffffff1673ffffffffffffffffffffffffffffffffffffffff163373ffffffffffffffffffffffffffffffffffffffff16145b610ee3576040517f08c379a0000000000000000000000000000000000000000000000000000000008152600401610eda906132b7565b60405180910390fd5b600061012c420190506060600267ffffffffffffffff81118015610f0657600080fd5b50604051908082528060200260200182016040528015610f355781602001602082028036833780820191505090505b5090508581600081518110610f4657fe5b602002602001019073ffffffffffffffffffffffffffffffffffffffff16908173ffffffffffffffffffffffffffffffffffffffff16815250508381600181518110610f8e57fe5b602002602001019073ffffffffffffffffffffffffffffffffffffffff16908173ffffffffffffffffffffffffffffffffffffffff16815250508573ffffffffffffffffffffffffffffffffffffffff1663095ea7b3600460009054906101000a900473ffffffffffffffffffffffffffffffffffffffff16876040518363ffffffff1660e01b81526004016110259291906131ba565b602060405180830381600087803b15801561103f57600080fd5b505af1158015611053573d6000803e3d6000fd5b505050506040513d601f19601f820116820180604052508101906110779190612a4c565b50600460009054906101000a900473ffffffffffffffffffffffffffffffffffffffff1673ffffffffffffffffffffffffffffffffffffffff166338ed17398685848b876040518663ffffffff1660e01b81526004016110db959493929190613357565b600060405180830381600087803b1580156110f557600080fd5b505af1158015611109573d6000803e3d6000fd5b505050506040513d6000823e3d601f19601f820116820180604052508101906111329190612a0b565b5050505050505050565b60011515600b60003373ffffffffffffffffffffffffffffffffffffffff1673ffffffffffffffffffffffffffffffffffffffff16815260200190815260200160002060009054906101000a900460ff161515146111cf576040517f08c379a00000000000000000000000000000000000000000000000000000000081526004016111c690613297565b60405180910390fd5b6000600560009054906101000a900473ffffffffffffffffffffffffffffffffffffffff1673ffffffffffffffffffffffffffffffffffffffff1663bf92857c836040518263ffffffff1660e01b815260040161122c919061307d565b60c06040518083038186803b15801561124457600080fd5b505afa158015611258573d6000803e3d6000fd5b505050506040513d601f19601f8201168201806040525081019061127c9190612b1a565b95505050505050670de0b6b3a764000081106112cd576040517f08c379a00000000000000000000000000000000000000000000000000000000081526004016112c4906132f7565b60405180910390fd5b3073ffffffffffffffffffffffffffffffffffffffff1663f09769b7836040518263ffffffff1660e01b8152600401611306919061307d565b60606040518083038186803b15801561131e57600080fd5b505afa158015611332573d6000803e3d6000fd5b505050506040513d601f19601f820116820180604052508101906113569190612852565b6008600060096000600a60008691906101000a81548173ffffffffffffffffffffffffffffffffffffffff021916908373ffffffffffffffffffffffffffffffffffffffff16021790555085919050558491906101000a81548173ffffffffffffffffffffffffffffffffffffffff021916908373ffffffffffffffffffffffffffffffffffffffff16021790555050505081600760006101000a81548173ffffffffffffffffffffffffffffffffffffffff021916908373ffffffffffffffffffffffffffffffffffffffff160217905550611457600860009054906101000a900473ffffffffffffffffffffffffffffffffffffffff16600954610293565b5050565b6000806000611468612073565b6060600560009054906101000a900473ffffffffffffffffffffffffffffffffffffffff1673ffffffffffffffffffffffffffffffffffffffff1663d1946dbc6040518163ffffffff1660e01b815260040160006040518083038186803b1580156114d257600080fd5b505afa1580156114e6573d6000803e3d6000fd5b505050506040513d6000823e3d601f19601f8201168201806040525081019061150f91906129ca565b905061151961217b565b600560009054906101000a900473ffffffffffffffffffffffffffffffffffffffff1673ffffffffffffffffffffffffffffffffffffffff16634417a583886040518263ffffffff1660e01b8152600401611574919061307d565b60206040518083038186803b15801561158c57600080fd5b505afa1580156115a0573d6000803e3d6000fd5b505050506040513d601f19601f820116820180604052508101906115c49190612ac8565b905060005b8251811015611ad6576115da61218e565b600560009054906101000a900473ffffffffffffffffffffffffffffffffffffffff1673ffffffffffffffffffffffffffffffffffffffff166335ea6a7585848151811061162457fe5b60200260200101516040518263ffffffff1660e01b8152600401611648919061307d565b6101806040518083038186803b15801561166157600080fd5b505afa158015611675573d6000803e3d6000fd5b505050506040513d601f19601f820116820180604052508101906116999190612a9e565b90506116a88160000151611cfd565b9091929350909192509091505085610100018181525050846101000151600a0a85610120018181525050600660009054906101000a900473ffffffffffffffffffffffffffffffffffffffff1673ffffffffffffffffffffffffffffffffffffffff1663b3596f0785848151811061171c57fe5b60200260200101516040518263ffffffff1660e01b8152600401611740919061307d565b60206040518083038186803b15801561175857600080fd5b505afa15801561176c573d6000803e3d6000fd5b505050506040513d601f19601f820116820180604052508101906117909190612af1565b856101400181815250506117a48383611df0565b15611939578382815181106117b557fe5b602002602001015185610160019073ffffffffffffffffffffffffffffffffffffffff16908173ffffffffffffffffffffffffffffffffffffffff168152505080610120015173ffffffffffffffffffffffffffffffffffffffff166370a082318a6040518263ffffffff1660e01b8152600401611833919061307d565b60206040518083038186803b15801561184b57600080fd5b505afa15801561185f573d6000803e3d6000fd5b505050506040513d601f19601f820116820180604052508101906118839190612af1565b856101800181815250506118c18561012001516118b3876101800151886101400151611e0b90919063ffffffff16565b611e7b90919063ffffffff16565b856101a00181815250508460a00151856101a00151111561193857846101600151856060019073ffffffffffffffffffffffffffffffffffffffff16908173ffffffffffffffffffffffffffffffffffffffff1681525050846101800151856080018181525050846101a001518560a00181815250505b5b6119438383611ec5565b15611ac85783828151811061195457fe5b6020026020010151856101c0019073ffffffffffffffffffffffffffffffffffffffff16908173ffffffffffffffffffffffffffffffffffffffff16815250508060e0015173ffffffffffffffffffffffffffffffffffffffff166370a082318a6040518263ffffffff1660e01b81526004016119d1919061307d565b60206040518083038186803b1580156119e957600080fd5b505afa1580156119fd573d6000803e3d6000fd5b505050506040513d601f19601f82011682018060405250810190611a219190612af1565b856101e0018181525050611a5f856101200151611a51876101e00151886101400151611e0b90919063ffffffff16565b611e7b90919063ffffffff16565b856102000181815250508460e001518561020001511115611ac757846101c001518560c0019073ffffffffffffffffffffffffffffffffffffffff16908173ffffffffffffffffffffffffffffffffffffffff16815250508461020001518560e00181815250505b5b5080806001019150506115c9565b508260600151836000019073ffffffffffffffffffffffffffffffffffffffff16908173ffffffffffffffffffffffffffffffffffffffff16815250506002836080015181611b2157fe5b048360200181815250508260c00151836040019073ffffffffffffffffffffffffffffffffffffffff16908173ffffffffffffffffffffffffffffffffffffffff16815250508260000151836020015184604001519550955095505050509193909250565b611b8e61088f565b611bcd576040517f08c379a0000000000000000000000000000000000000000000000000000000008152600401611bc490613317565b60405180910390fd5b60005b8151811015611c51576001600b6000848481518110611beb57fe5b602002602001015173ffffffffffffffffffffffffffffffffffffffff1673ffffffffffffffffffffffffffffffffffffffff16815260200190815260200160002060006101000a81548160ff0219169083151502179055508080600101915050611bd0565b5050565b611c5d61088f565b611c9c576040517f08c379a0000000000000000000000000000000000000000000000000000000008152600401611c9390613317565b60405180910390fd5b611ca581611ee2565b50565b600080828401905083811015611cf3576040517f08c379a0000000000000000000000000000000000000000000000000000000008152600401611cea90613277565b60405180910390fd5b8091505092915050565b60008060008060007fffffffffffffffffffffffffffffffffffffffffffffffffffffffffffff00001986600001511660107fffffffffffffffffffffffffffffffffffffffffffffffffffffffff0000ffff19886000015116901c60207fffffffffffffffffffffffffffffffffffffffffffffffffffff0000ffffffff19896000015116901c60307fffffffffffffffffffffffffffffffffffffffffffffffffff00ffffffffffff198a6000015116901c60407fffffffffffffffffffffffffffffffffffffffffffff0000ffffffffffffffff198b6000015116901c9450945094509450945091939590929450565b6000806001600284028560000151901c161415905092915050565b600080831415611e1e5760009050611e75565b6000828402905082848281611e2f57fe5b0414611e70576040517f08c379a0000000000000000000000000000000000000000000000000000000008152600401611e67906132d7565b60405180910390fd5b809150505b92915050565b6000611ebd83836040518060400160405280601a81526020017f536166654d6174683a206469766973696f6e206279207a65726f000000000000815250612012565b905092915050565b60008060018060028502018560000151901c161415905092915050565b600073ffffffffffffffffffffffffffffffffffffffff168173ffffffffffffffffffffffffffffffffffffffff161415611f52576040517f08c379a0000000000000000000000000000000000000000000000000000000008152600401611f4990613257565b60405180910390fd5b8073ffffffffffffffffffffffffffffffffffffffff16600260009054906101000a900473ffffffffffffffffffffffffffffffffffffffff1673ffffffffffffffffffffffffffffffffffffffff167f8be0079c531659141344cd1fd0a4f28419497f9722a3daafe3b4186f6b6457e060405160405180910390a380600260006101000a81548173ffffffffffffffffffffffffffffffffffffffff021916908373ffffffffffffffffffffffffffffffffffffffff16021790555050565b60008083118290612059576040517f08c379a00000000000000000000000000000000000000000000000000000000081526004016120509190613235565b60405180910390fd5b50600083858161206557fe5b049050809150509392505050565b604051806102200160405280600073ffffffffffffffffffffffffffffffffffffffff16815260200160008152602001600073ffffffffffffffffffffffffffffffffffffffff168152602001600073ffffffffffffffffffffffffffffffffffffffff1681526020016000815260200160008152602001600073ffffffffffffffffffffffffffffffffffffffff16815260200160008152602001600081526020016000815260200160008152602001600073ffffffffffffffffffffffffffffffffffffffff1681526020016000815260200160008152602001600073ffffffffffffffffffffffffffffffffffffffff16815260200160008152602001600081525090565b6040518060200160405280600081525090565b6040518061018001604052806121a26122b1565b815260200160006fffffffffffffffffffffffffffffffff16815260200160006fffffffffffffffffffffffffffffffff16815260200160006fffffffffffffffffffffffffffffffff16815260200160006fffffffffffffffffffffffffffffffff16815260200160006fffffffffffffffffffffffffffffffff168152602001600064ffffffffff168152602001600073ffffffffffffffffffffffffffffffffffffffff168152602001600073ffffffffffffffffffffffffffffffffffffffff168152602001600073ffffffffffffffffffffffffffffffffffffffff168152602001600073ffffffffffffffffffffffffffffffffffffffff168152602001600060ff1681525090565b6040518060200160405280600081525090565b6000813590506122d3816135ff565b92915050565b6000815190506122e8816135ff565b92915050565b60008083601f84011261230057600080fd5b8235905067ffffffffffffffff81111561231957600080fd5b60208301915083602082028301111561233157600080fd5b9250929050565b600082601f83011261234957600080fd5b813561235c612357826133de565b6133b1565b9150818183526020840193506020810190508385602084028201111561238157600080fd5b60005b838110156123b1578161239788826122c4565b845260208401935060208301925050600181019050612384565b5050505092915050565b600082601f8301126123cc57600080fd5b81516123df6123da826133de565b6133b1565b9150818183526020840193506020810190508385602084028201111561240457600080fd5b60005b83811015612434578161241a88826122d9565b845260208401935060208301925050600181019050612407565b5050505092915050565b60008083601f84011261245057600080fd5b8235905067ffffffffffffffff81111561246957600080fd5b60208301915083602082028301111561248157600080fd5b9250929050565b600082601f83011261249957600080fd5b81516124ac6124a782613406565b6133b1565b915081818352602084019350602081019050838560208402820111156124d157600080fd5b60005b8381101561250157816124e78882612737565b8452602084019350602083019250506001810190506124d4565b5050505092915050565b60008151905061251a81613616565b92915050565b60008083601f84011261253257600080fd5b8235905067ffffffffffffffff81111561254b57600080fd5b60208301915083600182028301111561256357600080fd5b9250929050565b6000813590506125798161362d565b92915050565b60006020828403121561259157600080fd5b61259b60206133b1565b905060006125ab84828501612737565b60008301525092915050565b600061018082840312156125ca57600080fd5b6125d56101806133b1565b905060006125e58482850161257f565b60008301525060206125f98482850161270d565b602083015250604061260d8482850161270d565b60408301525060606126218482850161270d565b60608301525060806126358482850161270d565b60808301525060a06126498482850161270d565b60a08301525060c061265d8482850161274c565b60c08301525060e0612671848285016122d9565b60e083015250610100612686848285016122d9565b6101008301525061012061269c848285016122d9565b610120830152506101406126b2848285016122d9565b610140830152506101606126c884828501612761565b6101608301525092915050565b6000602082840312156126e757600080fd5b6126f160206133b1565b9050600061270184828501612737565b60008301525092915050565b60008151905061271c81613644565b92915050565b6000813590506127318161365b565b92915050565b6000815190506127468161365b565b92915050565b60008151905061275b81613672565b92915050565b60008151905061277081613689565b92915050565b60006020828403121561278857600080fd5b6000612796848285016122c4565b91505092915050565b600080600080600060a086880312156127b757600080fd5b60006127c5888289016122c4565b95505060206127d6888289016122c4565b94505060406127e788828901612722565b93505060606127f8888289016122c4565b925050608061280988828901612722565b9150509295509295909350565b6000806040838503121561282957600080fd5b6000612837858286016122c4565b925050602061284885828601612722565b9150509250929050565b60008060006060848603121561286757600080fd5b6000612875868287016122d9565b935050602061288686828701612737565b9250506040612897868287016122d9565b9150509250925092565b600080600080600080600080600060a08a8c0312156128bf57600080fd5b60008a013567ffffffffffffffff8111156128d957600080fd5b6128e58c828d016122ee565b995099505060208a013567ffffffffffffffff81111561290457600080fd5b6129108c828d0161243e565b975097505060408a013567ffffffffffffffff81111561292f57600080fd5b61293b8c828d0161243e565b9550955050606061294e8c828d016122c4565b93505060808a013567ffffffffffffffff81111561296b57600080fd5b6129778c828d01612520565b92509250509295985092959850929598565b60006020828403121561299b57600080fd5b600082013567ffffffffffffffff8111156129b557600080fd5b6129c184828501612338565b91505092915050565b6000602082840312156129dc57600080fd5b600082015167ffffffffffffffff8111156129f657600080fd5b612a02848285016123bb565b91505092915050565b600060208284031215612a1d57600080fd5b600082015167ffffffffffffffff811115612a3757600080fd5b612a4384828501612488565b91505092915050565b600060208284031215612a5e57600080fd5b6000612a6c8482850161250b565b91505092915050565b600060208284031215612a8757600080fd5b6000612a958482850161256a565b91505092915050565b60006101808284031215612ab157600080fd5b6000612abf848285016125b7565b91505092915050565b600060208284031215612ada57600080fd5b6000612ae8848285016126d5565b91505092915050565b600060208284031215612b0357600080fd5b6000612b1184828501612737565b91505092915050565b60008060008060008060c08789031215612b3357600080fd5b6000612b4189828a01612737565b9650506020612b5289828a01612737565b9550506040612b6389828a01612737565b9450506060612b7489828a01612737565b9350506080612b8589828a01612737565b92505060a0612b9689828a01612737565b9150509295509295509295565b6000612baf8383612be2565b60208301905092915050565b6000612bc7838361304a565b60208301905092915050565b612bdc81613585565b82525050565b612beb816134e3565b82525050565b612bfa816134e3565b82525050565b6000612c0b8261344e565b612c158185613494565b9350612c208361342e565b8060005b83811015612c51578151612c388882612ba3565b9750612c438361347a565b925050600181019050612c24565b5085935050505092915050565b6000612c6982613459565b612c7381856134a5565b9350612c7e8361343e565b8060005b83811015612caf578151612c968882612bbb565b9750612ca183613487565b925050600181019050612c82565b5085935050505092915050565b612cc5816134f5565b82525050565b6000612cd682613464565b612ce081856134b6565b9350612cf08185602086016135bb565b612cf9816135ee565b840191505092915050565b6000612d0f8261346f565b612d1981856134d2565b9350612d298185602086016135bb565b612d32816135ee565b840191505092915050565b6000612d4a6026836134d2565b91507f4f776e61626c653a206e6577206f776e657220697320746865207a65726f206160008301527f64647265737300000000000000000000000000000000000000000000000000006020830152604082019050919050565b6000612db0601b836134d2565b91507f536166654d6174683a206164646974696f6e206f766572666c6f7700000000006000830152602082019050919050565b6000612df06024836134d2565b91507f4d7573742062652063616c6c656420627920617070726f76656420616464726560008301527f73736573000000000000000000000000000000000000000000000000000000006020830152604082019050919050565b6000612e566037836134d2565b91507f4d7573742062652063616c6c656420627920617070726f76656420616464726560008301527f73736573206f72206279206c656e64696e6720706f6f6c0000000000000000006020830152604082019050919050565b6000612ebc6021836134d2565b91507f536166654d6174683a206d756c7469706c69636174696f6e206f766572666c6f60008301527f77000000000000000000000000000000000000000000000000000000000000006020830152604082019050919050565b6000612f226022836134d2565b91507f4865616c746820666163746f72206d757374206265206c6f776572207468616e60008301527f20310000000000000000000000000000000000000000000000000000000000006020830152604082019050919050565b6000612f886020836134d2565b91507f4f776e61626c653a2063616c6c6572206973206e6f7420746865206f776e65726000830152602082019050919050565b6000612fc86000836134c7565b9150600082019050919050565b6000612fe26022836134d2565b91507f4d7573742062652063616c6c656420627920746865206c656e64696e6720706f60008301527f6f6c0000000000000000000000000000000000000000000000000000000000006020830152604082019050919050565b6130448161352f565b82525050565b6130538161355d565b82525050565b6130628161355d565b82525050565b600061307382612fbb565b9150819050919050565b60006020820190506130926000830184612bf1565b92915050565b60006020820190506130ad6000830184612bd3565b92915050565b60006040820190506130c86000830185612bd3565b6130d56020830184613059565b9392505050565b600060a0820190506130f16000830188612bf1565b6130fe6020830187612bf1565b61310b6040830186612bf1565b6131186060830185613059565b6131256080830184612cbc565b9695505050505050565b600060e082019050613144600083018a612bf1565b81810360208301526131568189612c00565b9050818103604083015261316a8188612c5e565b9050818103606083015261317e8187612c5e565b905061318d6080830186612bf1565b81810360a083015261319f8185612ccb565b90506131ae60c083018461303b565b98975050505050505050565b60006040820190506131cf6000830185612bf1565b6131dc6020830184613059565b9392505050565b60006060820190506131f86000830186612bf1565b6132056020830185613059565b6132126040830184612bf1565b949350505050565b600060208201905061322f6000830184612cbc565b92915050565b6000602082019050818103600083015261324f8184612d04565b905092915050565b6000602082019050818103600083015261327081612d3d565b9050919050565b6000602082019050818103600083015261329081612da3565b9050919050565b600060208201905081810360008301526132b081612de3565b9050919050565b600060208201905081810360008301526132d081612e49565b9050919050565b600060208201905081810360008301526132f081612eaf565b9050919050565b6000602082019050818103600083015261331081612f15565b9050919050565b6000602082019050818103600083015261333081612f7b565b9050919050565b6000602082019050818103600083015261335081612fd5565b9050919050565b600060a08201905061336c6000830188613059565b6133796020830187613059565b818103604083015261338b8186612c00565b905061339a6060830185612bf1565b6133a76080830184613059565b9695505050505050565b6000604051905081810181811067ffffffffffffffff821117156133d457600080fd5b8060405250919050565b600067ffffffffffffffff8211156133f557600080fd5b602082029050602081019050919050565b600067ffffffffffffffff82111561341d57600080fd5b602082029050602081019050919050565b6000819050602082019050919050565b6000819050602082019050919050565b600081519050919050565b600081519050919050565b600081519050919050565b600081519050919050565b6000602082019050919050565b6000602082019050919050565b600082825260208201905092915050565b600082825260208201905092915050565b600082825260208201905092915050565b600081905092915050565b600082825260208201905092915050565b60006134ee8261353d565b9050919050565b60008115159050919050565b600061350c826134e3565b9050919050565b60006fffffffffffffffffffffffffffffffff82169050919050565b600061ffff82169050919050565b600073ffffffffffffffffffffffffffffffffffffffff82169050919050565b6000819050919050565b600064ffffffffff82169050919050565b600060ff82169050919050565b600061359082613597565b9050919050565b60006135a2826135a9565b9050919050565b60006135b48261353d565b9050919050565b60005b838110156135d95780820151818401526020810190506135be565b838111156135e8576000848401525b50505050565b6000601f19601f8301169050919050565b613608816134e3565b811461361357600080fd5b50565b61361f816134f5565b811461362a57600080fd5b50565b61363681613501565b811461364157600080fd5b50565b61364d81613513565b811461365857600080fd5b50565b6136648161355d565b811461366f57600080fd5b50565b61367b81613567565b811461368657600080fd5b50565b61369281613578565b811461369d57600080fd5b5056fea26469706673582212201160a92ec72bed93d8eeaea698a8b7a07be74f3ac22595bdb93831ec2cab63d864736f6c634300060c0033",
  "linkReferences": {},
  "deployedLinkReferences": {}
}