{
  "_format": "hh-sol-artifact-1",
  "contractName": "AaveLiquidator",
  "sourceName": "contracts/AaveLiquidator.sol",
  "abi": [
    {
      "inputs": [
        {
          "internalType": "contract IUniswapV2Router02",
          "name": "_quickSwapRouter",
          "type": "address"
        },
        {
          "internalType": "contract ILendingPoolAddressesProvider",
          "name": "_aaveLendingPoolAddressProvider",
          "type": "address"
        }
      ],
      "stateMutability": "nonpayable",
      "type": "constructor"
    },
    {
      "anonymous": false,
      "inputs": [
        {
          "indexed": true,
          "internalType": "address",
          "name": "previousOwner",
          "type": "address"
        },
        {
          "indexed": true,
          "internalType": "address",
          "name": "newOwner",
          "type": "address"
        }
      ],
      "name": "OwnershipTransferred",
      "type": "event"
    },
    {
      "inputs": [
        {
          "internalType": "address[]",
          "name": "addressesToApprove",
          "type": "address[]"
        }
      ],
      "name": "approveAddresses",
      "outputs": [],
      "stateMutability": "nonpayable",
      "type": "function"
    },
    {
      "inputs": [
        {
          "internalType": "address",
          "name": "_asset",
          "type": "address"
        },
        {
          "internalType": "uint256",
          "name": "_amount",
          "type": "uint256"
        }
      ],
      "name": "executeFlashLoan",
      "outputs": [],
      "stateMutability": "nonpayable",
      "type": "function"
    },
    {
      "inputs": [
        {
          "internalType": "address[]",
          "name": "assets",
          "type": "address[]"
        },
        {
          "internalType": "uint256[]",
          "name": "amounts",
          "type": "uint256[]"
        },
        {
          "internalType": "uint256[]",
          "name": "premiums",
          "type": "uint256[]"
        },
        {
          "internalType": "address",
          "name": "initiator",
          "type": "address"
        },
        {
          "internalType": "bytes",
          "name": "params",
          "type": "bytes"
        }
      ],
      "name": "executeOperation",
      "outputs": [
        {
          "internalType": "bool",
          "name": "",
          "type": "bool"
        }
      ],
      "stateMutability": "nonpayable",
      "type": "function"
    },
    {
      "inputs": [
        {
          "internalType": "address",
          "name": "to",
          "type": "address"
        },
        {
          "internalType": "address",
          "name": "_assetIn",
          "type": "address"
        },
        {
          "internalType": "uint256",
          "name": "_amountIn",
          "type": "uint256"
        },
        {
          "internalType": "address",
          "name": "_assetOut",
          "type": "address"
        },
        {
          "internalType": "uint256",
          "name": "amountOutMin",
          "type": "uint256"
        }
      ],
      "name": "executeSwapTokensForTokens",
      "outputs": [],
      "stateMutability": "nonpayable",
      "type": "function"
    },
    {
      "inputs": [
        {
          "internalType": "address",
          "name": "_liquidatedUser",
          "type": "address"
        }
      ],
      "name": "getLiquidatedUserDetails",
      "outputs": [
        {
          "internalType": "address",
          "name": "",
          "type": "address"
        },
        {
          "internalType": "uint256",
          "name": "",
          "type": "uint256"
        },
        {
          "internalType": "address",
          "name": "",
          "type": "address"
        }
      ],
      "stateMutability": "view",
      "type": "function"
    },
    {
      "inputs": [],
      "name": "isOwner",
      "outputs": [
        {
          "internalType": "bool",
          "name": "",
          "type": "bool"
        }
      ],
      "stateMutability": "view",
      "type": "function"
    },
    {
      "inputs": [
        {
          "internalType": "address",
          "name": "_liquidatedUser",
          "type": "address"
        }
      ],
      "name": "liquidateUser",
      "outputs": [],
      "stateMutability": "nonpayable",
      "type": "function"
    },
    {
      "inputs": [],
      "name": "owner",
      "outputs": [
        {
          "internalType": "address",
          "name": "",
          "type": "address"
        }
      ],
      "stateMutability": "view",
      "type": "function"
    },
    {
      "inputs": [],
      "name": "renounceOwnership",
      "outputs": [],
      "stateMutability": "nonpayable",
      "type": "function"
    },
    {
      "inputs": [
        {
          "internalType": "address",
          "name": "newOwner",
          "type": "address"
        }
      ],
      "name": "transferOwnership",
      "outputs": [],
      "stateMutability": "nonpayable",
      "type": "function"
    },
    {
      "inputs": [],
      "name": "withdrawMatic",
      "outputs": [],
      "stateMutability": "payable",
      "type": "function"
    },
    {
      "inputs": [
        {
          "internalType": "contract IERC20",
          "name": "token",
          "type": "address"
        }
      ],
      "name": "withdrawToken",
      "outputs": [],
      "stateMutability": "payable",
      "type": "function"
    },
    {
      "stateMutability": "payable",
      "type": "receive"
    }
  ],
  "bytecode": "0x60806040523480156200001157600080fd5b5060405162003c1538038062003c158339818101604052810190620000379190620004bc565b80806000806101000a81548173ffffffffffffffffffffffffffffffffffffffff021916908373ffffffffffffffffffffffffffffffffffffffff1602179055508073ffffffffffffffffffffffffffffffffffffffff16630261bf8b6040518163ffffffff1660e01b815260040160206040518083038186803b158015620000bf57600080fd5b505afa158015620000d4573d6000803e3d6000fd5b505050506040513d601f19601f82011682018060405250810190620000fa919062000490565b600160006101000a81548173ffffffffffffffffffffffffffffffffffffffff021916908373ffffffffffffffffffffffffffffffffffffffff1602179055505033600260006101000a81548173ffffffffffffffffffffffffffffffffffffffff021916908373ffffffffffffffffffffffffffffffffffffffff160217905550600260009054906101000a900473ffffffffffffffffffffffffffffffffffffffff1673ffffffffffffffffffffffffffffffffffffffff16600073ffffffffffffffffffffffffffffffffffffffff167f8be0079c531659141344cd1fd0a4f28419497f9722a3daafe3b4186f6b6457e060405160405180910390a380600360006101000a81548173ffffffffffffffffffffffffffffffffffffffff021916908373ffffffffffffffffffffffffffffffffffffffff160217905550600360009054906101000a900473ffffffffffffffffffffffffffffffffffffffff1673ffffffffffffffffffffffffffffffffffffffff16630261bf8b6040518163ffffffff1660e01b815260040160206040518083038186803b158015620002a357600080fd5b505afa158015620002b8573d6000803e3d6000fd5b505050506040513d601f19601f82011682018060405250810190620002de919062000490565b600560006101000a81548173ffffffffffffffffffffffffffffffffffffffff021916908373ffffffffffffffffffffffffffffffffffffffff160217905550600360009054906101000a900473ffffffffffffffffffffffffffffffffffffffff1673ffffffffffffffffffffffffffffffffffffffff1663fca513a86040518163ffffffff1660e01b815260040160206040518083038186803b1580156200038757600080fd5b505afa1580156200039c573d6000803e3d6000fd5b505050506040513d601f19601f82011682018060405250810190620003c2919062000490565b600660006101000a81548173ffffffffffffffffffffffffffffffffffffffff021916908373ffffffffffffffffffffffffffffffffffffffff16021790555081600460006101000a81548173ffffffffffffffffffffffffffffffffffffffff021916908373ffffffffffffffffffffffffffffffffffffffff1602179055505050620005a7565b6000815190506200045c8162000559565b92915050565b600081519050620004738162000573565b92915050565b6000815190506200048a816200058d565b92915050565b600060208284031215620004a357600080fd5b6000620004b3848285016200044b565b91505092915050565b60008060408385031215620004d057600080fd5b6000620004e08582860162000479565b9250506020620004f38582860162000462565b9150509250929050565b60006200050a8262000539565b9050919050565b60006200051e82620004fd565b9050919050565b60006200053282620004fd565b9050919050565b600073ffffffffffffffffffffffffffffffffffffffff82169050919050565b6200056481620004fd565b81146200057057600080fd5b50565b6200057e8162000511565b81146200058a57600080fd5b50565b620005988162000525565b8114620005a457600080fd5b50565b61365e80620005b76000396000f3fe6080604052600436106100ab5760003560e01c8063920f5c8411610064578063920f5c8414610173578063a9de965d146101b0578063b8b41974146101d9578063f09769b714610202578063f0f4d0cb14610241578063f2fde38b1461026a576100b2565b80636065c245146100b7578063715018a6146100e0578063810074c6146100f757806389476069146101015780638da5cb5b1461011d5780638f32d59b14610148576100b2565b366100b257005b600080fd5b3480156100c357600080fd5b506100de60048036038101906100d9919061279e565b610293565b005b3480156100ec57600080fd5b506100f561054b565b005b6100ff610653565b005b61011b600480360381019061011691906129fd565b610705565b005b34801561012957600080fd5b50610132610865565b60405161013f9190613005565b60405180910390f35b34801561015457600080fd5b5061015d61088f565b60405161016a91906131a2565b60405180910390f35b34801561017f57600080fd5b5061019a60048036038101906101959190612829565b6108e7565b6040516101a791906131a2565b60405180910390f35b3480156101bc57600080fd5b506101d760048036038101906101d29190612727565b610d80565b005b3480156101e557600080fd5b5061020060048036038101906101fb91906126fe565b6110c4565b005b34801561020e57600080fd5b50610229600480360381019061022491906126fe565b6113e3565b6040516102389392919061316b565b60405180910390f35b34801561024d57600080fd5b5061026860048036038101906102639190612911565b611b0e565b005b34801561027657600080fd5b50610291600480360381019061028c91906126fe565b611bdd565b005b60011515600b60003373ffffffffffffffffffffffffffffffffffffffff1673ffffffffffffffffffffffffffffffffffffffff16815260200190815260200160002060009054906101000a900460ff16151514610326576040517f08c379a000000000000000000000000000000000000000000000000000000000815260040161031d9061321f565b60405180910390fd5b60003090506060600167ffffffffffffffff8111801561034557600080fd5b506040519080825280602002602001820160405280156103745781602001602082028036833780820191505090505b509050838160008151811061038557fe5b602002602001019073ffffffffffffffffffffffffffffffffffffffff16908173ffffffffffffffffffffffffffffffffffffffff16815250506060600167ffffffffffffffff811180156103d957600080fd5b506040519080825280602002602001820160405280156104085781602001602082028036833780820191505090505b509050838160008151811061041957fe5b6020026020010181815250506060600167ffffffffffffffff8111801561043f57600080fd5b5060405190808252806020026020018201604052801561046e5781602001602082028036833780820191505090505b50905060008160008151811061048057fe5b602002602001018181525050600030905060606040518060200160405280600081525090506000600560009054906101000a900473ffffffffffffffffffffffffffffffffffffffff1673ffffffffffffffffffffffffffffffffffffffff1663ab9c4b5d888888888888886040518863ffffffff1660e01b815260040161050e97969594939291906130b7565b600060405180830381600087803b15801561052857600080fd5b505af115801561053c573d6000803e3d6000fd5b50505050505050505050505050565b61055361088f565b610592576040517f08c379a00000000000000000000000000000000000000000000000000000000081526004016105899061329f565b60405180910390fd5b600073ffffffffffffffffffffffffffffffffffffffff16600260009054906101000a900473ffffffffffffffffffffffffffffffffffffffff1673ffffffffffffffffffffffffffffffffffffffff167f8be0079c531659141344cd1fd0a4f28419497f9722a3daafe3b4186f6b6457e060405160405180910390a36000600260006101000a81548173ffffffffffffffffffffffffffffffffffffffff021916908373ffffffffffffffffffffffffffffffffffffffff160217905550565b61065b61088f565b61069a576040517f08c379a00000000000000000000000000000000000000000000000000000000081526004016106919061329f565b60405180910390fd5b3373ffffffffffffffffffffffffffffffffffffffff16476040516106be90612ff0565b60006040518083038185875af1925050503d80600081146106fb576040519150601f19603f3d011682016040523d82523d6000602084013e610700565b606091505b505050565b61070d61088f565b61074c576040517f08c379a00000000000000000000000000000000000000000000000000000000081526004016107439061329f565b60405180910390fd5b8073ffffffffffffffffffffffffffffffffffffffff1663a9059cbb338373ffffffffffffffffffffffffffffffffffffffff166370a08231306040518263ffffffff1660e01b81526004016107a29190613020565b60206040518083038186803b1580156107ba57600080fd5b505afa1580156107ce573d6000803e3d6000fd5b505050506040513d601f19601f820116820180604052508101906107f29190612a79565b6040518363ffffffff1660e01b815260040161080f92919061303b565b602060405180830381600087803b15801561082957600080fd5b505af115801561083d573d6000803e3d6000fd5b505050506040513d601f19601f8201168201806040525081019061086191906129d4565b5050565b6000600260009054906101000a900473ffffffffffffffffffffffffffffffffffffffff16905090565b6000600260009054906101000a900473ffffffffffffffffffffffffffffffffffffffff1673ffffffffffffffffffffffffffffffffffffffff163373ffffffffffffffffffffffffffffffffffffffff1614905090565b6000600560009054906101000a900473ffffffffffffffffffffffffffffffffffffffff1673ffffffffffffffffffffffffffffffffffffffff163373ffffffffffffffffffffffffffffffffffffffff1614610979576040517f08c379a0000000000000000000000000000000000000000000000000000000008152600401610970906132bf565b60405180910390fd5b600860009054906101000a900473ffffffffffffffffffffffffffffffffffffffff1673ffffffffffffffffffffffffffffffffffffffff1663095ea7b3600560009054906101000a900473ffffffffffffffffffffffffffffffffffffffff166009546040518363ffffffff1660e01b81526004016109fa929190613142565b602060405180830381600087803b158015610a1457600080fd5b505af1158015610a28573d6000803e3d6000fd5b505050506040513d601f19601f82011682018060405250810190610a4c91906129d4565b50600560009054906101000a900473ffffffffffffffffffffffffffffffffffffffff1673ffffffffffffffffffffffffffffffffffffffff1662a718a9600a60009054906101000a900473ffffffffffffffffffffffffffffffffffffffff16600860009054906101000a900473ffffffffffffffffffffffffffffffffffffffff16600760009054906101000a900473ffffffffffffffffffffffffffffffffffffffff1660095460006040518663ffffffff1660e01b8152600401610b18959493929190613064565b600060405180830381600087803b158015610b3257600080fd5b505af1158015610b46573d6000803e3d6000fd5b50505050610c4730600a60009054906101000a900473ffffffffffffffffffffffffffffffffffffffff16600a60009054906101000a900473ffffffffffffffffffffffffffffffffffffffff1673ffffffffffffffffffffffffffffffffffffffff166370a08231306040518263ffffffff1660e01b8152600401610bcc9190613020565b60206040518083038186803b158015610be457600080fd5b505afa158015610bf8573d6000803e3d6000fd5b505050506040513d601f19601f82011682018060405250810190610c1c9190612a79565b600860009054906101000a900473ffffffffffffffffffffffffffffffffffffffff16600954610d80565b60005b8a8a9050811015610d6e576000610c8e888884818110610c6657fe5b905060200201358b8b85818110610c7957fe5b90506020020135611c3090919063ffffffff16565b90508b8b83818110610c9c57fe5b9050602002016020810190610cb191906126fe565b73ffffffffffffffffffffffffffffffffffffffff1663095ea7b3600560009054906101000a900473ffffffffffffffffffffffffffffffffffffffff16836040518363ffffffff1660e01b8152600401610d0d929190613142565b602060405180830381600087803b158015610d2757600080fd5b505af1158015610d3b573d6000803e3d6000fd5b505050506040513d601f19601f82011682018060405250810190610d5f91906129d4565b50508080600101915050610c4a565b50600190509998505050505050505050565b60011515600b60003373ffffffffffffffffffffffffffffffffffffffff1673ffffffffffffffffffffffffffffffffffffffff16815260200190815260200160002060009054906101000a900460ff1615151480610e2c5750600560009054906101000a900473ffffffffffffffffffffffffffffffffffffffff1673ffffffffffffffffffffffffffffffffffffffff163373ffffffffffffffffffffffffffffffffffffffff16145b610e6b576040517f08c379a0000000000000000000000000000000000000000000000000000000008152600401610e629061323f565b60405180910390fd5b600061012c420190506060600267ffffffffffffffff81118015610e8e57600080fd5b50604051908082528060200260200182016040528015610ebd5781602001602082028036833780820191505090505b5090508581600081518110610ece57fe5b602002602001019073ffffffffffffffffffffffffffffffffffffffff16908173ffffffffffffffffffffffffffffffffffffffff16815250508381600181518110610f1657fe5b602002602001019073ffffffffffffffffffffffffffffffffffffffff16908173ffffffffffffffffffffffffffffffffffffffff16815250508573ffffffffffffffffffffffffffffffffffffffff1663095ea7b3600460009054906101000a900473ffffffffffffffffffffffffffffffffffffffff16876040518363ffffffff1660e01b8152600401610fad929190613142565b602060405180830381600087803b158015610fc757600080fd5b505af1158015610fdb573d6000803e3d6000fd5b505050506040513d601f19601f82011682018060405250810190610fff91906129d4565b50600460009054906101000a900473ffffffffffffffffffffffffffffffffffffffff1673ffffffffffffffffffffffffffffffffffffffff166338ed17398685848b876040518663ffffffff1660e01b81526004016110639594939291906132df565b600060405180830381600087803b15801561107d57600080fd5b505af1158015611091573d6000803e3d6000fd5b505050506040513d6000823e3d601f19601f820116820180604052508101906110ba9190612993565b5050505050505050565b60011515600b60003373ffffffffffffffffffffffffffffffffffffffff1673ffffffffffffffffffffffffffffffffffffffff16815260200190815260200160002060009054906101000a900460ff16151514611157576040517f08c379a000000000000000000000000000000000000000000000000000000000815260040161114e9061321f565b60405180910390fd5b6000600560009054906101000a900473ffffffffffffffffffffffffffffffffffffffff1673ffffffffffffffffffffffffffffffffffffffff1663bf92857c836040518263ffffffff1660e01b81526004016111b49190613005565b60c06040518083038186803b1580156111cc57600080fd5b505afa1580156111e0573d6000803e3d6000fd5b505050506040513d601f19601f820116820180604052508101906112049190612aa2565b95505050505050670de0b6b3a76400008110611255576040517f08c379a000000000000000000000000000000000000000000000000000000000815260040161124c9061327f565b60405180910390fd5b3073ffffffffffffffffffffffffffffffffffffffff1663f09769b7836040518263ffffffff1660e01b815260040161128e9190613005565b60606040518083038186803b1580156112a657600080fd5b505afa1580156112ba573d6000803e3d6000fd5b505050506040513d601f19601f820116820180604052508101906112de91906127da565b6008600060096000600a60008691906101000a81548173ffffffffffffffffffffffffffffffffffffffff021916908373ffffffffffffffffffffffffffffffffffffffff16021790555085919050558491906101000a81548173ffffffffffffffffffffffffffffffffffffffff021916908373ffffffffffffffffffffffffffffffffffffffff16021790555050505081600760006101000a81548173ffffffffffffffffffffffffffffffffffffffff021916908373ffffffffffffffffffffffffffffffffffffffff1602179055506113df600860009054906101000a900473ffffffffffffffffffffffffffffffffffffffff16600954610293565b5050565b60008060006113f0611ffb565b6060600560009054906101000a900473ffffffffffffffffffffffffffffffffffffffff1673ffffffffffffffffffffffffffffffffffffffff1663d1946dbc6040518163ffffffff1660e01b815260040160006040518083038186803b15801561145a57600080fd5b505afa15801561146e573d6000803e3d6000fd5b505050506040513d6000823e3d601f19601f820116820180604052508101906114979190612952565b90506114a1612103565b600560009054906101000a900473ffffffffffffffffffffffffffffffffffffffff1673ffffffffffffffffffffffffffffffffffffffff16634417a583886040518263ffffffff1660e01b81526004016114fc9190613005565b60206040518083038186803b15801561151457600080fd5b505afa158015611528573d6000803e3d6000fd5b505050506040513d601f19601f8201168201806040525081019061154c9190612a50565b905060005b8251811015611a5e57611562612116565b600560009054906101000a900473ffffffffffffffffffffffffffffffffffffffff1673ffffffffffffffffffffffffffffffffffffffff166335ea6a758584815181106115ac57fe5b60200260200101516040518263ffffffff1660e01b81526004016115d09190613005565b6101806040518083038186803b1580156115e957600080fd5b505afa1580156115fd573d6000803e3d6000fd5b505050506040513d601f19601f820116820180604052508101906116219190612a26565b90506116308160000151611c85565b9091929350909192509091505085610100018181525050846101000151600a0a85610120018181525050600660009054906101000a900473ffffffffffffffffffffffffffffffffffffffff1673ffffffffffffffffffffffffffffffffffffffff1663b3596f078584815181106116a457fe5b60200260200101516040518263ffffffff1660e01b81526004016116c89190613005565b60206040518083038186803b1580156116e057600080fd5b505afa1580156116f4573d6000803e3d6000fd5b505050506040513d601f19601f820116820180604052508101906117189190612a79565b8561014001818152505061172c8383611d78565b156118c15783828151811061173d57fe5b602002602001015185610160019073ffffffffffffffffffffffffffffffffffffffff16908173ffffffffffffffffffffffffffffffffffffffff168152505080610120015173ffffffffffffffffffffffffffffffffffffffff166370a082318a6040518263ffffffff1660e01b81526004016117bb9190613005565b60206040518083038186803b1580156117d357600080fd5b505afa1580156117e7573d6000803e3d6000fd5b505050506040513d601f19601f8201168201806040525081019061180b9190612a79565b8561018001818152505061184985610120015161183b876101800151886101400151611d9390919063ffffffff16565b611e0390919063ffffffff16565b856101a00181815250508460a00151856101a0015111156118c057846101600151856060019073ffffffffffffffffffffffffffffffffffffffff16908173ffffffffffffffffffffffffffffffffffffffff1681525050846101800151856080018181525050846101a001518560a00181815250505b5b6118cb8383611e4d565b15611a50578382815181106118dc57fe5b6020026020010151856101c0019073ffffffffffffffffffffffffffffffffffffffff16908173ffffffffffffffffffffffffffffffffffffffff16815250508060e0015173ffffffffffffffffffffffffffffffffffffffff166370a082318a6040518263ffffffff1660e01b81526004016119599190613005565b60206040518083038186803b15801561197157600080fd5b505afa158015611985573d6000803e3d6000fd5b505050506040513d601f19601f820116820180604052508101906119a99190612a79565b856101e00181815250506119e78561012001516119d9876101e00151886101400151611d9390919063ffffffff16565b611e0390919063ffffffff16565b856102000181815250508460e001518561020001511115611a4f57846101c001518560c0019073ffffffffffffffffffffffffffffffffffffffff16908173ffffffffffffffffffffffffffffffffffffffff16815250508461020001518560e00181815250505b5b508080600101915050611551565b508260600151836000019073ffffffffffffffffffffffffffffffffffffffff16908173ffffffffffffffffffffffffffffffffffffffff16815250506002836080015181611aa957fe5b048360200181815250508260c00151836040019073ffffffffffffffffffffffffffffffffffffffff16908173ffffffffffffffffffffffffffffffffffffffff16815250508260000151836020015184604001519550955095505050509193909250565b611b1661088f565b611b55576040517f08c379a0000000000000000000000000000000000000000000000000000000008152600401611b4c9061329f565b60405180910390fd5b60005b8151811015611bd9576001600b6000848481518110611b7357fe5b602002602001015173ffffffffffffffffffffffffffffffffffffffff1673ffffffffffffffffffffffffffffffffffffffff16815260200190815260200160002060006101000a81548160ff0219169083151502179055508080600101915050611b58565b5050565b611be561088f565b611c24576040517f08c379a0000000000000000000000000000000000000000000000000000000008152600401611c1b9061329f565b60405180910390fd5b611c2d81611e6a565b50565b600080828401905083811015611c7b576040517f08c379a0000000000000000000000000000000000000000000000000000000008152600401611c72906131ff565b60405180910390fd5b8091505092915050565b60008060008060007fffffffffffffffffffffffffffffffffffffffffffffffffffffffffffff00001986600001511660107fffffffffffffffffffffffffffffffffffffffffffffffffffffffff0000ffff19886000015116901c60207fffffffffffffffffffffffffffffffffffffffffffffffffffff0000ffffffff19896000015116901c60307fffffffffffffffffffffffffffffffffffffffffffffffffff00ffffffffffff198a6000015116901c60407fffffffffffffffffffffffffffffffffffffffffffff0000ffffffffffffffff198b6000015116901c9450945094509450945091939590929450565b6000806001600284028560000151901c161415905092915050565b600080831415611da65760009050611dfd565b6000828402905082848281611db757fe5b0414611df8576040517f08c379a0000000000000000000000000000000000000000000000000000000008152600401611def9061325f565b60405180910390fd5b809150505b92915050565b6000611e4583836040518060400160405280601a81526020017f536166654d6174683a206469766973696f6e206279207a65726f000000000000815250611f9a565b905092915050565b60008060018060028502018560000151901c161415905092915050565b600073ffffffffffffffffffffffffffffffffffffffff168173ffffffffffffffffffffffffffffffffffffffff161415611eda576040517f08c379a0000000000000000000000000000000000000000000000000000000008152600401611ed1906131df565b60405180910390fd5b8073ffffffffffffffffffffffffffffffffffffffff16600260009054906101000a900473ffffffffffffffffffffffffffffffffffffffff1673ffffffffffffffffffffffffffffffffffffffff167f8be0079c531659141344cd1fd0a4f28419497f9722a3daafe3b4186f6b6457e060405160405180910390a380600260006101000a81548173ffffffffffffffffffffffffffffffffffffffff021916908373ffffffffffffffffffffffffffffffffffffffff16021790555050565b60008083118290611fe1576040517f08c379a0000000000000000000000000000000000000000000000000000000008152600401611fd891906131bd565b60405180910390fd5b506000838581611fed57fe5b049050809150509392505050565b604051806102200160405280600073ffffffffffffffffffffffffffffffffffffffff16815260200160008152602001600073ffffffffffffffffffffffffffffffffffffffff168152602001600073ffffffffffffffffffffffffffffffffffffffff1681526020016000815260200160008152602001600073ffffffffffffffffffffffffffffffffffffffff16815260200160008152602001600081526020016000815260200160008152602001600073ffffffffffffffffffffffffffffffffffffffff1681526020016000815260200160008152602001600073ffffffffffffffffffffffffffffffffffffffff16815260200160008152602001600081525090565b6040518060200160405280600081525090565b60405180610180016040528061212a612239565b815260200160006fffffffffffffffffffffffffffffffff16815260200160006fffffffffffffffffffffffffffffffff16815260200160006fffffffffffffffffffffffffffffffff16815260200160006fffffffffffffffffffffffffffffffff16815260200160006fffffffffffffffffffffffffffffffff168152602001600064ffffffffff168152602001600073ffffffffffffffffffffffffffffffffffffffff168152602001600073ffffffffffffffffffffffffffffffffffffffff168152602001600073ffffffffffffffffffffffffffffffffffffffff168152602001600073ffffffffffffffffffffffffffffffffffffffff168152602001600060ff1681525090565b6040518060200160405280600081525090565b60008135905061225b81613587565b92915050565b60008151905061227081613587565b92915050565b60008083601f84011261228857600080fd5b8235905067ffffffffffffffff8111156122a157600080fd5b6020830191508360208202830111156122b957600080fd5b9250929050565b600082601f8301126122d157600080fd5b81356122e46122df82613366565b613339565b9150818183526020840193506020810190508385602084028201111561230957600080fd5b60005b83811015612339578161231f888261224c565b84526020840193506020830192505060018101905061230c565b5050505092915050565b600082601f83011261235457600080fd5b815161236761236282613366565b613339565b9150818183526020840193506020810190508385602084028201111561238c57600080fd5b60005b838110156123bc57816123a28882612261565b84526020840193506020830192505060018101905061238f565b5050505092915050565b60008083601f8401126123d857600080fd5b8235905067ffffffffffffffff8111156123f157600080fd5b60208301915083602082028301111561240957600080fd5b9250929050565b600082601f83011261242157600080fd5b815161243461242f8261338e565b613339565b9150818183526020840193506020810190508385602084028201111561245957600080fd5b60005b83811015612489578161246f88826126bf565b84526020840193506020830192505060018101905061245c565b5050505092915050565b6000815190506124a28161359e565b92915050565b60008083601f8401126124ba57600080fd5b8235905067ffffffffffffffff8111156124d357600080fd5b6020830191508360018202830111156124eb57600080fd5b9250929050565b600081359050612501816135b5565b92915050565b60006020828403121561251957600080fd5b6125236020613339565b90506000612533848285016126bf565b60008301525092915050565b6000610180828403121561255257600080fd5b61255d610180613339565b9050600061256d84828501612507565b600083015250602061258184828501612695565b602083015250604061259584828501612695565b60408301525060606125a984828501612695565b60608301525060806125bd84828501612695565b60808301525060a06125d184828501612695565b60a08301525060c06125e5848285016126d4565b60c08301525060e06125f984828501612261565b60e08301525061010061260e84828501612261565b6101008301525061012061262484828501612261565b6101208301525061014061263a84828501612261565b61014083015250610160612650848285016126e9565b6101608301525092915050565b60006020828403121561266f57600080fd5b6126796020613339565b90506000612689848285016126bf565b60008301525092915050565b6000815190506126a4816135cc565b92915050565b6000813590506126b9816135e3565b92915050565b6000815190506126ce816135e3565b92915050565b6000815190506126e3816135fa565b92915050565b6000815190506126f881613611565b92915050565b60006020828403121561271057600080fd5b600061271e8482850161224c565b91505092915050565b600080600080600060a0868803121561273f57600080fd5b600061274d8882890161224c565b955050602061275e8882890161224c565b945050604061276f888289016126aa565b93505060606127808882890161224c565b9250506080612791888289016126aa565b9150509295509295909350565b600080604083850312156127b157600080fd5b60006127bf8582860161224c565b92505060206127d0858286016126aa565b9150509250929050565b6000806000606084860312156127ef57600080fd5b60006127fd86828701612261565b935050602061280e868287016126bf565b925050604061281f86828701612261565b9150509250925092565b600080600080600080600080600060a08a8c03121561284757600080fd5b60008a013567ffffffffffffffff81111561286157600080fd5b61286d8c828d01612276565b995099505060208a013567ffffffffffffffff81111561288c57600080fd5b6128988c828d016123c6565b975097505060408a013567ffffffffffffffff8111156128b757600080fd5b6128c38c828d016123c6565b955095505060606128d68c828d0161224c565b93505060808a013567ffffffffffffffff8111156128f357600080fd5b6128ff8c828d016124a8565b92509250509295985092959850929598565b60006020828403121561292357600080fd5b600082013567ffffffffffffffff81111561293d57600080fd5b612949848285016122c0565b91505092915050565b60006020828403121561296457600080fd5b600082015167ffffffffffffffff81111561297e57600080fd5b61298a84828501612343565b91505092915050565b6000602082840312156129a557600080fd5b600082015167ffffffffffffffff8111156129bf57600080fd5b6129cb84828501612410565b91505092915050565b6000602082840312156129e657600080fd5b60006129f484828501612493565b91505092915050565b600060208284031215612a0f57600080fd5b6000612a1d848285016124f2565b91505092915050565b60006101808284031215612a3957600080fd5b6000612a478482850161253f565b91505092915050565b600060208284031215612a6257600080fd5b6000612a708482850161265d565b91505092915050565b600060208284031215612a8b57600080fd5b6000612a99848285016126bf565b91505092915050565b60008060008060008060c08789031215612abb57600080fd5b6000612ac989828a016126bf565b9650506020612ada89828a016126bf565b9550506040612aeb89828a016126bf565b9450506060612afc89828a016126bf565b9350506080612b0d89828a016126bf565b92505060a0612b1e89828a016126bf565b9150509295509295509295565b6000612b378383612b6a565b60208301905092915050565b6000612b4f8383612fd2565b60208301905092915050565b612b648161350d565b82525050565b612b738161346b565b82525050565b612b828161346b565b82525050565b6000612b93826133d6565b612b9d818561341c565b9350612ba8836133b6565b8060005b83811015612bd9578151612bc08882612b2b565b9750612bcb83613402565b925050600181019050612bac565b5085935050505092915050565b6000612bf1826133e1565b612bfb818561342d565b9350612c06836133c6565b8060005b83811015612c37578151612c1e8882612b43565b9750612c298361340f565b925050600181019050612c0a565b5085935050505092915050565b612c4d8161347d565b82525050565b6000612c5e826133ec565b612c68818561343e565b9350612c78818560208601613543565b612c8181613576565b840191505092915050565b6000612c97826133f7565b612ca1818561345a565b9350612cb1818560208601613543565b612cba81613576565b840191505092915050565b6000612cd260268361345a565b91507f4f776e61626c653a206e6577206f776e657220697320746865207a65726f206160008301527f64647265737300000000000000000000000000000000000000000000000000006020830152604082019050919050565b6000612d38601b8361345a565b91507f536166654d6174683a206164646974696f6e206f766572666c6f7700000000006000830152602082019050919050565b6000612d7860248361345a565b91507f4d7573742062652063616c6c656420627920617070726f76656420616464726560008301527f73736573000000000000000000000000000000000000000000000000000000006020830152604082019050919050565b6000612dde60378361345a565b91507f4d7573742062652063616c6c656420627920617070726f76656420616464726560008301527f73736573206f72206279206c656e64696e6720706f6f6c0000000000000000006020830152604082019050919050565b6000612e4460218361345a565b91507f536166654d6174683a206d756c7469706c69636174696f6e206f766572666c6f60008301527f77000000000000000000000000000000000000000000000000000000000000006020830152604082019050919050565b6000612eaa60228361345a565b91507f4865616c746820666163746f72206d757374206265206c6f776572207468616e60008301527f20310000000000000000000000000000000000000000000000000000000000006020830152604082019050919050565b6000612f1060208361345a565b91507f4f776e61626c653a2063616c6c6572206973206e6f7420746865206f776e65726000830152602082019050919050565b6000612f5060008361344f565b9150600082019050919050565b6000612f6a60228361345a565b91507f4d7573742062652063616c6c656420627920746865206c656e64696e6720706f60008301527f6f6c0000000000000000000000000000000000000000000000000000000000006020830152604082019050919050565b612fcc816134b7565b82525050565b612fdb816134e5565b82525050565b612fea816134e5565b82525050565b6000612ffb82612f43565b9150819050919050565b600060208201905061301a6000830184612b79565b92915050565b60006020820190506130356000830184612b5b565b92915050565b60006040820190506130506000830185612b5b565b61305d6020830184612fe1565b9392505050565b600060a0820190506130796000830188612b79565b6130866020830187612b79565b6130936040830186612b79565b6130a06060830185612fe1565b6130ad6080830184612c44565b9695505050505050565b600060e0820190506130cc600083018a612b79565b81810360208301526130de8189612b88565b905081810360408301526130f28188612be6565b905081810360608301526131068187612be6565b90506131156080830186612b79565b81810360a08301526131278185612c53565b905061313660c0830184612fc3565b98975050505050505050565b60006040820190506131576000830185612b79565b6131646020830184612fe1565b9392505050565b60006060820190506131806000830186612b79565b61318d6020830185612fe1565b61319a6040830184612b79565b949350505050565b60006020820190506131b76000830184612c44565b92915050565b600060208201905081810360008301526131d78184612c8c565b905092915050565b600060208201905081810360008301526131f881612cc5565b9050919050565b6000602082019050818103600083015261321881612d2b565b9050919050565b6000602082019050818103600083015261323881612d6b565b9050919050565b6000602082019050818103600083015261325881612dd1565b9050919050565b6000602082019050818103600083015261327881612e37565b9050919050565b6000602082019050818103600083015261329881612e9d565b9050919050565b600060208201905081810360008301526132b881612f03565b9050919050565b600060208201905081810360008301526132d881612f5d565b9050919050565b600060a0820190506132f46000830188612fe1565b6133016020830187612fe1565b81810360408301526133138186612b88565b90506133226060830185612b79565b61332f6080830184612fe1565b9695505050505050565b6000604051905081810181811067ffffffffffffffff8211171561335c57600080fd5b8060405250919050565b600067ffffffffffffffff82111561337d57600080fd5b602082029050602081019050919050565b600067ffffffffffffffff8211156133a557600080fd5b602082029050602081019050919050565b6000819050602082019050919050565b6000819050602082019050919050565b600081519050919050565b600081519050919050565b600081519050919050565b600081519050919050565b6000602082019050919050565b6000602082019050919050565b600082825260208201905092915050565b600082825260208201905092915050565b600082825260208201905092915050565b600081905092915050565b600082825260208201905092915050565b6000613476826134c5565b9050919050565b60008115159050919050565b60006134948261346b565b9050919050565b60006fffffffffffffffffffffffffffffffff82169050919050565b600061ffff82169050919050565b600073ffffffffffffffffffffffffffffffffffffffff82169050919050565b6000819050919050565b600064ffffffffff82169050919050565b600060ff82169050919050565b60006135188261351f565b9050919050565b600061352a82613531565b9050919050565b600061353c826134c5565b9050919050565b60005b83811015613561578082015181840152602081019050613546565b83811115613570576000848401525b50505050565b6000601f19601f8301169050919050565b6135908161346b565b811461359b57600080fd5b50565b6135a78161347d565b81146135b257600080fd5b50565b6135be81613489565b81146135c957600080fd5b50565b6135d58161349b565b81146135e057600080fd5b50565b6135ec816134e5565b81146135f757600080fd5b50565b613603816134ef565b811461360e57600080fd5b50565b61361a81613500565b811461362557600080fd5b5056fea26469706673582212201fdcdc976ebfe8e5bf65632c6d27ec5f2c87834d1055d232862f90e6e59e9c1464736f6c634300060c0033",
  "linkReferences": {},
  "deployedLinkReferences": {}
}