{
  "_format": "hh-sol-artifact-1",
  "contractName": "MiMaticLiquidateCamWMatic",
  "sourceName": "contracts/MiMaticLiquidateCamWMatic.sol",
  "abi": [
    {
      "inputs": [
        {
          "internalType": "contract IQiLiquidatorV2",
          "name": "_qiLiquidator",
          "type": "address"
        },
        {
          "internalType": "contract IUniswapV2Router02",
          "name": "_quickSwapRouter",
          "type": "address"
        },
        {
          "internalType": "contract ILendingPoolAddressesProvider",
          "name": "_aaveLendingPoolAddressProvider",
          "type": "address"
        },
        {
          "internalType": "contract IERC20",
          "name": "_usdc",
          "type": "address"
        },
        {
          "internalType": "contract IERC20",
          "name": "_miMatic",
          "type": "address"
        }
      ],
      "stateMutability": "nonpayable",
      "type": "constructor"
    },
    {
      "anonymous": false,
      "inputs": [
        {
          "indexed": true,
          "internalType": "address",
          "name": "previousOwner",
          "type": "address"
        },
        {
          "indexed": true,
          "internalType": "address",
          "name": "newOwner",
          "type": "address"
        }
      ],
      "name": "OwnershipTransferred",
      "type": "event"
    },
    {
      "inputs": [
        {
          "internalType": "address[]",
          "name": "addressesToApprove",
          "type": "address[]"
        }
      ],
      "name": "approveAddresses",
      "outputs": [],
      "stateMutability": "nonpayable",
      "type": "function"
    },
    {
      "inputs": [
        {
          "internalType": "address",
          "name": "addressToApprove",
          "type": "address"
        },
        {
          "internalType": "address",
          "name": "asset",
          "type": "address"
        },
        {
          "internalType": "uint256",
          "name": "amount",
          "type": "uint256"
        }
      ],
      "name": "approveSwap",
      "outputs": [],
      "stateMutability": "nonpayable",
      "type": "function"
    },
    {
      "inputs": [
        {
          "internalType": "address",
          "name": "_asset",
          "type": "address"
        },
        {
          "internalType": "uint256",
          "name": "_amount",
          "type": "uint256"
        },
        {
          "internalType": "bytes",
          "name": "params",
          "type": "bytes"
        }
      ],
      "name": "executeFlashLoan",
      "outputs": [],
      "stateMutability": "nonpayable",
      "type": "function"
    },
    {
      "inputs": [
        {
          "internalType": "address[]",
          "name": "assets",
          "type": "address[]"
        },
        {
          "internalType": "uint256[]",
          "name": "amounts",
          "type": "uint256[]"
        },
        {
          "internalType": "uint256[]",
          "name": "premiums",
          "type": "uint256[]"
        },
        {
          "internalType": "address",
          "name": "initiator",
          "type": "address"
        },
        {
          "internalType": "bytes",
          "name": "params",
          "type": "bytes"
        }
      ],
      "name": "executeOperation",
      "outputs": [
        {
          "internalType": "bool",
          "name": "",
          "type": "bool"
        }
      ],
      "stateMutability": "nonpayable",
      "type": "function"
    },
    {
      "inputs": [
        {
          "internalType": "address",
          "name": "to",
          "type": "address"
        },
        {
          "internalType": "uint256",
          "name": "_amountIn",
          "type": "uint256"
        },
        {
          "internalType": "address",
          "name": "_assetOut",
          "type": "address"
        },
        {
          "internalType": "uint256",
          "name": "amountOutMin",
          "type": "uint256"
        },
        {
          "internalType": "uint256",
          "name": "_timestamp",
          "type": "uint256"
        }
      ],
      "name": "executeSwapMaticForTokens",
      "outputs": [],
      "stateMutability": "nonpayable",
      "type": "function"
    },
    {
      "inputs": [
        {
          "internalType": "address",
          "name": "to",
          "type": "address"
        },
        {
          "internalType": "address",
          "name": "_assetIn",
          "type": "address"
        },
        {
          "internalType": "uint256",
          "name": "_amountIn",
          "type": "uint256"
        },
        {
          "internalType": "address",
          "name": "_assetOut",
          "type": "address"
        },
        {
          "internalType": "uint256",
          "name": "amountOutMin",
          "type": "uint256"
        },
        {
          "internalType": "uint256",
          "name": "_timestamp",
          "type": "uint256"
        }
      ],
      "name": "executeSwapTokensForTokens",
      "outputs": [],
      "stateMutability": "nonpayable",
      "type": "function"
    },
    {
      "inputs": [],
      "name": "isOwner",
      "outputs": [
        {
          "internalType": "bool",
          "name": "",
          "type": "bool"
        }
      ],
      "stateMutability": "view",
      "type": "function"
    },
    {
      "inputs": [
        {
          "internalType": "uint256",
          "name": "_vaultId",
          "type": "uint256"
        },
        {
          "internalType": "uint256",
          "name": "_timestamp",
          "type": "uint256"
        }
      ],
      "name": "liquidateVault",
      "outputs": [],
      "stateMutability": "nonpayable",
      "type": "function"
    },
    {
      "inputs": [],
      "name": "owner",
      "outputs": [
        {
          "internalType": "address",
          "name": "",
          "type": "address"
        }
      ],
      "stateMutability": "view",
      "type": "function"
    },
    {
      "inputs": [],
      "name": "renounceOwnership",
      "outputs": [],
      "stateMutability": "nonpayable",
      "type": "function"
    },
    {
      "inputs": [],
      "name": "rugPull",
      "outputs": [],
      "stateMutability": "payable",
      "type": "function"
    },
    {
      "inputs": [
        {
          "internalType": "contract IAaveWETHGateway",
          "name": "_aaveWETHGateway",
          "type": "address"
        }
      ],
      "name": "setAaveWETHGateway",
      "outputs": [],
      "stateMutability": "nonpayable",
      "type": "function"
    },
    {
      "inputs": [
        {
          "internalType": "contract ICamToken",
          "name": "_camToken",
          "type": "address"
        }
      ],
      "name": "setCamToken",
      "outputs": [],
      "stateMutability": "nonpayable",
      "type": "function"
    },
    {
      "inputs": [
        {
          "internalType": "address",
          "name": "newOwner",
          "type": "address"
        }
      ],
      "name": "transferOwnership",
      "outputs": [],
      "stateMutability": "nonpayable",
      "type": "function"
    },
    {
      "stateMutability": "payable",
      "type": "receive"
    }
  ],
  "bytecode": "0x60806040526000600d553480156200001657600080fd5b506040516200369e3803806200369e833981810160405260a08110156200003c57600080fd5b81019080805190602001909291908051906020019092919080519060200190929190805190602001909291908051906020019092919050505082806000806101000a81548173ffffffffffffffffffffffffffffffffffffffff021916908373ffffffffffffffffffffffffffffffffffffffff1602179055508073ffffffffffffffffffffffffffffffffffffffff16630261bf8b6040518163ffffffff1660e01b815260040160206040518083038186803b158015620000fd57600080fd5b505afa15801562000112573d6000803e3d6000fd5b505050506040513d60208110156200012957600080fd5b8101908080519060200190929190505050600160006101000a81548173ffffffffffffffffffffffffffffffffffffffff021916908373ffffffffffffffffffffffffffffffffffffffff1602179055505033600260006101000a81548173ffffffffffffffffffffffffffffffffffffffff021916908373ffffffffffffffffffffffffffffffffffffffff160217905550600260009054906101000a900473ffffffffffffffffffffffffffffffffffffffff1673ffffffffffffffffffffffffffffffffffffffff16600073ffffffffffffffffffffffffffffffffffffffff167f8be0079c531659141344cd1fd0a4f28419497f9722a3daafe3b4186f6b6457e060405160405180910390a384600360006101000a81548173ffffffffffffffffffffffffffffffffffffffff021916908373ffffffffffffffffffffffffffffffffffffffff16021790555082600460006101000a81548173ffffffffffffffffffffffffffffffffffffffff021916908373ffffffffffffffffffffffffffffffffffffffff160217905550600460009054906101000a900473ffffffffffffffffffffffffffffffffffffffff1673ffffffffffffffffffffffffffffffffffffffff16630261bf8b6040518163ffffffff1660e01b815260040160206040518083038186803b1580156200032457600080fd5b505afa15801562000339573d6000803e3d6000fd5b505050506040513d60208110156200035057600080fd5b8101908080519060200190929190505050600b60006101000a81548173ffffffffffffffffffffffffffffffffffffffff021916908373ffffffffffffffffffffffffffffffffffffffff16021790555083600560006101000a81548173ffffffffffffffffffffffffffffffffffffffff021916908373ffffffffffffffffffffffffffffffffffffffff16021790555081600660006101000a81548173ffffffffffffffffffffffffffffffffffffffff021916908373ffffffffffffffffffffffffffffffffffffffff16021790555080600760006101000a81548173ffffffffffffffffffffffffffffffffffffffff021916908373ffffffffffffffffffffffffffffffffffffffff160217905550505050505061322580620004796000396000f3fe6080604052600436106100e15760003560e01c8063920f5c841161007f578063e02dd31f11610059578063e02dd31f14610528578063f0f4d0cb146105d7578063f2fde38b1461069c578063f3df1253146106ed576100e8565b8063920f5c84146102ad578063952cc86a14610468578063c5f05a58146104ad576100e8565b8063566026b5116100bb578063566026b5146101d7578063715018a6146102285780638da5cb5b1461023f5780638f32d59b14610280576100e8565b806320624418146100ed5780632190dfd01461013e57806339570fc614610148576100e8565b366100e857005b600080fd5b3480156100f957600080fd5b5061013c6004803603602081101561011057600080fd5b81019080803573ffffffffffffffffffffffffffffffffffffffff1690602001909291905050506107df565b005b610146610980565b005b34801561015457600080fd5b506101d5600480360360a081101561016b57600080fd5b81019080803573ffffffffffffffffffffffffffffffffffffffff16906020019092919080359060200190929190803573ffffffffffffffffffffffffffffffffffffffff1690602001909291908035906020019092919080359060200190929190505050610d86565b005b3480156101e357600080fd5b50610226600480360360208110156101fa57600080fd5b81019080803573ffffffffffffffffffffffffffffffffffffffff1690602001909291905050506111d1565b005b34801561023457600080fd5b5061023d61128f565b005b34801561024b57600080fd5b506102546113ca565b604051808273ffffffffffffffffffffffffffffffffffffffff16815260200191505060405180910390f35b34801561028c57600080fd5b506102956113f4565b60405180821515815260200191505060405180910390f35b3480156102b957600080fd5b50610450600480360360a08110156102d057600080fd5b81019080803590602001906401000000008111156102ed57600080fd5b8201836020820111156102ff57600080fd5b8035906020019184602083028401116401000000008311171561032157600080fd5b90919293919293908035906020019064010000000081111561034257600080fd5b82018360208201111561035457600080fd5b8035906020019184602083028401116401000000008311171561037657600080fd5b90919293919293908035906020019064010000000081111561039757600080fd5b8201836020820111156103a957600080fd5b803590602001918460208302840111640100000000831117156103cb57600080fd5b9091929391929390803573ffffffffffffffffffffffffffffffffffffffff1690602001909291908035906020019064010000000081111561040c57600080fd5b82018360208201111561041e57600080fd5b8035906020019184600183028401116401000000008311171561044057600080fd5b909192939192939050505061144c565b60405180821515815260200191505060405180910390f35b34801561047457600080fd5b506104ab6004803603604081101561048b57600080fd5b810190808035906020019092919080359060200190929190505050611e60565b005b3480156104b957600080fd5b50610526600480360360608110156104d057600080fd5b81019080803573ffffffffffffffffffffffffffffffffffffffff169060200190929190803573ffffffffffffffffffffffffffffffffffffffff16906020019092919080359060200190929190505050612206565b005b34801561053457600080fd5b506105d5600480360360c081101561054b57600080fd5b81019080803573ffffffffffffffffffffffffffffffffffffffff169060200190929190803573ffffffffffffffffffffffffffffffffffffffff16906020019092919080359060200190929190803573ffffffffffffffffffffffffffffffffffffffff1690602001909291908035906020019092919080359060200190929190505050612361565b005b3480156105e357600080fd5b5061069a600480360360208110156105fa57600080fd5b810190808035906020019064010000000081111561061757600080fd5b82018360208201111561062957600080fd5b8035906020019184602083028401116401000000008311171561064b57600080fd5b919080806020026020016040519081016040528093929190818152602001838360200280828437600081840152601f19601f8201169050808301925050505050505091929192905050506127e1565b005b3480156106a857600080fd5b506106eb600480360360208110156106bf57600080fd5b81019080803573ffffffffffffffffffffffffffffffffffffffff1690602001909291905050506128e3565b005b3480156106f957600080fd5b506107dd6004803603606081101561071057600080fd5b81019080803573ffffffffffffffffffffffffffffffffffffffff169060200190929190803590602001909291908035906020019064010000000081111561075757600080fd5b82018360208201111561076957600080fd5b8035906020019184600183028401116401000000008311171561078b57600080fd5b91908080601f016020809104026020016040519081016040528093929190818152602001838380828437600081840152601f19601f820116905080830192505050505050509192919290505050612969565b005b6107e76113f4565b610859576040517f08c379a00000000000000000000000000000000000000000000000000000000081526004018080602001828103825260208152602001807f4f776e61626c653a2063616c6c6572206973206e6f7420746865206f776e657281525060200191505060405180910390fd5b80600860006101000a81548173ffffffffffffffffffffffffffffffffffffffff021916908373ffffffffffffffffffffffffffffffffffffffff160217905550600860009054906101000a900473ffffffffffffffffffffffffffffffffffffffff1673ffffffffffffffffffffffffffffffffffffffff1663c24126766040518163ffffffff1660e01b815260040160206040518083038186803b15801561090257600080fd5b505afa158015610916573d6000803e3d6000fd5b505050506040513d602081101561092c57600080fd5b8101908080519060200190929190505050600960006101000a81548173ffffffffffffffffffffffffffffffffffffffff021916908373ffffffffffffffffffffffffffffffffffffffff16021790555050565b6109886113f4565b6109fa576040517f08c379a00000000000000000000000000000000000000000000000000000000081526004018080602001828103825260208152602001807f4f776e61626c653a2063616c6c6572206973206e6f7420746865206f776e657281525060200191505060405180910390fd5b3373ffffffffffffffffffffffffffffffffffffffff164760405180600001905060006040518083038185875af1925050503d8060008114610a58576040519150601f19603f3d011682016040523d82523d6000602084013e610a5d565b606091505b505050600660009054906101000a900473ffffffffffffffffffffffffffffffffffffffff1673ffffffffffffffffffffffffffffffffffffffff1663a9059cbb33600660009054906101000a900473ffffffffffffffffffffffffffffffffffffffff1673ffffffffffffffffffffffffffffffffffffffff166370a08231306040518263ffffffff1660e01b8152600401808273ffffffffffffffffffffffffffffffffffffffff16815260200191505060206040518083038186803b158015610b2857600080fd5b505afa158015610b3c573d6000803e3d6000fd5b505050506040513d6020811015610b5257600080fd5b81019080805190602001909291905050506040518363ffffffff1660e01b8152600401808373ffffffffffffffffffffffffffffffffffffffff16815260200182815260200192505050602060405180830381600087803b158015610bb657600080fd5b505af1158015610bca573d6000803e3d6000fd5b505050506040513d6020811015610be057600080fd5b810190808051906020019092919050505050600760009054906101000a900473ffffffffffffffffffffffffffffffffffffffff1673ffffffffffffffffffffffffffffffffffffffff1663a9059cbb33600760009054906101000a900473ffffffffffffffffffffffffffffffffffffffff1673ffffffffffffffffffffffffffffffffffffffff166370a08231306040518263ffffffff1660e01b8152600401808273ffffffffffffffffffffffffffffffffffffffff16815260200191505060206040518083038186803b158015610cba57600080fd5b505afa158015610cce573d6000803e3d6000fd5b505050506040513d6020811015610ce457600080fd5b81019080805190602001909291905050506040518363ffffffff1660e01b8152600401808373ffffffffffffffffffffffffffffffffffffffff16815260200182815260200192505050602060405180830381600087803b158015610d4857600080fd5b505af1158015610d5c573d6000803e3d6000fd5b505050506040513d6020811015610d7257600080fd5b810190808051906020019092919050505050565b60011515600c60003373ffffffffffffffffffffffffffffffffffffffff1673ffffffffffffffffffffffffffffffffffffffff16815260200190815260200160002060009054906101000a900460ff1615151480610e325750600b60009054906101000a900473ffffffffffffffffffffffffffffffffffffffff1673ffffffffffffffffffffffffffffffffffffffff163373ffffffffffffffffffffffffffffffffffffffff16145b610e87576040517f08c379a00000000000000000000000000000000000000000000000000000000081526004018080602001828103825260378152602001806131766037913960400191505060405180910390fd5b6000601e820190506060600267ffffffffffffffff81118015610ea957600080fd5b50604051908082528060200260200182016040528015610ed85781602001602082028036833780820191505090505b509050600560009054906101000a900473ffffffffffffffffffffffffffffffffffffffff1673ffffffffffffffffffffffffffffffffffffffff1663ad5c46486040518163ffffffff1660e01b815260040160206040518083038186803b158015610f4357600080fd5b505afa158015610f57573d6000803e3d6000fd5b505050506040513d6020811015610f6d57600080fd5b810190808051906020019092919050505081600081518110610f8b57fe5b602002602001019073ffffffffffffffffffffffffffffffffffffffff16908173ffffffffffffffffffffffffffffffffffffffff16815250508481600181518110610fd357fe5b602002602001019073ffffffffffffffffffffffffffffffffffffffff16908173ffffffffffffffffffffffffffffffffffffffff1681525050600560009054906101000a900473ffffffffffffffffffffffffffffffffffffffff1673ffffffffffffffffffffffffffffffffffffffff16637ff36ab58786848b876040518663ffffffff1660e01b815260040180858152602001806020018473ffffffffffffffffffffffffffffffffffffffff168152602001838152602001828103825285818151815260200191508051906020019060200280838360005b838110156110ca5780820151818401526020810190506110af565b50505050905001955050505050506000604051808303818588803b1580156110f157600080fd5b505af1158015611105573d6000803e3d6000fd5b50505050506040513d6000823e3d601f19601f82011682018060405250602081101561113057600080fd5b810190808051604051939291908464010000000082111561115057600080fd5b8382019150602082018581111561116657600080fd5b825186602082028301116401000000008211171561118357600080fd5b8083526020830192505050908051906020019060200280838360005b838110156111ba57808201518184015260208101905061119f565b505050509050016040525050505050505050505050565b6111d96113f4565b61124b576040517f08c379a00000000000000000000000000000000000000000000000000000000081526004018080602001828103825260208152602001807f4f776e61626c653a2063616c6c6572206973206e6f7420746865206f776e657281525060200191505060405180910390fd5b80600a60006101000a81548173ffffffffffffffffffffffffffffffffffffffff021916908373ffffffffffffffffffffffffffffffffffffffff16021790555050565b6112976113f4565b611309576040517f08c379a00000000000000000000000000000000000000000000000000000000081526004018080602001828103825260208152602001807f4f776e61626c653a2063616c6c6572206973206e6f7420746865206f776e657281525060200191505060405180910390fd5b600073ffffffffffffffffffffffffffffffffffffffff16600260009054906101000a900473ffffffffffffffffffffffffffffffffffffffff1673ffffffffffffffffffffffffffffffffffffffff167f8be0079c531659141344cd1fd0a4f28419497f9722a3daafe3b4186f6b6457e060405160405180910390a36000600260006101000a81548173ffffffffffffffffffffffffffffffffffffffff021916908373ffffffffffffffffffffffffffffffffffffffff160217905550565b6000600260009054906101000a900473ffffffffffffffffffffffffffffffffffffffff16905090565b6000600260009054906101000a900473ffffffffffffffffffffffffffffffffffffffff1673ffffffffffffffffffffffffffffffffffffffff163373ffffffffffffffffffffffffffffffffffffffff1614905090565b6000600b60009054906101000a900473ffffffffffffffffffffffffffffffffffffffff1673ffffffffffffffffffffffffffffffffffffffff163373ffffffffffffffffffffffffffffffffffffffff16146114f4576040517f08c379a00000000000000000000000000000000000000000000000000000000081526004018080602001828103825260228152602001806131ce6022913960400191505060405180910390fd5b8282608081101561150457600080fd5b8101908080359060200190929190803590602001909291908035906020019092919080359060200190929190505050600d6000600e6000600f600060106000889190505587919050558691905055859190505550505050600660009054906101000a900473ffffffffffffffffffffffffffffffffffffffff1673ffffffffffffffffffffffffffffffffffffffff1663095ea7b3600b60009054906101000a900473ffffffffffffffffffffffffffffffffffffffff16600f546040518363ffffffff1660e01b8152600401808373ffffffffffffffffffffffffffffffffffffffff16815260200182815260200192505050602060405180830381600087803b15801561161257600080fd5b505af1158015611626573d6000803e3d6000fd5b505050506040513d602081101561163c57600080fd5b8101908080519060200190929190505050506116a630600660009054906101000a900473ffffffffffffffffffffffffffffffffffffffff16600f54600760009054906101000a900473ffffffffffffffffffffffffffffffffffffffff16600e54601054612361565b600760009054906101000a900473ffffffffffffffffffffffffffffffffffffffff1673ffffffffffffffffffffffffffffffffffffffff1663095ea7b3600360009054906101000a900473ffffffffffffffffffffffffffffffffffffffff16600e546040518363ffffffff1660e01b8152600401808373ffffffffffffffffffffffffffffffffffffffff16815260200182815260200192505050602060405180830381600087803b15801561175d57600080fd5b505af1158015611771573d6000803e3d6000fd5b505050506040513d602081101561178757600080fd5b810190808051906020019092919050505050600360009054906101000a900473ffffffffffffffffffffffffffffffffffffffff1673ffffffffffffffffffffffffffffffffffffffff166390cf0bba600d546040518263ffffffff1660e01b815260040180828152602001915050600060405180830381600087803b15801561181057600080fd5b505af1158015611824573d6000803e3d6000fd5b50505050600360009054906101000a900473ffffffffffffffffffffffffffffffffffffffff1673ffffffffffffffffffffffffffffffffffffffff1663cf41d6f86040518163ffffffff1660e01b8152600401600060405180830381600087803b15801561189257600080fd5b505af11580156118a6573d6000803e3d6000fd5b505050506000600860009054906101000a900473ffffffffffffffffffffffffffffffffffffffff1673ffffffffffffffffffffffffffffffffffffffff166370a08231306040518263ffffffff1660e01b8152600401808273ffffffffffffffffffffffffffffffffffffffff16815260200191505060206040518083038186803b15801561193557600080fd5b505afa158015611949573d6000803e3d6000fd5b505050506040513d602081101561195f57600080fd5b81019080805190602001909291905050509050600860009054906101000a900473ffffffffffffffffffffffffffffffffffffffff1673ffffffffffffffffffffffffffffffffffffffff166367dfd4c9826040518263ffffffff1660e01b815260040180828152602001915050600060405180830381600087803b1580156119e757600080fd5b505af11580156119fb573d6000803e3d6000fd5b505050506000600960009054906101000a900473ffffffffffffffffffffffffffffffffffffffff1673ffffffffffffffffffffffffffffffffffffffff166370a08231306040518263ffffffff1660e01b8152600401808273ffffffffffffffffffffffffffffffffffffffff16815260200191505060206040518083038186803b158015611a8a57600080fd5b505afa158015611a9e573d6000803e3d6000fd5b505050506040513d6020811015611ab457600080fd5b81019080805190602001909291905050509050600960009054906101000a900473ffffffffffffffffffffffffffffffffffffffff1673ffffffffffffffffffffffffffffffffffffffff1663095ea7b3600a60009054906101000a900473ffffffffffffffffffffffffffffffffffffffff16836040518363ffffffff1660e01b8152600401808373ffffffffffffffffffffffffffffffffffffffff16815260200182815260200192505050602060405180830381600087803b158015611b7c57600080fd5b505af1158015611b90573d6000803e3d6000fd5b505050506040513d6020811015611ba657600080fd5b810190808051906020019092919050505050600a60009054906101000a900473ffffffffffffffffffffffffffffffffffffffff1673ffffffffffffffffffffffffffffffffffffffff166380500d20600b60009054906101000a900473ffffffffffffffffffffffffffffffffffffffff167fffffffffffffffffffffffffffffffffffffffffffffffffffffffffffffffff306040518463ffffffff1660e01b8152600401808473ffffffffffffffffffffffffffffffffffffffff1681526020018381526020018273ffffffffffffffffffffffffffffffffffffffff1681526020019350505050600060405180830381600087803b158015611cab57600080fd5b505af1158015611cbf573d6000803e3d6000fd5b50505050611cf63047600660009054906101000a900473ffffffffffffffffffffffffffffffffffffffff16600f54601054610d86565b6000600d8190555060005b8c8c9050811015611e4c576000611d458a8a84818110611d1d57fe5b905060200201358d8d85818110611d3057fe5b90506020020135612d9f90919063ffffffff16565b90508d8d83818110611d5357fe5b9050602002013573ffffffffffffffffffffffffffffffffffffffff1673ffffffffffffffffffffffffffffffffffffffff1663095ea7b3600b60009054906101000a900473ffffffffffffffffffffffffffffffffffffffff16836040518363ffffffff1660e01b8152600401808373ffffffffffffffffffffffffffffffffffffffff16815260200182815260200192505050602060405180830381600087803b158015611e0257600080fd5b505af1158015611e16573d6000803e3d6000fd5b505050506040513d6020811015611e2c57600080fd5b810190808051906020019092919050505050508080600101915050611d01565b506001925050509998505050505050505050565b60011515600c60003373ffffffffffffffffffffffffffffffffffffffff1673ffffffffffffffffffffffffffffffffffffffff16815260200190815260200160002060009054906101000a900460ff16151514611f09576040517f08c379a00000000000000000000000000000000000000000000000000000000081526004018080602001828103825260248152602001806131526024913960400191505060405180910390fd5b6000600d5414611f64576040517f08c379a00000000000000000000000000000000000000000000000000000000081526004018080602001828103825260288152602001806131046028913960400191505060405180910390fd5b600360009054906101000a900473ffffffffffffffffffffffffffffffffffffffff1673ffffffffffffffffffffffffffffffffffffffff1663b86f6aef836040518263ffffffff1660e01b81526004018082815260200191505060206040518083038186803b158015611fd757600080fd5b505afa158015611feb573d6000803e3d6000fd5b505050506040513d602081101561200157600080fd5b8101908080519060200190929190505050612084576040517f08c379a00000000000000000000000000000000000000000000000000000000081526004018080602001828103825260208152602001807f546865207661756c74206973206e6f7420666f72206c69717569646174696f6e81525060200191505060405180910390fd5b81600d8190555080601081905550600360009054906101000a900473ffffffffffffffffffffffffffffffffffffffff1673ffffffffffffffffffffffffffffffffffffffff166311b4a832836040518263ffffffff1660e01b81526004018082815260200191505060206040518083038186803b15801561210557600080fd5b505afa158015612119573d6000803e3d6000fd5b505050506040513d602081101561212f57600080fd5b8101908080519060200190929190505050600e8190555061218864e8d4a5100061217a6103e861216c610401600e54612e2790919063ffffffff16565b612ead90919063ffffffff16565b612ead90919063ffffffff16565b600f819055506060600d54600e54600f54601054604051602001808581526020018481526020018381526020018281526020019450505050506040516020818303038152906040529050612201600660009054906101000a900473ffffffffffffffffffffffffffffffffffffffff16600f5483612969565b505050565b60011515600c60003373ffffffffffffffffffffffffffffffffffffffff1673ffffffffffffffffffffffffffffffffffffffff16815260200190815260200160002060009054906101000a900460ff161515146122af576040517f08c379a00000000000000000000000000000000000000000000000000000000081526004018080602001828103825260248152602001806131526024913960400191505060405180910390fd5b8173ffffffffffffffffffffffffffffffffffffffff1663095ea7b384836040518363ffffffff1660e01b8152600401808373ffffffffffffffffffffffffffffffffffffffff16815260200182815260200192505050602060405180830381600087803b15801561232057600080fd5b505af1158015612334573d6000803e3d6000fd5b505050506040513d602081101561234a57600080fd5b810190808051906020019092919050505050505050565b60011515600c60003373ffffffffffffffffffffffffffffffffffffffff1673ffffffffffffffffffffffffffffffffffffffff16815260200190815260200160002060009054906101000a900460ff161515148061240d5750600b60009054906101000a900473ffffffffffffffffffffffffffffffffffffffff1673ffffffffffffffffffffffffffffffffffffffff163373ffffffffffffffffffffffffffffffffffffffff16145b612462576040517f08c379a00000000000000000000000000000000000000000000000000000000081526004018080602001828103825260378152602001806131766037913960400191505060405180910390fd5b6000601e820190506060600267ffffffffffffffff8111801561248457600080fd5b506040519080825280602002602001820160405280156124b35781602001602082028036833780820191505090505b50905086816000815181106124c457fe5b602002602001019073ffffffffffffffffffffffffffffffffffffffff16908173ffffffffffffffffffffffffffffffffffffffff1681525050848160018151811061250c57fe5b602002602001019073ffffffffffffffffffffffffffffffffffffffff16908173ffffffffffffffffffffffffffffffffffffffff16815250508673ffffffffffffffffffffffffffffffffffffffff1663095ea7b3600560009054906101000a900473ffffffffffffffffffffffffffffffffffffffff16886040518363ffffffff1660e01b8152600401808373ffffffffffffffffffffffffffffffffffffffff16815260200182815260200192505050602060405180830381600087803b1580156125d957600080fd5b505af11580156125ed573d6000803e3d6000fd5b505050506040513d602081101561260357600080fd5b810190808051906020019092919050505050600560009054906101000a900473ffffffffffffffffffffffffffffffffffffffff1673ffffffffffffffffffffffffffffffffffffffff166338ed17398786848c876040518663ffffffff1660e01b815260040180868152602001858152602001806020018473ffffffffffffffffffffffffffffffffffffffff168152602001838152602001828103825285818151815260200191508051906020019060200280838360005b838110156126d85780820151818401526020810190506126bd565b505050509050019650505050505050600060405180830381600087803b15801561270157600080fd5b505af1158015612715573d6000803e3d6000fd5b505050506040513d6000823e3d601f19601f82011682018060405250602081101561273f57600080fd5b810190808051604051939291908464010000000082111561275f57600080fd5b8382019150602082018581111561277557600080fd5b825186602082028301116401000000008211171561279257600080fd5b8083526020830192505050908051906020019060200280838360005b838110156127c95780820151818401526020810190506127ae565b50505050905001604052505050505050505050505050565b6127e96113f4565b61285b576040517f08c379a00000000000000000000000000000000000000000000000000000000081526004018080602001828103825260208152602001807f4f776e61626c653a2063616c6c6572206973206e6f7420746865206f776e657281525060200191505060405180910390fd5b60005b81518110156128df576001600c600084848151811061287957fe5b602002602001015173ffffffffffffffffffffffffffffffffffffffff1673ffffffffffffffffffffffffffffffffffffffff16815260200190815260200160002060006101000a81548160ff021916908315150217905550808060010191505061285e565b5050565b6128eb6113f4565b61295d576040517f08c379a00000000000000000000000000000000000000000000000000000000081526004018080602001828103825260208152602001807f4f776e61626c653a2063616c6c6572206973206e6f7420746865206f776e657281525060200191505060405180910390fd5b61296681612ef7565b50565b60011515600c60003373ffffffffffffffffffffffffffffffffffffffff1673ffffffffffffffffffffffffffffffffffffffff16815260200190815260200160002060009054906101000a900460ff16151514612a12576040517f08c379a00000000000000000000000000000000000000000000000000000000081526004018080602001828103825260248152602001806131526024913960400191505060405180910390fd5b60003090506060600167ffffffffffffffff81118015612a3157600080fd5b50604051908082528060200260200182016040528015612a605781602001602082028036833780820191505090505b5090508481600081518110612a7157fe5b602002602001019073ffffffffffffffffffffffffffffffffffffffff16908173ffffffffffffffffffffffffffffffffffffffff16815250506060600167ffffffffffffffff81118015612ac557600080fd5b50604051908082528060200260200182016040528015612af45781602001602082028036833780820191505090505b5090508481600081518110612b0557fe5b6020026020010181815250506060600167ffffffffffffffff81118015612b2b57600080fd5b50604051908082528060200260200182016040528015612b5a5781602001602082028036833780820191505090505b509050600081600081518110612b6c57fe5b60200260200101818152505060003090506000600160009054906101000a900473ffffffffffffffffffffffffffffffffffffffff1673ffffffffffffffffffffffffffffffffffffffff1663ab9c4b5d87878787878d886040518863ffffffff1660e01b8152600401808873ffffffffffffffffffffffffffffffffffffffff1681526020018060200180602001806020018773ffffffffffffffffffffffffffffffffffffffff168152602001806020018661ffff16815260200185810385528b818151815260200191508051906020019060200280838360005b83811015612c64578082015181840152602081019050612c49565b5050505090500185810384528a818151815260200191508051906020019060200280838360005b83811015612ca6578082015181840152602081019050612c8b565b50505050905001858103835289818151815260200191508051906020019060200280838360005b83811015612ce8578082015181840152602081019050612ccd565b50505050905001858103825287818151815260200191508051906020019080838360005b83811015612d27578082015181840152602081019050612d0c565b50505050905090810190601f168015612d545780820380516001836020036101000a031916815260200191505b509b505050505050505050505050600060405180830381600087803b158015612d7c57600080fd5b505af1158015612d90573d6000803e3d6000fd5b50505050505050505050505050565b600080828401905083811015612e1d576040517f08c379a000000000000000000000000000000000000000000000000000000000815260040180806020018281038252601b8152602001807f536166654d6174683a206164646974696f6e206f766572666c6f77000000000081525060200191505060405180910390fd5b8091505092915050565b600080831415612e3a5760009050612ea7565b6000828402905082848281612e4b57fe5b0414612ea2576040517f08c379a00000000000000000000000000000000000000000000000000000000081526004018080602001828103825260218152602001806131ad6021913960400191505060405180910390fd5b809150505b92915050565b6000612eef83836040518060400160405280601a81526020017f536166654d6174683a206469766973696f6e206279207a65726f00000000000081525061303d565b905092915050565b600073ffffffffffffffffffffffffffffffffffffffff168173ffffffffffffffffffffffffffffffffffffffff161415612f7d576040517f08c379a000000000000000000000000000000000000000000000000000000000815260040180806020018281038252602681526020018061312c6026913960400191505060405180910390fd5b8073ffffffffffffffffffffffffffffffffffffffff16600260009054906101000a900473ffffffffffffffffffffffffffffffffffffffff1673ffffffffffffffffffffffffffffffffffffffff167f8be0079c531659141344cd1fd0a4f28419497f9722a3daafe3b4186f6b6457e060405160405180910390a380600260006101000a81548173ffffffffffffffffffffffffffffffffffffffff021916908373ffffffffffffffffffffffffffffffffffffffff16021790555050565b600080831182906130e9576040517f08c379a00000000000000000000000000000000000000000000000000000000081526004018080602001828103825283818151815260200191508051906020019080838360005b838110156130ae578082015181840152602081019050613093565b50505050905090810190601f1680156130db5780820380516001836020036101000a031916815260200191505b509250505060405180910390fd5b5060008385816130f557fe5b04905080915050939250505056fe546865726520697320616c72656164792061207661756c7420696e206c69717569646174696f6e2e4f776e61626c653a206e6577206f776e657220697320746865207a65726f20616464726573734d7573742062652063616c6c656420627920617070726f766564206164647265737365734d7573742062652063616c6c656420627920617070726f76656420616464726573736573206f72206279206c656e64696e6720706f6f6c536166654d6174683a206d756c7469706c69636174696f6e206f766572666c6f774d7573742062652063616c6c656420627920746865206c656e64696e6720706f6f6ca264697066735822122093355bea8635077b1d5dbbe584bb98568f2a4fce3610e6e72c467b4b608a5ee164736f6c634300060c0033",
  "linkReferences": {},
  "deployedLinkReferences": {}
}