{
  "_format": "hh-sol-artifact-1",
  "contractName": "TestLendingPool",
  "sourceName": "contracts/TestLendingPool.sol",
  "abi": [
    {
      "inputs": [
        {
          "internalType": "address",
          "name": "receiverAddres",
          "type": "address"
        },
        {
          "internalType": "address[]",
          "name": "assets",
          "type": "address[]"
        },
        {
          "internalType": "uint256[]",
          "name": "amounts",
          "type": "uint256[]"
        },
        {
          "internalType": "uint256[]",
          "name": "modes",
          "type": "uint256[]"
        },
        {
          "internalType": "address",
          "name": "onBehalfOf",
          "type": "address"
        },
        {
          "internalType": "bytes",
          "name": "params",
          "type": "bytes"
        },
        {
          "internalType": "uint16",
          "name": "referralCode",
          "type": "uint16"
        }
      ],
      "name": "flashLoan",
      "outputs": [],
      "stateMutability": "nonpayable",
      "type": "function"
    },
    {
      "stateMutability": "payable",
      "type": "receive"
    }
  ],
  "bytecode": "0x608060405234801561001057600080fd5b506108cc806100206000396000f3fe6080604052600436106100225760003560e01c8063ab9c4b5d1461002e57610029565b3661002957005b600080fd5b34801561003a57600080fd5b506101ff600480360360e081101561005157600080fd5b81019080803573ffffffffffffffffffffffffffffffffffffffff1690602001909291908035906020019064010000000081111561008e57600080fd5b8201836020820111156100a057600080fd5b803590602001918460208302840111640100000000831117156100c257600080fd5b9091929391929390803590602001906401000000008111156100e357600080fd5b8201836020820111156100f557600080fd5b8035906020019184602083028401116401000000008311171561011757600080fd5b90919293919293908035906020019064010000000081111561013857600080fd5b82018360208201111561014a57600080fd5b8035906020019184602083028401116401000000008311171561016c57600080fd5b9091929391929390803573ffffffffffffffffffffffffffffffffffffffff169060200190929190803590602001906401000000008111156101ad57600080fd5b8201836020820111156101bf57600080fd5b803590602001918460018302840111640100000000831117156101e157600080fd5b9091929391929390803561ffff169060200190929190505050610201565b005b8989600081811061020e57fe5b9050602002013573ffffffffffffffffffffffffffffffffffffffff1673ffffffffffffffffffffffffffffffffffffffff1663a9059cbb8c8a8a600081811061025457fe5b905060200201356040518363ffffffff1660e01b8152600401808373ffffffffffffffffffffffffffffffffffffffff16815260200182815260200192505050602060405180830381600087803b1580156102ae57600080fd5b505af11580156102c2573d6000803e3d6000fd5b505050506040513d60208110156102d857600080fd5b8101908080519060200190929190505050506060600167ffffffffffffffff8111801561030457600080fd5b506040519080825280602002602001820160405280156103335781602001602082028036833780820191505090505b509050610373620186a06103656103848c8c600081811061035057fe5b9050602002013561065790919063ffffffff16565b6106dd90919063ffffffff16565b8160008151811061038057fe5b6020026020010181815250503373ffffffffffffffffffffffffffffffffffffffff1663920f5c848c8c8c8c86308b8b6040518963ffffffff1660e01b8152600401808060200180602001806020018773ffffffffffffffffffffffffffffffffffffffff1681526020018060200185810385528d8d82818152602001925060200280828437600081840152601f19601f82011690508083019250505085810384528b8b82818152602001925060200280828437600081840152601f19601f820116905080830192505050858103835289818151815260200191508051906020019060200280838360005b8381101561048657808201518184015260208101905061046b565b505050509050018581038252878782818152602001925080828437600081840152601f19601f8201169050808301925050509c50505050505050505050505050602060405180830381600087803b1580156104e057600080fd5b505af11580156104f4573d6000803e3d6000fd5b505050506040513d602081101561050a57600080fd5b8101908080519060200190929190505050508a8a600081811061052957fe5b9050602002013573ffffffffffffffffffffffffffffffffffffffff1673ffffffffffffffffffffffffffffffffffffffff166323b872dd333061059d8560008151811061057357fe5b60200260200101518e8e600081811061058857fe5b9050602002013561072790919063ffffffff16565b6040518463ffffffff1660e01b8152600401808473ffffffffffffffffffffffffffffffffffffffff1681526020018373ffffffffffffffffffffffffffffffffffffffff1681526020018281526020019350505050602060405180830381600087803b15801561060d57600080fd5b505af1158015610621573d6000803e3d6000fd5b505050506040513d602081101561063757600080fd5b810190808051906020019092919050505050505050505050505050505050565b60008083141561066a57600090506106d7565b600082840290508284828161067b57fe5b04146106d2576040517f08c379a00000000000000000000000000000000000000000000000000000000081526004018080602001828103825260218152602001806108766021913960400191505060405180910390fd5b809150505b92915050565b600061071f83836040518060400160405280601a81526020017f536166654d6174683a206469766973696f6e206279207a65726f0000000000008152506107af565b905092915050565b6000808284019050838110156107a5576040517f08c379a000000000000000000000000000000000000000000000000000000000815260040180806020018281038252601b8152602001807f536166654d6174683a206164646974696f6e206f766572666c6f77000000000081525060200191505060405180910390fd5b8091505092915050565b6000808311829061085b576040517f08c379a00000000000000000000000000000000000000000000000000000000081526004018080602001828103825283818151815260200191508051906020019080838360005b83811015610820578082015181840152602081019050610805565b50505050905090810190601f16801561084d5780820380516001836020036101000a031916815260200191505b509250505060405180910390fd5b50600083858161086757fe5b04905080915050939250505056fe536166654d6174683a206d756c7469706c69636174696f6e206f766572666c6f77a264697066735822122021d66a982b319f0025d3a10e6914cb3e4564560910397a28ce8f31ab65ce14f064736f6c634300060c0033",
  "linkReferences": {},
  "deployedLinkReferences": {}
}