{
  "_format": "hh-sol-artifact-1",
  "contractName": "AaveUserData",
  "sourceName": "contracts/AaveUserData.sol",
  "abi": [
    {
      "inputs": [
        {
          "internalType": "address",
          "name": "_lendingPool",
          "type": "address"
        }
      ],
      "stateMutability": "nonpayable",
      "type": "constructor"
    },
    {
      "inputs": [
        {
          "internalType": "address",
          "name": "user",
          "type": "address"
        },
        {
          "internalType": "address",
          "name": "reserve",
          "type": "address"
        }
      ],
      "name": "getCollateralalance",
      "outputs": [
        {
          "internalType": "uint256",
          "name": "",
          "type": "uint256"
        }
      ],
      "stateMutability": "view",
      "type": "function"
    },
    {
      "inputs": [
        {
          "internalType": "address",
          "name": "user",
          "type": "address"
        },
        {
          "internalType": "address",
          "name": "reserve",
          "type": "address"
        }
      ],
      "name": "getDebtBalance",
      "outputs": [
        {
          "internalType": "uint256",
          "name": "",
          "type": "uint256"
        }
      ],
      "stateMutability": "view",
      "type": "function"
    },
    {
      "inputs": [
        {
          "internalType": "address",
          "name": "user",
          "type": "address"
        }
      ],
      "name": "getUserData",
      "outputs": [
        {
          "internalType": "uint256",
          "name": "totalCollateralETH",
          "type": "uint256"
        },
        {
          "internalType": "uint256",
          "name": "totalDebtETH",
          "type": "uint256"
        },
        {
          "internalType": "uint256",
          "name": "availableBorrowsETH",
          "type": "uint256"
        },
        {
          "internalType": "uint256",
          "name": "currentLiquidationThreshold",
          "type": "uint256"
        },
        {
          "internalType": "uint256",
          "name": "ltv",
          "type": "uint256"
        },
        {
          "internalType": "uint256",
          "name": "healthFactor",
          "type": "uint256"
        },
        {
          "components": [
            {
              "internalType": "string",
              "name": "symbol",
              "type": "string"
            },
            {
              "internalType": "address",
              "name": "reserveAddress",
              "type": "address"
            },
            {
              "internalType": "bool",
              "name": "isBorrowed",
              "type": "bool"
            },
            {
              "internalType": "uint256",
              "name": "debtBalance",
              "type": "uint256"
            },
            {
              "internalType": "bool",
              "name": "isCollateral",
              "type": "bool"
            },
            {
              "internalType": "uint256",
              "name": "collateralBalance",
              "type": "uint256"
            }
          ],
          "internalType": "struct AaveUserData.UserReserve[]",
          "name": "",
          "type": "tuple[]"
        }
      ],
      "stateMutability": "view",
      "type": "function"
    }
  ],
  "bytecode": "0x60806040523480156200001157600080fd5b50604051620013fc380380620013fc833981810160405281019062000037919062000095565b806000806101000a81548173ffffffffffffffffffffffffffffffffffffffff021916908373ffffffffffffffffffffffffffffffffffffffff160217905550506200010f565b6000815190506200008f81620000f5565b92915050565b600060208284031215620000a857600080fd5b6000620000b8848285016200007e565b91505092915050565b6000620000ce82620000d5565b9050919050565b600073ffffffffffffffffffffffffffffffffffffffff82169050919050565b6200010081620000c1565b81146200010c57600080fd5b50565b6112dd806200011f6000396000f3fe608060405234801561001057600080fd5b50600436106100415760003560e01c806358bd5c20146100465780636d2a039f14610076578063ffc9896b146100a6575b600080fd5b610060600480360381019061005b9190610c93565b6100dc565b60405161006d9190611007565b60405180910390f35b610090600480360381019061008b9190610c93565b610229565b60405161009d9190611007565b60405180910390f35b6100c060048036038101906100bb9190610c6a565b610375565b6040516100d39796959493929190611022565b60405180910390f35b60006100e66107ee565b60008054906101000a900473ffffffffffffffffffffffffffffffffffffffff1673ffffffffffffffffffffffffffffffffffffffff166335ea6a75846040518263ffffffff1660e01b815260040161013f9190610fec565b6101806040518083038186803b15801561015857600080fd5b505afa15801561016c573d6000803e3d6000fd5b505050506040513d601f19601f820116820180604052508101906101909190610d51565b905080610120015173ffffffffffffffffffffffffffffffffffffffff166370a08231856040518263ffffffff1660e01b81526004016101d09190610fec565b60206040518083038186803b1580156101e857600080fd5b505afa1580156101fc573d6000803e3d6000fd5b505050506040513d601f19601f820116820180604052508101906102209190610da4565b91505092915050565b60006102336107ee565b60008054906101000a900473ffffffffffffffffffffffffffffffffffffffff1673ffffffffffffffffffffffffffffffffffffffff166335ea6a75846040518263ffffffff1660e01b815260040161028c9190610fec565b6101806040518083038186803b1580156102a557600080fd5b505afa1580156102b9573d6000803e3d6000fd5b505050506040513d601f19601f820116820180604052508101906102dd9190610d51565b90508060e0015173ffffffffffffffffffffffffffffffffffffffff166370a08231856040518263ffffffff1660e01b815260040161031c9190610fec565b60206040518083038186803b15801561033457600080fd5b505afa158015610348573d6000803e3d6000fd5b505050506040513d601f19601f8201168201806040525081019061036c9190610da4565b91505092915050565b600080600080600080606060008054906101000a900473ffffffffffffffffffffffffffffffffffffffff1673ffffffffffffffffffffffffffffffffffffffff1663bf92857c896040518263ffffffff1660e01b81526004016103d99190610fec565b60c06040518083038186803b1580156103f157600080fd5b505afa158015610405573d6000803e3d6000fd5b505050506040513d601f19601f820116820180604052508101906104299190610dcd565b809750819850829950839a50849b50859c50505050505050606060008054906101000a900473ffffffffffffffffffffffffffffffffffffffff1673ffffffffffffffffffffffffffffffffffffffff1663d1946dbc6040518163ffffffff1660e01b815260040160006040518083038186803b1580156104a957600080fd5b505afa1580156104bd573d6000803e3d6000fd5b505050506040513d6000823e3d601f19601f820116820180604052508101906104e69190610ccf565b90506060815167ffffffffffffffff8111801561050257600080fd5b5060405190808252806020026020018201604052801561053c57816020015b610529610911565b8152602001906001900390816105215790505b509050610547610961565b60008054906101000a900473ffffffffffffffffffffffffffffffffffffffff1673ffffffffffffffffffffffffffffffffffffffff16634417a5838c6040518263ffffffff1660e01b81526004016105a09190610fec565b60206040518083038186803b1580156105b857600080fd5b505afa1580156105cc573d6000803e3d6000fd5b505050506040513d601f19601f820116820180604052508101906105f09190610d7b565b905060005b835181101561077757610608828261079b565b1561076a57610615610911565b6040518060c0016040528086848151811061062c57fe5b602002602001015173ffffffffffffffffffffffffffffffffffffffff166395d89b416040518163ffffffff1660e01b815260040160006040518083038186803b15801561067957600080fd5b505afa15801561068d573d6000803e3d6000fd5b505050506040513d6000823e3d601f19601f820116820180604052508101906106b69190610d10565b81526020018684815181106106c757fe5b602002602001015173ffffffffffffffffffffffffffffffffffffffff1681526020016106f485856107b6565b151581526020016107188f88868151811061070b57fe5b60200260200101516100dc565b815260200161072785856107d1565b1515815260200161074b8f88868151811061073e57fe5b6020026020010151610229565b81525090508084838151811061075d57fe5b6020026020010181905250505b80806001019150506105f5565b50898989898989879950995099509950995099509950505050919395979092949650565b6000806003600284028560000151901c161415905092915050565b6000806001600284028560000151901c161415905092915050565b60008060018060028502018560000151901c161415905092915050565b604051806101800160405280610802610974565b815260200160006fffffffffffffffffffffffffffffffff16815260200160006fffffffffffffffffffffffffffffffff16815260200160006fffffffffffffffffffffffffffffffff16815260200160006fffffffffffffffffffffffffffffffff16815260200160006fffffffffffffffffffffffffffffffff168152602001600064ffffffffff168152602001600073ffffffffffffffffffffffffffffffffffffffff168152602001600073ffffffffffffffffffffffffffffffffffffffff168152602001600073ffffffffffffffffffffffffffffffffffffffff168152602001600073ffffffffffffffffffffffffffffffffffffffff168152602001600060ff1681525090565b6040518060c0016040528060608152602001600073ffffffffffffffffffffffffffffffffffffffff16815260200160001515815260200160008152602001600015158152602001600081525090565b6040518060200160405280600081525090565b6040518060200160405280600081525090565b60008135905061099681611234565b92915050565b6000815190506109ab81611234565b92915050565b600082601f8301126109c257600080fd5b81516109d56109d0826110c5565b611098565b915081818352602084019350602081019050838560208402820111156109fa57600080fd5b60005b83811015610a2a5781610a10888261099c565b8452602084019350602083019250506001810190506109fd565b5050505092915050565b600082601f830112610a4557600080fd5b8151610a58610a53826110ed565b611098565b91508082526020830160208301858383011115610a7457600080fd5b610a7f8382846111f0565b50505092915050565b600060208284031215610a9a57600080fd5b610aa46020611098565b90506000610ab484828501610c2b565b60008301525092915050565b60006101808284031215610ad357600080fd5b610ade610180611098565b90506000610aee84828501610a88565b6000830152506020610b0284828501610c16565b6020830152506040610b1684828501610c16565b6040830152506060610b2a84828501610c16565b6060830152506080610b3e84828501610c16565b60808301525060a0610b5284828501610c16565b60a08301525060c0610b6684828501610c40565b60c08301525060e0610b7a8482850161099c565b60e083015250610100610b8f8482850161099c565b61010083015250610120610ba58482850161099c565b61012083015250610140610bbb8482850161099c565b61014083015250610160610bd184828501610c55565b6101608301525092915050565b600060208284031215610bf057600080fd5b610bfa6020611098565b90506000610c0a84828501610c2b565b60008301525092915050565b600081519050610c258161124b565b92915050565b600081519050610c3a81611262565b92915050565b600081519050610c4f81611279565b92915050565b600081519050610c6481611290565b92915050565b600060208284031215610c7c57600080fd5b6000610c8a84828501610987565b91505092915050565b60008060408385031215610ca657600080fd5b6000610cb485828601610987565b9250506020610cc585828601610987565b9150509250929050565b600060208284031215610ce157600080fd5b600082015167ffffffffffffffff811115610cfb57600080fd5b610d07848285016109b1565b91505092915050565b600060208284031215610d2257600080fd5b600082015167ffffffffffffffff811115610d3c57600080fd5b610d4884828501610a34565b91505092915050565b60006101808284031215610d6457600080fd5b6000610d7284828501610ac0565b91505092915050565b600060208284031215610d8d57600080fd5b6000610d9b84828501610bde565b91505092915050565b600060208284031215610db657600080fd5b6000610dc484828501610c2b565b91505092915050565b60008060008060008060c08789031215610de657600080fd5b6000610df489828a01610c2b565b9650506020610e0589828a01610c2b565b9550506040610e1689828a01610c2b565b9450506060610e2789828a01610c2b565b9350506080610e3889828a01610c2b565b92505060a0610e4989828a01610c2b565b9150509295509295509295565b6000610e628383610f45565b905092915050565b610e738161116e565b82525050565b610e828161116e565b82525050565b6000610e9382611129565b610e9d818561114c565b935083602082028501610eaf85611119565b8060005b85811015610eeb5784840389528151610ecc8582610e56565b9450610ed78361113f565b925060208a01995050600181019050610eb3565b50829750879550505050505092915050565b610f0681611180565b82525050565b6000610f1782611134565b610f21818561115d565b9350610f318185602086016111f0565b610f3a81611223565b840191505092915050565b600060c0830160008301518482036000860152610f628282610f0c565b9150506020830151610f776020860182610e6a565b506040830151610f8a6040860182610efd565b506060830151610f9d6060860182610fce565b506080830151610fb06080860182610efd565b5060a0830151610fc360a0860182610fce565b508091505092915050565b610fd7816111c8565b82525050565b610fe6816111c8565b82525050565b60006020820190506110016000830184610e79565b92915050565b600060208201905061101c6000830184610fdd565b92915050565b600060e082019050611037600083018a610fdd565b6110446020830189610fdd565b6110516040830188610fdd565b61105e6060830187610fdd565b61106b6080830186610fdd565b61107860a0830185610fdd565b81810360c083015261108a8184610e88565b905098975050505050505050565b6000604051905081810181811067ffffffffffffffff821117156110bb57600080fd5b8060405250919050565b600067ffffffffffffffff8211156110dc57600080fd5b602082029050602081019050919050565b600067ffffffffffffffff82111561110457600080fd5b601f19601f8301169050602081019050919050565b6000819050602082019050919050565b600081519050919050565b600081519050919050565b6000602082019050919050565b600082825260208201905092915050565b600082825260208201905092915050565b6000611179826111a8565b9050919050565b60008115159050919050565b60006fffffffffffffffffffffffffffffffff82169050919050565b600073ffffffffffffffffffffffffffffffffffffffff82169050919050565b6000819050919050565b600064ffffffffff82169050919050565b600060ff82169050919050565b60005b8381101561120e5780820151818401526020810190506111f3565b8381111561121d576000848401525b50505050565b6000601f19601f8301169050919050565b61123d8161116e565b811461124857600080fd5b50565b6112548161118c565b811461125f57600080fd5b50565b61126b816111c8565b811461127657600080fd5b50565b611282816111d2565b811461128d57600080fd5b50565b611299816111e3565b81146112a457600080fd5b5056fea2646970667358221220a7156efb45dd9eb014f0748e49e1f8b1d2519f048a18ebe68095f8629fc895a364736f6c634300060c0033",
  "linkReferences": {},
  "deployedLinkReferences": {}
}