{
  "_format": "hh-sol-artifact-1",
  "contractName": "AaveUserData",
  "sourceName": "contracts/AaveUserData.sol",
  "abi": [
    {
      "inputs": [
        {
          "internalType": "address",
          "name": "_lendingPool",
          "type": "address"
        }
      ],
      "stateMutability": "nonpayable",
      "type": "constructor"
    },
    {
      "inputs": [
        {
          "internalType": "address",
          "name": "user",
          "type": "address"
        },
        {
          "internalType": "address",
          "name": "reserve",
          "type": "address"
        }
      ],
      "name": "getCollateralalance",
      "outputs": [
        {
          "internalType": "uint256",
          "name": "",
          "type": "uint256"
        }
      ],
      "stateMutability": "view",
      "type": "function"
    },
    {
      "inputs": [
        {
          "internalType": "address",
          "name": "user",
          "type": "address"
        },
        {
          "internalType": "address",
          "name": "reserve",
          "type": "address"
        }
      ],
      "name": "getDebtBalance",
      "outputs": [
        {
          "internalType": "uint256",
          "name": "",
          "type": "uint256"
        }
      ],
      "stateMutability": "view",
      "type": "function"
    },
    {
      "inputs": [
        {
          "internalType": "address",
          "name": "user",
          "type": "address"
        }
      ],
      "name": "getUserData",
      "outputs": [
        {
          "internalType": "uint256",
          "name": "totalCollateralETH",
          "type": "uint256"
        },
        {
          "internalType": "uint256",
          "name": "totalDebtETH",
          "type": "uint256"
        },
        {
          "internalType": "uint256",
          "name": "availableBorrowsETH",
          "type": "uint256"
        },
        {
          "internalType": "uint256",
          "name": "currentLiquidationThreshold",
          "type": "uint256"
        },
        {
          "internalType": "uint256",
          "name": "healthFactor",
          "type": "uint256"
        },
        {
          "internalType": "uint256",
          "name": "blockNumber",
          "type": "uint256"
        },
        {
          "components": [
            {
              "internalType": "string",
              "name": "symbol",
              "type": "string"
            },
            {
              "internalType": "address",
              "name": "reserveAddress",
              "type": "address"
            },
            {
              "internalType": "bool",
              "name": "isBorrowed",
              "type": "bool"
            },
            {
              "internalType": "uint256",
              "name": "debtBalance",
              "type": "uint256"
            },
            {
              "internalType": "bool",
              "name": "isCollateral",
              "type": "bool"
            },
            {
              "internalType": "uint256",
              "name": "collateralBalance",
              "type": "uint256"
            }
          ],
          "internalType": "struct AaveUserData.UserReserve[]",
          "name": "",
          "type": "tuple[]"
        }
      ],
      "stateMutability": "view",
      "type": "function"
    }
  ],
  "bytecode": "0x60806040523480156200001157600080fd5b506040516200143c3803806200143c833981810160405281019062000037919062000095565b806000806101000a81548173ffffffffffffffffffffffffffffffffffffffff021916908373ffffffffffffffffffffffffffffffffffffffff160217905550506200010f565b6000815190506200008f81620000f5565b92915050565b600060208284031215620000a857600080fd5b6000620000b8848285016200007e565b91505092915050565b6000620000ce82620000d5565b9050919050565b600073ffffffffffffffffffffffffffffffffffffffff82169050919050565b6200010081620000c1565b81146200010c57600080fd5b50565b61131d806200011f6000396000f3fe608060405234801561001057600080fd5b50600436106100415760003560e01c806358bd5c20146100465780636d2a039f14610076578063ffc9896b146100a6575b600080fd5b610060600480360381019061005b9190610cd3565b6100dc565b60405161006d9190611047565b60405180910390f35b610090600480360381019061008b9190610cd3565b610229565b60405161009d9190611047565b60405180910390f35b6100c060048036038101906100bb9190610caa565b610375565b6040516100d39796959493929190611062565b60405180910390f35b60006100e661082e565b60008054906101000a900473ffffffffffffffffffffffffffffffffffffffff1673ffffffffffffffffffffffffffffffffffffffff166335ea6a75846040518263ffffffff1660e01b815260040161013f919061102c565b6101806040518083038186803b15801561015857600080fd5b505afa15801561016c573d6000803e3d6000fd5b505050506040513d601f19601f820116820180604052508101906101909190610d91565b905080610120015173ffffffffffffffffffffffffffffffffffffffff166370a08231856040518263ffffffff1660e01b81526004016101d0919061102c565b60206040518083038186803b1580156101e857600080fd5b505afa1580156101fc573d6000803e3d6000fd5b505050506040513d601f19601f820116820180604052508101906102209190610de4565b91505092915050565b600061023361082e565b60008054906101000a900473ffffffffffffffffffffffffffffffffffffffff1673ffffffffffffffffffffffffffffffffffffffff166335ea6a75846040518263ffffffff1660e01b815260040161028c919061102c565b6101806040518083038186803b1580156102a557600080fd5b505afa1580156102b9573d6000803e3d6000fd5b505050506040513d601f19601f820116820180604052508101906102dd9190610d91565b90508060e0015173ffffffffffffffffffffffffffffffffffffffff166370a08231856040518263ffffffff1660e01b815260040161031c919061102c565b60206040518083038186803b15801561033457600080fd5b505afa158015610348573d6000803e3d6000fd5b505050506040513d601f19601f8201168201806040525081019061036c9190610de4565b91505092915050565b600080600080600080606060008054906101000a900473ffffffffffffffffffffffffffffffffffffffff1673ffffffffffffffffffffffffffffffffffffffff1663bf92857c896040518263ffffffff1660e01b81526004016103d9919061102c565b60c06040518083038186803b1580156103f157600080fd5b505afa158015610405573d6000803e3d6000fd5b505050506040513d601f19601f820116820180604052508101906104299190610e0d565b9050809750819850829950839a50849b505050505050606060008054906101000a900473ffffffffffffffffffffffffffffffffffffffff1673ffffffffffffffffffffffffffffffffffffffff1663d1946dbc6040518163ffffffff1660e01b815260040160006040518083038186803b1580156104a757600080fd5b505afa1580156104bb573d6000803e3d6000fd5b505050506040513d6000823e3d601f19601f820116820180604052508101906104e49190610d0f565b90506060815167ffffffffffffffff8111801561050057600080fd5b5060405190808252806020026020018201604052801561053a57816020015b610527610951565b81526020019060019003908161051f5790505b5090506105456109a1565b60008054906101000a900473ffffffffffffffffffffffffffffffffffffffff1673ffffffffffffffffffffffffffffffffffffffff16634417a5838c6040518263ffffffff1660e01b815260040161059e919061102c565b60206040518083038186803b1580156105b657600080fd5b505afa1580156105ca573d6000803e3d6000fd5b505050506040513d601f19601f820116820180604052508101906105ee9190610dbb565b90506105f9816107a8565b156107855760005b83518110156107835761061482826107db565b1561077657610621610951565b6040518060c0016040528086848151811061063857fe5b602002602001015173ffffffffffffffffffffffffffffffffffffffff166395d89b416040518163ffffffff1660e01b815260040160006040518083038186803b15801561068557600080fd5b505afa158015610699573d6000803e3d6000fd5b505050506040513d6000823e3d601f19601f820116820180604052508101906106c29190610d50565b81526020018684815181106106d357fe5b602002602001015173ffffffffffffffffffffffffffffffffffffffff16815260200161070085856107f6565b151581526020016107248f88868151811061071757fe5b60200260200101516100dc565b81526020016107338585610811565b151581526020016107578f88868151811061074a57fe5b6020026020010151610229565b81525090508084838151811061076957fe5b6020026020010181905250505b8080600101915050610601565b505b898989898943879950995099509950995099509950505050919395979092949650565b6000807f555555555555555555555555555555555555555555555555555555555555555583600001511614159050919050565b6000806003600284028560000151901c161415905092915050565b6000806001600284028560000151901c161415905092915050565b60008060018060028502018560000151901c161415905092915050565b6040518061018001604052806108426109b4565b815260200160006fffffffffffffffffffffffffffffffff16815260200160006fffffffffffffffffffffffffffffffff16815260200160006fffffffffffffffffffffffffffffffff16815260200160006fffffffffffffffffffffffffffffffff16815260200160006fffffffffffffffffffffffffffffffff168152602001600064ffffffffff168152602001600073ffffffffffffffffffffffffffffffffffffffff168152602001600073ffffffffffffffffffffffffffffffffffffffff168152602001600073ffffffffffffffffffffffffffffffffffffffff168152602001600073ffffffffffffffffffffffffffffffffffffffff168152602001600060ff1681525090565b6040518060c0016040528060608152602001600073ffffffffffffffffffffffffffffffffffffffff16815260200160001515815260200160008152602001600015158152602001600081525090565b6040518060200160405280600081525090565b6040518060200160405280600081525090565b6000813590506109d681611274565b92915050565b6000815190506109eb81611274565b92915050565b600082601f830112610a0257600080fd5b8151610a15610a1082611105565b6110d8565b91508181835260208401935060208101905083856020840282011115610a3a57600080fd5b60005b83811015610a6a5781610a5088826109dc565b845260208401935060208301925050600181019050610a3d565b5050505092915050565b600082601f830112610a8557600080fd5b8151610a98610a938261112d565b6110d8565b91508082526020830160208301858383011115610ab457600080fd5b610abf838284611230565b50505092915050565b600060208284031215610ada57600080fd5b610ae460206110d8565b90506000610af484828501610c6b565b60008301525092915050565b60006101808284031215610b1357600080fd5b610b1e6101806110d8565b90506000610b2e84828501610ac8565b6000830152506020610b4284828501610c56565b6020830152506040610b5684828501610c56565b6040830152506060610b6a84828501610c56565b6060830152506080610b7e84828501610c56565b60808301525060a0610b9284828501610c56565b60a08301525060c0610ba684828501610c80565b60c08301525060e0610bba848285016109dc565b60e083015250610100610bcf848285016109dc565b61010083015250610120610be5848285016109dc565b61012083015250610140610bfb848285016109dc565b61014083015250610160610c1184828501610c95565b6101608301525092915050565b600060208284031215610c3057600080fd5b610c3a60206110d8565b90506000610c4a84828501610c6b565b60008301525092915050565b600081519050610c658161128b565b92915050565b600081519050610c7a816112a2565b92915050565b600081519050610c8f816112b9565b92915050565b600081519050610ca4816112d0565b92915050565b600060208284031215610cbc57600080fd5b6000610cca848285016109c7565b91505092915050565b60008060408385031215610ce657600080fd5b6000610cf4858286016109c7565b9250506020610d05858286016109c7565b9150509250929050565b600060208284031215610d2157600080fd5b600082015167ffffffffffffffff811115610d3b57600080fd5b610d47848285016109f1565b91505092915050565b600060208284031215610d6257600080fd5b600082015167ffffffffffffffff811115610d7c57600080fd5b610d8884828501610a74565b91505092915050565b60006101808284031215610da457600080fd5b6000610db284828501610b00565b91505092915050565b600060208284031215610dcd57600080fd5b6000610ddb84828501610c1e565b91505092915050565b600060208284031215610df657600080fd5b6000610e0484828501610c6b565b91505092915050565b60008060008060008060c08789031215610e2657600080fd5b6000610e3489828a01610c6b565b9650506020610e4589828a01610c6b565b9550506040610e5689828a01610c6b565b9450506060610e6789828a01610c6b565b9350506080610e7889828a01610c6b565b92505060a0610e8989828a01610c6b565b9150509295509295509295565b6000610ea28383610f85565b905092915050565b610eb3816111ae565b82525050565b610ec2816111ae565b82525050565b6000610ed382611169565b610edd818561118c565b935083602082028501610eef85611159565b8060005b85811015610f2b5784840389528151610f0c8582610e96565b9450610f178361117f565b925060208a01995050600181019050610ef3565b50829750879550505050505092915050565b610f46816111c0565b82525050565b6000610f5782611174565b610f61818561119d565b9350610f71818560208601611230565b610f7a81611263565b840191505092915050565b600060c0830160008301518482036000860152610fa28282610f4c565b9150506020830151610fb76020860182610eaa565b506040830151610fca6040860182610f3d565b506060830151610fdd606086018261100e565b506080830151610ff06080860182610f3d565b5060a083015161100360a086018261100e565b508091505092915050565b61101781611208565b82525050565b61102681611208565b82525050565b60006020820190506110416000830184610eb9565b92915050565b600060208201905061105c600083018461101d565b92915050565b600060e082019050611077600083018a61101d565b611084602083018961101d565b611091604083018861101d565b61109e606083018761101d565b6110ab608083018661101d565b6110b860a083018561101d565b81810360c08301526110ca8184610ec8565b905098975050505050505050565b6000604051905081810181811067ffffffffffffffff821117156110fb57600080fd5b8060405250919050565b600067ffffffffffffffff82111561111c57600080fd5b602082029050602081019050919050565b600067ffffffffffffffff82111561114457600080fd5b601f19601f8301169050602081019050919050565b6000819050602082019050919050565b600081519050919050565b600081519050919050565b6000602082019050919050565b600082825260208201905092915050565b600082825260208201905092915050565b60006111b9826111e8565b9050919050565b60008115159050919050565b60006fffffffffffffffffffffffffffffffff82169050919050565b600073ffffffffffffffffffffffffffffffffffffffff82169050919050565b6000819050919050565b600064ffffffffff82169050919050565b600060ff82169050919050565b60005b8381101561124e578082015181840152602081019050611233565b8381111561125d576000848401525b50505050565b6000601f19601f8301169050919050565b61127d816111ae565b811461128857600080fd5b50565b611294816111cc565b811461129f57600080fd5b50565b6112ab81611208565b81146112b657600080fd5b50565b6112c281611212565b81146112cd57600080fd5b50565b6112d981611223565b81146112e457600080fd5b5056fea2646970667358221220debf4b23dd112f3a08476f7962e744592f2ed896661aa085d7f25d48e9ad892c64736f6c634300060c0033",
  "linkReferences": {},
  "deployedLinkReferences": {}
}