{
  "_format": "hh-sol-artifact-1",
  "contractName": "TestUniswapV2Router02",
  "sourceName": "contracts/TestUniswapV2Router02.sol",
  "abi": [
    {
      "inputs": [],
      "name": "WETH",
      "outputs": [
        {
          "internalType": "address",
          "name": "",
          "type": "address"
        }
      ],
      "stateMutability": "pure",
      "type": "function"
    },
    {
      "inputs": [
        {
          "internalType": "uint256",
          "name": "amountOutMin",
          "type": "uint256"
        },
        {
          "internalType": "address[]",
          "name": "path",
          "type": "address[]"
        },
        {
          "internalType": "address",
          "name": "to",
          "type": "address"
        },
        {
          "internalType": "uint256",
          "name": "deadline",
          "type": "uint256"
        }
      ],
      "name": "swapExactETHForTokens",
      "outputs": [
        {
          "internalType": "uint256[]",
          "name": "amounts",
          "type": "uint256[]"
        }
      ],
      "stateMutability": "payable",
      "type": "function"
    },
    {
      "inputs": [
        {
          "internalType": "uint256",
          "name": "amountIn",
          "type": "uint256"
        },
        {
          "internalType": "uint256",
          "name": "amountOutMin",
          "type": "uint256"
        },
        {
          "internalType": "address[]",
          "name": "path",
          "type": "address[]"
        },
        {
          "internalType": "address",
          "name": "to",
          "type": "address"
        },
        {
          "internalType": "uint256",
          "name": "deadline",
          "type": "uint256"
        }
      ],
      "name": "swapExactTokensForTokens",
      "outputs": [
        {
          "internalType": "uint256[]",
          "name": "amounts",
          "type": "uint256[]"
        }
      ],
      "stateMutability": "nonpayable",
      "type": "function"
    }
  ],
  "bytecode": "0x608060405234801561001057600080fd5b5061037b806100206000396000f3fe6080604052600436106100345760003560e01c806338ed1739146100395780637ff36ab514610152578063ad5c464814610254575b600080fd5b34801561004557600080fd5b506100fb600480360360a081101561005c57600080fd5b8101908080359060200190929190803590602001909291908035906020019064010000000081111561008d57600080fd5b82018360208201111561009f57600080fd5b803590602001918460208302840111640100000000831117156100c157600080fd5b9091929391929390803573ffffffffffffffffffffffffffffffffffffffff16906020019092919080359060200190929190505050610295565b6040518080602001828103825283818151815260200191508051906020019060200280838360005b8381101561013e578082015181840152602081019050610123565b505050509050019250505060405180910390f35b6101fd6004803603608081101561016857600080fd5b81019080803590602001909291908035906020019064010000000081111561018f57600080fd5b8201836020820111156101a157600080fd5b803590602001918460208302840111640100000000831117156101c357600080fd5b9091929391929390803573ffffffffffffffffffffffffffffffffffffffff169060200190929190803590602001909291905050506102eb565b6040518080602001828103825283818151815260200191508051906020019060200280838360005b83811015610240578082015181840152602081019050610225565b505050509050019250505060405180910390f35b34801561026057600080fd5b50610269610340565b604051808273ffffffffffffffffffffffffffffffffffffffff16815260200191505060405180910390f35b6060600167ffffffffffffffff811180156102af57600080fd5b506040519080825280602002602001820160405280156102de5781602001602082028036833780820191505090505b5090509695505050505050565b6060600167ffffffffffffffff8111801561030557600080fd5b506040519080825280602002602001820160405280156103345781602001602082028036833780820191505090505b50905095945050505050565b60009056fea264697066735822122002bd3d5dbf5275d6003d56b123eebc65b8bf80f3267c165574f0c1ba5f36484d64736f6c634300060c0033",
  "linkReferences": {},
  "deployedLinkReferences": {}
}